:020000040800F2
:10000000000400209111000861130008611300082A
:1000100061130008611300086113000861130008F0
:1000200061130008611300086113000891130008B0
:1000300061130008611300086113000861140008CF
:1000400061130008611300086113000861130008C0
:1000500061130008611300086113000861130008B0
:10006000611300086113000861130008D17F0008C4
:10007000018000083180000861800008918000083C
:10008000C1800008F180000801890008318C000857
:10009000818C0008F18C0008618D00086113000854
:1000A00061130008A1A3000861130008B1A30008B0
:1000B000611300086113000881A50008F198000889
:1000C000119A000861130008611300086113000809
:1000D00061130008E1A8000801A9000861130008E5
:1000E0006113000861130008611300086113000820
:1000F00061130008611300086113000821810008E2
:1001000061130008A1900008A1A500086113000870
:1001100061130008611300086113000861130008EF
:100120005181000881810008B1810008E181000847
:1001300011820008611300086113000861130008B0
:10014000611300086113000861130008319F000863
:100150004182000871820008A18200086113000832
:10016000611300086113000861130008611300089F
:10017000611300086113000861130008611300088F
:10018000611300086113000861130008611300087F
:10019000611300086113000861130008611300086F
:0C01A000611300086113000861130008DF
:1001B00010B582B006F004FF01F0C2F94FF480538D
:1001C000C4F202034FF400421A830EF019F800241F
:1001D0000DF06EFF0EF02CFD0FF0F2FE0EF0E8FEBB
:1001E0000EF086FF0FF064F80FF0DAF94FF47A7032
:1001F00001F01EFC0FF044FD4FF4E87140220A4B61
:1002000000940A4801F0C4FB00940948094B4FF4DC
:10021000A871402201F0BCFB0DF062FF4FF47A7030
:1002200001F006FCF8E700BF01DD000868250020AA
:1002300018240020B1DC0008AFF30080AFF3008089
:1002400081F0004102E000BF83F0004330B54FEA87
:1002500041044FEA430594EA050F08BF90EA020FF4
:100260001FBF54EA000C55EA020C7FEA645C7FEA87
:10027000655C00F0E2804FEA5454D4EB5555B8BFAA
:100280006D420CDD2C4480EA020281EA030382EA1B
:10029000000083EA010180EA020281EA0303362DAD
:1002A00088BF30BD11F0004F4FEA01314FF4801C80
:1002B0004CEA113102D0404261EB410113F0004F92
:1002C0004FEA03334CEA133302D0524263EB430349
:1002D00094EA050F00F0A780A4F10104D5F1200EE7
:1002E0000DDB02FA0EFC22FA05F2801841F1000142
:1002F00003FA0EF2801843FA05F359410EE0A5F116
:1003000020050EF1200E012A03FA0EFC28BF4CF046
:10031000020C43FA05F3C01851EBE37101F00045FC
:1003200007D54FF0000EDCF1000C7EEB00006EEB09
:100330000101B1F5801F1BD3B1F5001F0CD3490893
:100340005FEA30004FEA3C0C04F101044FEA4452EA
:1003500012F5800F80F09A80BCF1004F08BF5FEA71
:10036000500C50F1000041EB045141EA050130BD51
:100370005FEA4C0C404141EB010111F4801FA4F1F4
:100380000104E9D191F0000F04BF01460020B1FA49
:1003900081F308BF2033A3F10B03B3F120020CDA81
:1003A0000C3208DD02F1140CC2F10C0201FA0CF05F
:1003B00021FA02F10CE002F11402D8BFC2F1200CC4
:1003C00001FA02F120FA0CFCDCBF41EA0C0190407A
:1003D000E41AA2BF01EB0451294330BD6FEA0404C3
:1003E0001F3C1CDA0C340EDC04F11404C4F12002AE
:1003F00020FA04F001FA02F340EA030021FA04F3C0
:1004000045EA030130BDC4F10C04C4F1200220FA16
:1004100002F001FA04F340EA0300294630BD21FA54
:1004200004F0294630BD94F0000F83F4801306BF1A
:1004300081F480110134013D4EE77FEA645C18BF0E
:100440007FEA655C29D094EA050F08BF90EA020FA5
:1004500005D054EA000C04BF1946104630BD91EA9D
:10046000030F1EBF0021002030BD5FEA545C05D1A0
:100470004000494128BF41F0004130BD14F58004DF
:100480003CBF01F5801130BD01F0004545F0FE4153
:1004900041F470014FF0000030BD7FEA645C1ABF88
:1004A000194610467FEA655C1CBF0B46024650EABF
:1004B000013406BF52EA033591EA030F41F40021EB
:1004C00030BD00BF90F0000F04BF0021704730B571
:1004D0004FF4806404F132044FF000054FF0000146
:1004E00050E700BF90F0000F04BF0021704730B507
:1004F0004FF4806404F1320410F0004548BF4042DC
:100500004FF000013EE700BF42004FEAE2014FEA30
:1005100031014FEA02701FBF12F07F4393F07F4F0B
:1005200081F06051704792F0000F14BF93F07F4F3D
:10053000704730B54FF4607401F0004521F0004180
:1005400020E700BF50EA010208BF704730B54FF006
:1005500000050AE050EA010208BF704730B511F00B
:10056000004502D5404261EB41014FF4806404F143
:1005700032045FEA915C3FF4DCAE4FF003025FEAC5
:10058000DC0C18BF03325FEADC0C18BF033202EB4D
:10059000DC02C2F1200300FA03FC20FA02F001FAA7
:1005A00003FE40EA0E0021FA02F11444C1E600BF46
:1005B00070B54FF0FF0C4CF4E06C1CEA11541DBFF9
:1005C0001CEA135594EA0C0F95EA0C0F00F0DEF8C4
:1005D0002C4481EA030621EA4C5123EA4C5350EAA9
:1005E000013518BF52EA033541F4801143F48013FA
:1005F00038D0A0FB02CE4FF00005E1FB02E506F08B
:100600000042E0FB03E54FF00006E1FB03569CF0DF
:10061000000F18BF4EF0010EA4F1FF04B6F5007FE5
:1006200064F5407404D25FEA4E0E6D4146EB060657
:1006300042EAC62141EA55514FEAC52040EA5E50E0
:100640004FEACE2EB4F1FD0C88BFBCF5E06F1ED88A
:10065000BEF1004F08BF5FEA500E50F1000041EBC1
:10066000045170BD06F0004646EA010140EA02006E
:1006700081EA0301B4EB5C04C2BFD4EB0C0541EA90
:10068000045170BD41F480114FF0000E013C00F3A5
:10069000AB8014F1360FDEBF002001F0004170BDC9
:1006A000C4F10004203C35DA0C341BDC04F11404E2
:1006B000C4F1200500FA05F320FA04F001FA05F26E
:1006C00040EA020001F0004221F0004110EBD3703B
:1006D00021FA04F642EB06015EEA430E08BF20EA67
:1006E000D37070BDC4F10C04C4F1200500FA04F30A
:1006F00020FA05F001FA04F240EA020001F000419C
:1007000010EBD37041F100015EEA430E08BF20EA0E
:10071000D37070BDC4F1200500FA05F24EEA020E56
:1007200020FA04F301FA05F243EA020321FA04F085
:1007300001F0004121FA04F220EA020000EBD3703C
:100740005EEA430E08BF20EAD37070BD94F0000F3C
:100750000FD101F00046400041EB010111F4801F70
:1007600008BF013CF7D041EA060195F0000F18BF21
:10077000704703F00046520043EB030313F4801F5D
:1007800008BF013DF7D043EA0603704794EA0C0F17
:100790000CEA135518BF95EA0C0F0CD050EA41062D
:1007A00018BF52EA4306D1D181EA030101F00041AA
:1007B0004FF0000070BD50EA410606BF10461946D2
:1007C00052EA430619D094EA0C0F02D150EA0136DE
:1007D00013D195EA0C0F05D152EA03361CBF10461F
:1007E00019460AD181EA030101F0004141F0FE41BE
:1007F00041F470014FF0000070BD41F0FE4141F442
:10080000780170BD70B54FF0FF0C4CF4E06C1CEA41
:1008100011541DBF1CEA135594EA0C0F95EA0C0FF6
:1008200000F0A7F8A4EB050481EA030E52EA0335B1
:100830004FEA013100F088804FEA03334FF08055D2
:1008400045EA131343EA12634FEA022245EA1115FF
:1008500045EA10654FEA00260EF000419D4208BFB0
:10086000964244F1FD0404F5407402D25B084FEA5D
:100870003202B61A65EB03055B084FEA32024FF409
:1008800080104FF4002CB6EB020E75EB030E22BF66
:10089000B61A754640EA0C005B084FEA3202B6EB26
:1008A000020E75EB030E22BFB61A754640EA5C00D5
:1008B0005B084FEA3202B6EB020E75EB030E22BF65
:1008C000B61A754640EA9C005B084FEA3202B6EB66
:1008D000020E75EB030E22BFB61A754640EADC0025
:1008E00055EA060E18D04FEA051545EA16754FEA87
:1008F00006164FEAC30343EA52734FEAC2025FEAA5
:100900001C1CC0D111F4801F0BD141EA00014FF033
:1009100000004FF0004CB6E711F4801F04BF014304
:100920000020B4F1FD0C88BFBCF5E06F3FF6AFAE20
:10093000B5EB030C04BFB6EB020C5FEA500C50F1B0
:10094000000041EB045170BD0EF0004E4EEA113133
:1009500014EB5C04C2BFD4EB0C0541EA045170BD3A
:1009600041F480114FF0000E013C90E645EA060E7E
:100970008DE60CEA135594EA0C0F08BF95EA0C0FAC
:100980003FF43BAF94EA0C0F0AD150EA01347FF4F4
:1009900034AF95EA0C0F7FF425AF104619462CE7CB
:1009A00095EA0C0F06D152EA03353FF4FDAE10462E
:1009B000194622E750EA410618BF52EA43067FF47F
:1009C000C5AE50EA41047FF40DAF52EA43057FF40F
:1009D000EBAE12E700000000000000000000000085
:1009E0004FF0FF3C06E000BF4FF0010C02E000BFFB
:1009F0004FF0010C4DF804CD4FEA410C7FEA6C5CDE
:100A00004FEA430C18BF7FEA6C5C1BD001B050EA80
:100A1000410C0CBF52EA430C91EA030F02BF90EA6B
:100A2000020F0020704710F1000F91EA030F58BF2A
:100A3000994208BF90422CBFD8176FEAE37040F08C
:100A4000010070474FEA410C7FEA6C5C02D150EA2A
:100A5000013C07D14FEA430C7FEA6C5CD6D152EAE5
:100A6000033CD3D05DF8040B704700BF84461046AA
:100A700062468C461946634600E000BF01B5FFF7A9
:100A8000B7FF002848BF10F1000F01BD4DF808ED79
:100A9000FFF7F4FF0CBF012000205DF808FB00BF4A
:100AA0004DF808EDFFF7EAFF34BF012000205DF8A4
:100AB00008FB00BF4DF808EDFFF7E0FF94BF0120F1
:100AC00000205DF808FB00BF4DF808EDFFF7CEFFF2
:100AD00094BF012000205DF808FB00BF4DF808ED31
:100AE000FFF7C4FF34BF012000205DF808FB00BF02
:100AF0004FEA410212F5001215D211D56FF4787346
:100B0000B3EB625212D94FEAC12343F0004343EAE8
:100B1000505311F0004F23FA02F018BF40427047C3
:100B20004FF00000704750EA013005D111F000404D
:100B300008BF6FF0004070474FF00000704700BFE3
:100B40004A0011D212F5001211D20DD56FF478734C
:100B5000B3EB62520ED44FEAC12343F0004343EAA1
:100B6000505323FA02F070474FF00000704750EAEC
:100B7000013002D14FF0FF3070474FF00000704756
:100B80004BB942B9002908BF002802D04FF0FF310D
:100B9000084600F03DB882B0EC462DE9005000F068
:100BA0001DF8DDF804E002B00CBC70470000000046
:100BB000F8B5164604460D461F4600F031F806FB10
:100BC00001F300FB0737A6FB0023FB18A21A65EB15
:100BD0000303069CC4E90023F8BD00BFF8B5164620
:100BE00004460D461F4600F07BF900FB07F7A0FB0B
:100BF000062306FB0177FB18A21A65EB0303069C8C
:100C0000C4E90023F8BD00BF0000000000000000A0
:100C1000704700BF0000000000000000000000005E
:100C200000292DE9F00F1D46C0F29D800024002D03
:100C3000C0F2948080460F4694461E46E3BB8A422B
:100C400055D9B2FA82F747B1C7F1200520FA05F667
:100C500001FA07F1BA403143B840170CB1FBF7F67F
:100C6000030C1FFA82FC07FB16110CFB06F543EA86
:100C700001439D4208D9711E9B1880F013819D424B
:100C800040F21081023E9B18591BB1FBF7F507FBA0
:100C9000151380B20CFB05FC40EA03418C4507D9D3
:100CA0006B1E8A1880F00081944540F2FD80023D61
:100CB00045EA0641002503E08B420CD90025294670
:100CC0000A462B4614B1524263EB430310461946C1
:100CD000BDE8F00F7047B3FA83F5002D40F0878030
:100CE0008B4201D38242EAD800250121E8E712B9FC
:100CF0000126B6FBF2F2B2FA82F6002E39D18E1A34
:100D0000130C1FFA82FC0125B6FBF3F703FB1761F6
:100D10004FEA10490CFB07F849EA0146B04506D9ED
:100D2000791EB61802D2B04500F2D3800F46C8EB48
:100D30000606B6FBF3F103FB116380B20CFB01FC6A
:100D400040EA03439C4506D94E1E9A1802D29445A8
:100D500000F2C280314641EA0741B1E7E443524222
:100D600063EB430366E7404261EB41014FF0FF3420
:100D70005DE7B240C6F1200921FA09F720FA09F52A
:100D8000130C01FA06F1B7FBF3F845EA01091FFA63
:100D900082FC03FB18774FEA19410CFB08F541EA86
:100DA0000747B040BD420AD9BF1808F1FF3680F0AE
:100DB0008E80BD4240F28B80A8F10208BF18791BDB
:100DC000B1FBF3F503FB15171FFA89F90CFB05F6C8
:100DD00049EA07418E4206D96F1E891871D28E42A8
:100DE0006FD9023D89188E1B45EA08458CE7C5F18D
:100DF000200122FA01F306FA05F61E4327FA01F252
:100E00004FEA164907FA05F720FA01F1B2FBF9F8A3
:100E10000F433B0C1FFA86FA09FB18220AFB08FB5A
:100E200043EA024293450CFA05FC08D9921908F1ED
:100E3000FF314AD2934548D9A8F102089219CBEB69
:100E40000203B3FBF9F109FB1132BFB20AFB01FA4D
:100E500047EA02439A4506D94A1E9B1933D29A455E
:100E600031D902399B1941EA08410F0C1FFA8CF85D
:100E700008FB07F68AB24FEA1C4C08FB02F80CFB91
:100E8000026202EB18420CFB07FC964288BF0CF58D
:100E9000803CCAEB03030CEB124C63450ED305D028
:100EA00000250DE70E46EFE61D4601E71FFA88F81C
:100EB00000FA05F008EB0245A842F1D201390025FD
:100EC000FEE63D468FE71146CDE78846B7E7B046D8
:100ED00075E7023FB6182AE702393CE70000000038
:100EE0002DE9F007144605460E46002B3DD18A42F7
:100EF00049D9B2FA82F747B1C7F1200120FA01F2CD
:100F000006FA07F6BC401643BD40220CB6FBF2F0D1
:100F10002F0CA1B202FB106601FB00F347EA064664
:100F2000B34208D9471E361980F0F880B34240F228
:100F3000F58002383619F61AB6FBF2F302FB13629B
:100F4000ADB201FB03F145EA0242914207D95E1EB0
:100F5000121980F0E580914240F2E280023B43EAC0
:100F600000400021BDE8F00770478B4243D8B3FA38
:100F700083F4002C42D18B4202D3824200F2DF8004
:100F800000210120EEE712B90127B7FBF2F4B4FA11
:100F900084F2002A40F088800A1B230CA7B20121AA
:100FA000B2FBF3F603FB16224FEA154C07FB06F0E3
:100FB0004CEA0242904207D9121906F1FF3C02D2D4
:100FC000904200F2CE806646121AB2FBF3F003FBA9
:100FD0001023ADB207FB00F745EA03439F4207D950
:100FE000421E1B1980F09E809F4240F29B80023877
:100FF00040EA0640B6E700210846B3E7C4F1200600
:1010000022FA06F503FA04F32B434FEA134C21FAB4
:1010100006F501FA04F120FA06F6B5FBFCF746EAFC
:10102000010A1FFA83F80CFB17554FEA1A4108FB17
:1010300007F941EA0545A94502FA04F203D97E1EE3
:10104000ED187FD33746C9EB0501B1FBFCF60CFB6D
:1010500016151FFA8AFA08FB06F84AEA0541884580
:1010600003D9751EC91873D32E4646EA0746370CB6
:101070001FFA82FC0CFB07F5120CB3B20CFB03FC4D
:1010800002FB035303EB1C4302FB07F29D4288BFA4
:1010900002F58032C8EB010102EB134291424BD3BF
:1010A00042D0304600215DE79440C2F1200521FA8C
:1010B00005F6230C20FA05F701FA02F1B6FBF3FC62
:1010C00039430D0CA7B203FB1C6645EA064607FB35
:1010D0000CF8B04500FA02F508D936190CF1FF30CA
:1010E0003DD2B0453BD9ACF1020C3619C8EB060233
:1010F000B2FBF3F003FB10268AB242EA064207FB7A
:1011000000F1914206D9461E121926D2914224D9E5
:1011100002381219521A40EA0C4141E738460AE7F0
:1011200033461CE7104663E71FFA8CFC00FA04F014
:101130000CEB03439842B4D2701E002112E7214603
:1011400020460FE7A9457FF67DAF023FED187AE70D
:10115000884589D9023EC91887E73046DAE78446D0
:10116000C4E7023E12192FE7000000000000000053
:10117000704700BFAFF30080AFF30080AFF3008093
:10118000FEE700BFAFF30080AFF30080AFF3008055
:1011900072B6644C84F30988022383F31488BFF386
:1011A0006F8F61486149884218D2CA1C051D531BC4
:1011B00023F00302034610184FF0553183421960A3
:1011C000C2F380020AD01AB185422B46296005D0AD
:1011D0001D1D5960083383426960F9D15448A0420B
:1011E00018D25449041D0A1B22F00305034628188F
:1011F0004FF0553183421960C5F380020AD01AB10D
:1012000084422346216005D01D1D59600833834266
:101210006960F9D109F014FC4749484881421BD262
:10122000C61C0C1D321B464822F00302161D056821
:101230000423B3420D60C2F380020DD022B1456891
:101240000823B342256007D01A1D1D5884585D50ED
:101250000833B3428C50F7D13A483B49884217D201
:10126000CB1C041D1A1B22F003050346281800217D
:1012700083421960C5F380020AD01AB18442234622
:10128000216005D01D1D5960083383426960F9D182
:10129000FFF76EFF2D4D2E498D421DD2CC1C2E1D09
:1012A000A71BB808471C01242A6800EA04089047D5
:1012B000BC4211D0B8F1000F05D002243368984722
:1012C000BC42354608D0696888470234A8682E1D9C
:1012D00080470835BC42F6D1FEF76AFF1D4D1E4A15
:1012E00095421DD2D41C2E1DA71BBB085F1C0124D8
:1012F000296803EA04088847BC4211D0B8F1000FFE
:1013000005D0022430688047BC42354608D06A6860
:1013100090470234AB682E1D98470835BC42F6D181
:10132000FFF72EFF0008002000000020000400202E
:1013300000040020030800200008002030140020D2
:10134000408A010830140020F0540020AC0100084D
:10135000AC010008AC010008AC010008AFF300804C
:10136000FEE700BFAFF30080AFF30080AFF3008073
:1013700072B6FEE7AFF30080AFF30080AFF30080FA
:1013800000F096FA00DF00BFAFF30080AFF30080FB
:10139000EFF30983203383F30988002383F3118853
:1013A000704700BFAFF30080AFF30080AFF3008061
:1013B00008B54FF46D43CEF200034FF44072C0F213
:1013C000FA520021996007201021DA6000F090F8AD
:1013D0000A20202100F08CF80B208021BDE8084075
:1013E00000F086B8AFF30080AFF30080AFF3008069
:1013F000202383F311884FF46D43CEF20003586825
:1014000010F4006319D0EFF309834FF0807243F8B2
:10141000042CA3F1200181F309880E498A69096827
:10142000D07F8968926858B1914294BF002201220E
:1014300062B1094A43F8082C704783F3118870475A
:10144000914234BF00220122002AF2D1034843F81E
:10145000080C7047681500208113000884130008E9
:1014600008B5202383F3118800F0A2F8002383F34A
:101470001188BDE80840FFF7BBBF00BFAFF3008095
:101480002DE9F04FC1F80CD0D0F80CD0BDE8F08FAA
:10149000002383F311882846A04700F029FB7047FA
:1014A000F0B44FF461438408CEF20003C03400F07E
:1014B000030553F82470ED00FF26420906FA05F6ED
:1014C00027EA060601FA05F500F01F0002F16007A1
:1014D000012101FA00F02E4343F8246043F827006D
:1014E00043F82200F0BC7047AFF30080AFF30080F8
:1014F00082084FF46D43CEF20003063200F0030081
:1015000030B4C00053F82250FF2404FA00F425EA56
:10151000040401FA00F10C4343F8224030BC704748
:10152000024B034A98698261FEE700BF68150020FC
:10153000305F0108AFF30080AFF30080AFF30080AD
:1015400000B583B0FFF734FF00F0DAF800F060F880
:1015500001F066FB01F0ACFB41F230404021C2F2E9
:10156000000000F0B5F941F26851C2F20001012219
:1015700088610277002383F3118862B645F64070D4
:101580008969C0F601008861009341F2784041F218
:101590002153E021C0F60003C2F2000000F0F8F988
:1015A00003B000BDAFF30080AFF30080AFF3008065
:1015B00038B5134B9869C27F0AB1511EC177036ACF
:1015C000104C5A1C0262E0682268411CA242E16091
:1015D00014D09568013D956085B91368D1685C6049
:1015E0002360D560002383F3118810698847202386
:1015F00083F31188226890680028EED038BD00BFC0
:101600006815002058150020AFF30080AFF300806C
:1016100041F25853C2F200034FF0FF3200205B60EA
:101620001B609A60D8607047AFF30080AFF3008012
:1016300070B40C4E03613468C260A568A94204D935
:101640002468491BA5688D42FAD363680460B442DC
:10165000436018606060816002D0A068411AA16098
:1016600070BC704758150020AFF30080AFF30080C6
:101670000368074A934203D0996882688918996081
:1016800042681360036800215A60C160704700BF60
:1016900058150020AFF30080AFF30080AFF3008057
:1016A000202383F31188037F0D2B11D8DFE803F08B
:1016B00020101007100B101010101010100B416AA2
:1016C0008A68531C8B6090E80C001A6001684B60BC
:1016D0004FF0FF3242628168074B002202771B689D
:1016E0009A688A42FBD2596803604160086058607A
:1016F000002383F31188704768150020AFF3008042
:1017000041F26853C2F2000300225B601B609A60E2
:101710005B611B61704700BFAFF30080AFF30080D7
:1017200000228168054B02771B689A688A42FBD2C7
:101730005968036041600860586070476815002070
:1017400041F26853C2F2000310B499691A6808772D
:1017500014201468C87701201077104663601C605D
:101760009A6110BCFFF78CBEAFF30080AFF300802E
:1017700030B54B1C87B0054611D00B4C0B4AA36902
:1017800001A8FFF755FF2846FFF7DAFF049B13B1C6
:1017900001A8FFF76DFFA069406A07B030BDFFF7F1
:1017A000CFFF014CF7E700BF68150020A116000825
:1017B000F0B4144F8568BE690446B06861620023C6
:1017C00085420CD82377394609688A689542FBD947
:1017D00048682160606004604C60F0BC70473377FB
:1017E000394609688A689042FBD948683160706060
:1017F00006604E600123204631462377BC61F0BC71
:10180000FFF73EBE68150020AFF30080AFF3008005
:101810000E4B18689969026830B453601A608C687E
:1018200098610125142300220577CB770A770346B8
:1018300000E01B689A68A242FBD25A680B604A60BB
:101840001160596030BCFFF71BBE00BF6815002057
:101850000D4B18689969026830B453608C681A603F
:1018600001259861002305770B77034600E01B688C
:101870009A68A242FBD85A680B604A6011605960AE
:1018800030BCFFF7FDBD00BF68150020AFF300803E
:10189000044B1A68986991688368994200D8704728
:1018A000FFF7D6BF68150020AFF30080AFF30080CC
:1018B000034B9869C17F09B1FFF7CABFFFF7A8BF03
:1018C00068150020AFF30080AFF30080AFF3008015
:1018D000F0B441F26854C2F2000400226569016468
:1018E000046100F12C06816000F1280745614FF08A
:1018F000020C60610121142480F81CC04277C47777
:10190000C2638263026281778261286187620663B3
:10191000C662F0BC704700BFAFF30080AFF3008039
:101920002DE9F00341F26855C2F20005A1F1240C43
:1019300000EB0C076969C76040F80C30069B7B60C0
:1019400041F29143C0F600033B6202230377142364
:101950000026904600F1280900F12C02C3770123EC
:101960000561C0F808804161044668614677C0F8A7
:101970004080C66386630662837786610861C0F82B
:1019800028900263C262BDE8F0037047AFF30080A5
:1019900010B51C4682B0202383F311882346049C93
:1019A0000094FFF7BDFF00210446FFF701FF00236D
:1019B00083F31188204602B010BD00BFAFF3008052
:1019C00010B5202383F31188084B9A69146C916831
:1019D0008C4201D0814200D290601064FFF758FF22
:1019E000002383F31188204610BD00BF6815002036
:1019F00010B52023044683F311880021FFF7D8FE99
:101A0000002383F31188204610BD00BFAFF3008090
:101A1000202383F31188437F43F00401417700239F
:101A200083F31188704700BFAFF30080AFF30080ED
:101A300008B50146202383F311880620FFF798FE9E
:101A4000002383F3118808BDAFF30080AFF300805B
:101A500008B5202383F31188054BD968411A02D0B9
:101A60000620FFF785FE002383F3118808BD00BF21
:101A700058150020AFF30080AFF30080AFF3008073
:101A800008B5202383F31188064B1A68986991687A
:101A90008368994201D3FFF7BBFE002383F31188CB
:101AA00008BD00BF68150020AFF30080AFF30080D1
:101AB00038B50E4B9C692546606255F8280FA84240
:101AC00006D00168A162FFF72BFEA06AA842F8D1F8
:101AD000607F830704D1636922691A6121694B61C0
:101AE0000E20BDE83840FFF72BBE00BF6815002070
:101AF000202383F31188FFF7DBBF00BFAFF3008023
:101B000038B50446202383F31188037F0E2B07D0BA
:101B1000826A0848816907200A60A162FFF710FE07
:101B2000656A002383F31188204600F019F82846DF
:101B300038BD00BF68150020AFF30080AFF3008010
:101B4000202383F31188837F591C8177002383F33B
:101B500011887047AFF30080AFF30080AFF30080CF
:101B60000146202383F31188827F531EDAB28277E5
:101B7000002383F3118812B9037F0E2B00D0704726
:101B8000427F02F00303012B09D0022BF7D14369F6
:101B90000269406C1A610A69536101F0B9B943697D
:101BA00002691A6101694B6101F0EAB8AFF3008084
:101BB000F0B583B00D4617461E4601F099F804466D
:101BC00090B1202383F31188089C334629463A4676
:101BD0000094FFF7A5FE0123437700210446FFF799
:101BE000E7FD002383F31188204603B0F0BD00BF5A
:101BF0002DE9F04182B005460E4690461F4601F0A1
:101C00006FF9044690B1202383F311886968009727
:101C100043463246FFF784FE0223437745640021A2
:101C20000446FFF7C5FD002383F31188204602B068
:101C3000BDE8F081AFF30080AFF30080AFF3008028
:101C4000202383F3118841F26852C2F2000200237C
:101C50001069817F4A1C827783F31188704700BF27
:101C600010B5202383F31188074B04699C4209D0E7
:101C7000A17F4A1CA277002383F31188FFF770FF2E
:101C8000204610BD0024F6E768150020AFF3008061
:101C90004060006081607047AFF30080AFF3008068
:101CA000F8B5876881600137002F044629DC406859
:101CB000436863601C60FFF733FD6FF0010607F0B7
:101CC000010146627D1CEFB149B160684268626003
:101CD0001460FFF725FD0135012D466213D06068C1
:101CE000436863601C60FFF71BFD466260684168E3
:101CF00061600C60FFF714FD6A1C46620235002A21
:101D0000EDD1F8BDF8BDF8BDAFF30080AFF30080B2
:101D100008B5202383F31188FFF7C2FFFFF7B8FD52
:101D2000002383F3118808BDAFF30080AFF3008078
:101D300082680346501E002810B5986001DB002021
:101D400010BD074CA26953625968136051600320AB
:101D50005A600A60FFF7F4FCA369586A10BD00BF1F
:101D600068150020AFF30080AFF30080AFF3008070
:101D700008B5202383F31188FFF7DAFF002383F3EC
:101D8000118808BDAFF30080AFF30080AFF300808F
:101D900003468068421E002A10B40C469A6002DB9B
:101DA000002010BC704759B1074CA26953625C68AF
:101DB000032082E818005A60226010BCFFF7D8BCEC
:101DC00098604FF0FF30ECE768150020AFF300801B
:101DD00008B5202383F31188FFF7DAFF002383F38C
:101DE000118808BDAFF30080AFF30080AFF300802F
:101DF00008B50246202383F311888368581C002805
:101E0000906003DD002383F3118808BD1068036828
:101E1000002113605A60FFF7CBFCF3E7AFF30080BB
:101E200082680346501C0028986000DD70471A68DD
:101E30001168104619604B6000235362FFF770BCB5
:101E4000F8B50D1E044637DD83680026581C6A1E4F
:101E5000B042A06002F001072FDD013D2CD077B128
:101E6000A3685A1C002AA2602FDD013D07D134E08F
:101E7000A168481C0028A06014DD013D1BD0A068AB
:101E8000431C002BA36005F1FF35F1DC20680268DC
:101E900022605460FFF744FC4662A168481C002899
:101EA000A060EADC2068036823605C60FFF738FC10
:101EB000013D4662E3D1F8BDF8BD206801682160AC
:101EC0004C60FFF72DFC4662C7E72068016821607F
:101ED0004C60FFF725FC4662C7E7F8BDAFF3008012
:101EE00010B5024682B0202383F311888368581C02
:101EF0000028906019DD8A68501E0028886007DB82
:101F0000FFF7C6FC0020002383F3118802B010BD48
:101F10000B4C4B68A469032084E80A004C601C60E9
:101F20006162FFF70DFC606AEDE7106803681360FB
:101F30005A600191FFF7F4FB002141620199DAE751
:101F400068150020AFF30080AFF30080AFF300808E
:101F50000023406000608360704700BFAFF30080E3
:101F6000F8B52F4A836894690546002B51D0A168C3
:101F70009868814206D91A7F9960042A31D0052ACF
:101F80001CD092B128460068854203D08368A168BE
:101F90008B42F8D242682060626044600420146082
:101FA0006562BDE8F840FFF7CBBB93E8060011601F
:101FB000196818464A60FFF7B3FBE3E758681F68E3
:101FC0005E6A07601F68324678601268964202D0E7
:101FD00090688842F9D251681A6059600B6053606A
:101FE000D0E758681F685E6A07601F6832467860ED
:101FF0001268964212D090688842F9D251681A60ED
:1020000059600B605360B368A1689A688A42B2D382
:10201000B8E7E36B8460C360E063F8BD3246EDE788
:1020200068150020AFF30080AFF30080AFF30080AD
:1020300008B5202383F31188FFF792FF002383F371
:10204000118808BDAFF30080AFF30080AFF30080CC
:102050000246202383F31188836823B100200023E4
:1020600083F31188704704488369D96B9360D1600A
:102070000120DA63F3E700BF68150020AFF30080AA
:10208000154A38B59069202383F31188C46B2568FD
:10209000E368A542C3631CD0016C4BB11A689A4235
:1020A00003D09268914238BF1146DB68002BF5D10E
:1020B0002B68EA6B8160236028465C600021A56084
:1020C000E260EC63FFF774FB002383F31188204682
:1020D00038BD0023A360F7E768150020AFF3008048
:1020E00038B5124B9869C46B2568E368A542C36391
:1020F00018D0016C4BB11A689A4203D09268914291
:1021000038BF1146DB68002BF5D12B68EA6B816084
:10211000236028465C60A560E260EC63FFF700FB8B
:10212000204638BD0021A160204638BD681500203A
:10213000134A70B52023946983F31188E36BD3B1FC
:1021400000260BE01168D56B196010464B609A6051
:10215000DD60D363FFF7E4FAE36B43B11A68D96833
:102160009A42E163EED19E60E36B002BF6D1206CC6
:10217000A060FFF78DFB002383F3118870BD00BFC3
:1021800068150020AFF30080AFF30080AFF300804C
:1021900040600060704700BFAFF30080AFF3008085
:1021A00008B50246202383F311880068904205D0C9
:1021B0000368002113605A60FFF7FAFA002383F3E3
:1021C000118808BDAFF30080AFF30080AFF300804B
:1021D00008B503460068984206D002681A6053604A
:1021E000FFF79EFA0021416208BD00BFAFF30080F7
:1021F00038B504460068A0420AD06FF001050368B4
:1022000023605C60FFF78CFA45622068A042F6D13B
:1022100038BD00BFAFF30080AFF30080AFF30080A4
:1022200008B5202383F31188FFF7E2FFFFF730FBA7
:10223000002383F3118808BDAFF30080AFF3008063
:10224000F8B5104B05469C69FFF74AFF2E46074636
:102250006562284603E08168A268914210D3006855
:102260008542F8D17368266063601C607460052045
:10227000FFF766FA646A3846FFF772FE2046F8BD3B
:102280000646EFE768150020AFF30080AFF300804B
:1022900008B5202383F31188FFF7D2FF002383F3CF
:1022A000118808BDAFF30080AFF30080AFF300806A
:1022B0002DE9F04106468846FFF712FF0E4B9A695A
:1022C0000746334656621B689E4203D09D68946859
:1022D000A542F8D25C68052082E8180041462260D9
:1022E0005A60FFF745FA431C044602D03846FFF710
:1022F00037FE2046BDE8F08168150020AFF300806E
:1023000008B5202383F31188FFF7D2FF002383F35E
:10231000118808BDAFF30080AFF30080AFF30080F9
:1023200030B4202383F3118841F26853C2F20003D2
:1023300004689D690C600024016023464D608A603A
:10234000CC6083F3118830BC704700BFAFF30080CE
:10235000202383F31188024600E01A461368834263
:1023600003D09942F9D108681060002383F31188E3
:10237000704700BFAFF30080AFF30080AFF3008081
:1023800010B4202383F3118841F26852C2F2000294
:10239000002391698A6B22EA00048C6383F311881D
:1023A000104010BC704700BFAFF30080AFF3008057
:1023B000202383F3118841F26852C2F20002002305
:1023C0009269916B0843906383F31188704700BF53
:1023D00008B5826B037F1143082B81630BD0092B57
:1023E00000D008BD426A11408A42FAD1FFF798F93D
:1023F0000021416208BD436A1942F7D108BD00BF00
:1024000008B5202383F31188FFF7E2FFFFF740FAB6
:10241000002383F3118808BDAFF30080AFF3008081
:1024200070B50468A04205460E4608D0201D0BC8B2
:102430003343E360FFF7CCFF2468A542F6D170BDBB
:1024400008B5202383F31188FFF7EAFFFFF720FA8E
:10245000002383F3118808BDAFF30080AFF3008041
:10246000F8B50D46074689B10024012601E0013484
:1024700065B106FA04F32B42F9D057F82420204620
:1024800025EA030501349047002DF2D1F8BD00BFC5
:1024900038B50D4B05469C69202383F31188A16B49
:1024A00010EA010206D160620820FFF749F9A16B2A
:1024B00005EA01025042104021EA0001A163002315
:1024C00083F3118838BD00BF68150020AFF300808A
:1024D00038B50B4B05469C69202383F31188A16B0B
:1024E000084006D108206562FFF72AF9A16B05EACA
:1024F000010021EA0001A163002383F3118838BDA4
:1025000068150020AFF30080AFF30080AFF30080C8
:1025100038B50C4B04469D69202383F31188A86BC2
:1025200004EA0002A24204D009206C62FFF708F915
:10253000A86B20EA0400A863002383F311882046D7
:1025400038BD00BF68150020AFF30080AFF30080F6
:10255000114B70B59E690546202383F31188B06B3B
:1025600015EA00040ED121B9234683F311882046D1
:1025700070BD08207562FFF7FBF80028F4DBB06B34
:1025800005EA000461420C4020EA0400B063002325
:1025900083F31188204670BD68150020AFF30080DA
:1025A000104B70B59E690446202383F31188B26BEB
:1025B00014EA02050ED121B92B4683F3118828466F
:1025C00070BD08207462FFF7D3F80028F4DBB26B0B
:1025D00004EA020522EA0502B263002383F31188AC
:1025E000284670BD68150020AFF30080AFF300806F
:1025F00038B5134B04469D69202383F31188AA6BD9
:1026000004EA0203A3420DD029B90B4683F31188D3
:102610000C46204638BD09206C62FFF7A9F8002857
:1026200008DBAA6B22EA0402AA63002383F3118861
:10263000204638BD002383F311881C46F8E700BF0D
:1026400068150020AFF30080AFF30080AFF3008087
:102650000E4B70B59C69202383F3118800F12C0583
:102660006562067F036B25600C2E61636360046303
:102670001C6007D00A20FFF763F8606A002383F329
:10268000118870BDFFF74CF8F4E700BF6815002013
:1026900010B5202383F311880B4CA3691A4652F816
:1026A0002C0F904208D00168D9624A600B220023A7
:1026B000027783F3118810BD0C20FFF741F8A3695E
:1026C0001A4652F82C0FEEE768150020AFF3008091
:1026D00008B5202383F31188FFF76AF8002383F3FA
:1026E000118808BDAFF30080AFF30080AFF3008026
:1026F00038B504460B4601EB820500F11C0011467B
:10270000E360A36084E82800FFF7C2FA04F1100038
:102710000021BDE83840FFF7BBBA00BFAFF300802F
:1027200010B52023044683F3118803684168C36011
:10273000CA1A9110A36000F11C00FFF7B1FA04F16E
:1027400010000021FFF7ACFAFFF7A2F8002383F393
:10275000118810BDAFF30080AFF30080AFF30080AD
:1027600070B504460E4600F11C001146FFF710FB41
:10277000054678B9A368626843F8046B9342A36086
:1027800028BF236804F1100028BFA360FFF748FBAF
:10279000FFF77EF8284670BDAFF30080AFF30080EE
:1027A00008B5202383F31188FFF7DAFF002383F3B2
:1027B000118808BDAFF30080AFF30080AFF3008055
:1027C000426A002A10B50FDD83684468013A42620C
:1027D00043F8041BA342836024BF03688360103066
:1027E000FFF71EFB002010BD4FF0FF3010BD00BFF3
:1027F00070B504460E4600F11C001146FFF7C8FAFA
:10280000054660B9E3682268191F9142E16008D368
:1028100004F110000E60FFF703FBFFF739F82846BC
:1028200070BD6068011FE160F2E700BFAFF3008098
:1028300008B5202383F31188FFF7DAFF002383F321
:10284000118808BDAFF30080AFF30080AFF30080C4
:10285000426A002A10B510DDC3680468043B013ADF
:10286000A3424262C36002D24368043BC36010309B
:102870001960FFF7D5FA002010BD4FF0FF3010BDF2
:1028800070B504460E4600F110001146FFF780FABD
:10289000054680B9E368626853F8041B93423160CF
:1028A000E36028BF236804F11C0028BFE360FFF742
:1028B000B7FAFEF7EDFF284670BD00BFAFF300800A
:1028C00008B5202383F31188FFF7DAFF002383F391
:1028D000118808BDAFF30080AFF30080AFF3008034
:1028E0008269002A10B510DDC3684468013A82612C
:1028F00053F8042BA3420A60C36024BF0368C3607B
:102900001C30FFF78DFA002010BD4FF0FF3010BDD6
:1029100010B4024659B1084B9B69586244680D20B7
:1029200083E814005360236010BCFEF721BF4FF012
:10293000FF3010BC704700BF68150020AFF3008067
:1029400010B4C361019B40608A1800240060846059
:1029500041618161C1600261036210BC704700BFC8
:1029600038B50446C368006863610021A042A361D2
:10297000A1600AD06FF00105026822605460FEF782
:10298000CFFE45622068A042F6D138BDAFF300808B
:10299000426908B503468069824298681AD00130BE
:1029A000986002F8011B19695A618A420BD21868B3
:1029B00098420DD0016819604B60FEF7B1FE00230C
:1029C0004362184608BD1868DA6898425A61F1D126
:1029D000002008BD0028E2D06FF0030008BD00BF52
:1029E00070B5202304460E4683F31188C36903B1F2
:1029F0009847A568204631463DB9FFF789FF002872
:102A0000F7DA2B4683F3118870BDA1692269013D75
:102A1000A56011F8010B9142A16124BFE168A16199
:102A2000002383F3118870BDAFF30080AFF3008003
:102A30002DE9F0471E460446C769202383F3118819
:102A40004FF0000801F1010901EB020A0FB1204625
:102A5000B847A568204631464DB9FFF759FF002811
:102A6000F7D02B4683F311884046BDE8F087A36971
:102A7000013DA56013F8012B09F8012C2069A36121
:102A8000834224BFE368A361002383F31188D14507
:102A900008F10108E8D0202383F3118809F1010926
:102AA000D4E700BFAFF30080AFF30080AFF3008046
:102AB00010B4C361019B40608C180060826041616A
:102AC0008161C1600461036210BC7047AFF3008094
:102AD00038B50269C368044600686361D11AA04230
:102AE000A361A1600AD06FF00105036823605C60F8
:102AF000FEF716FE45622068A042F6D138BD00BF41
:102B0000F8B504460F461646202383F31188A568BE
:102B1000204631463DB9FFF7FBFE0028F7DA2B4689
:102B200083F31188F8BD6369013DA56003F8017B5B
:102B300022696361934228BFE368E16928BF63614A
:102B400009B120468847002383F311881846F8BD51
:102B5000826941699142034610B5806816D0441CD1
:102B60009C6012F8014B19699A618A420BD218686D
:102B7000984206D0016819604B60FEF7D1FD002332
:102B80004362204610BDDA689A61F0E70028E6D07B
:102B90006FF0020010BD00BFAFF30080AFF3008004
:102BA0002DE9F0479A46044688461646D0F81C9010
:102BB000202383F311880027A56820466B1EEDB102
:102BC000A360656918F8011B05F8011B226965619E
:102BD000954224BFE2686261B9F1000F00D0C84796
:102BE000002383F311880137013E10D0202383F3A3
:102BF0001188A56820466B1E002DE1D12046514664
:102C0000FFF786FE0028D7D02B4683F3118838467D
:102C1000BDE8F087AFF30080AFF30080AFF3008032
:102C200041F2885241F284534CF200010648C2F24C
:102C30000002C2F20003C2F2010120F0070021F0FD
:102C40000701106019607047F7540020AFF300804F
:102C5000202383F31188094B09491A680968073052
:102C600020F00700891A88429ABF101818600022C5
:102C7000002383F311881046704700BF8815002099
:102C800084150020AFF30080AFF30080AFF3008025
:102C900041F2845241F28853C2F20002C2F20003B0
:102CA00010681968401A7047AFF30080AFF30080D6
:102CB00041F29053C2F2000342F651410022C0F6A5
:102CC000000103F1100019609A60DA60FFF740B963
:102CD000002303608160C360083A10300B604A60D3
:102CE000FFF736B9AFF30080AFF30080AFF3008099
:102CF000F8B5204E002818BF0646073106F110002F
:102D000021F0070506F10804FFF792F900E01C46E0
:102D10002368FBB15A689542F9D805F10801914240
:102D200015D84FF6F870CFF6FF70401B03EB010E7D
:102D300082181868CEF8042058505D60C4F800E08E
:102D40001C4644F8086BFFF79BF92046F8BD19684C
:102D50002160F5E7FFF794F932684AB105F1080000
:102D6000904728B100F10804066045602046F8BD90
:102D70000024EAE790150020AFF30080AFF3008055
:102D800070B50646A0F1080450F8080C00F10805DB
:102D90001030FFF74DF92B46AB421A6801D0A34221
:102DA00002D21AB1944201D31346F5E756F8041C37
:102DB00046F8082C1C6001F1080256F8085CA018BF
:102DC000A84209D05A6802F1080019188C4211D0A3
:102DD000BDE87040FFF754B94068A258091808319F
:102DE00046F8041C46F8082C5A6802F10800191825
:102DF0008C42EDD156F8040C56F8081C1218083213
:102E000083E80600E4E700BFAFF30080AFF3008083
:102E100038B50E4C002818BF044604F110000D46CA
:102E2000FFF706F9A3686BB10022144658681B68C7
:102E300012180134002BF9D105B12A60FFF720F9EF
:102E4000204638BD1A461C46F6E700BF9015002004
:102E50000023036041608260704700BFAFF30080D1
:102E600070B4002A36D0013A02F00105202383F322
:102E70001188046800230C60016083F311884368A3
:102E8000C9183AB365B1202383F31188046800237D
:102E90000C60016083F311884368013A194419D02A
:102EA000202383F31188046800230C60016083F3FE
:102EB00011884568013A4C19202383F3118806686C
:102EC00000234E51046083F311884368013A04EBF8
:102ED0000301E5D170BC7047AFF30080AFF3008011
:102EE00008B50246202383F31188006828B10168E1
:102EF0001160002383F3118808BD9368002BF8D07C
:102F000050689847F5E700BFAFF30080AFF300804B
:102F1000202383F31188026800230A60016083F391
:102F200011887047AFF30080AFF30080AFF30080EB
:102F300041F64543C2F2000301221A70704700BFF8
:102F400038B50B4D4C24286803682D219A689047AA
:102F500028680168013C8B682D219847013CF2D11B
:102F6000034804490068026813680222984738BD84
:102F7000781C0020287C0108AFF30080AFF30080AC
:102F8000F0B585B0002837D00DF101054CF6CD46DF
:102F90002B46CCF6CC46A6FB0012D40804EB8401E9
:102FA000A0EB41003030C1B2204603F8011C1C46A2
:102FB00001330028EFD16A4694421BD9601BC30736
:102FC000114F11D5386803689A68904714F8021CAD
:102FD000013C09E0386814F8021C0368661E9A6810
:102FE000904716F8021C023C386803689A689047BC
:102FF000AC42EFD105B0F0BD034908680368302149
:103000009A689047F6E700BF781C0020AFF3008075
:1030100038B5017849B1054D0446286803689A68B7
:10302000904714F8011F0029F7D138BD781C002003
:1030300038B50178084D41B10446286803689A689C
:10304000904714F8011F0029F7D128680349036845
:1030500002221B68984738BD781C0020287C010894
:10306000202383F3118841F64842C2F20002002374
:10307000116801F8010B116083F31188704700BFDC
:1030800041B9054A054901231370054A0B701060C8
:103090001846704700207047441C00204C1C00203C
:1030A000401C0020AFF30080AFF30080AFF300803E
:1030B000DFF874C0F0B4184FDCF80060F21BD207E0
:1030C0003B4614D5BE4217D911F8012B3C787B1C26
:1030D00094420CD016E01B7812F8015BAB4204F16D
:1030E00001030FD14D782478511CAC420AD19E4285
:1030F0000A4603F10104EED80B781BB9CCF8007036
:10310000184607E0054A064B01211170054A19705F
:1031100010600846F0BC70477C1C0020441C002056
:103120004C1C0020401C0020481C0020AFF30080F5
:10313000084BDB68521A5B1A934208D3064B074AC6
:1031400001211970064B1170186008467047002065
:10315000704700BF58150020441C00204C1C002064
:10316000401C0020AFF30080AFF30080AFF300807D
:1031700010B50C4C206808B1FEF74AFC606808B135
:10318000FEF746FCA06808B1FEF742FCE06808B113
:10319000FEF73EFC206918B1BDE81040FEF738BCD0
:1031A00010BD00BF641C0020AFF30080AFF30080AF
:1031B00010B5124C206818B1FEF7A2FC0023236062
:1031C000606820B1FEF79CFC0C4800224260A068B9
:1031D00020B1FEF795FC094B00219960E06820B111
:1031E000FEF78EFC05480022C260206920B1FEF780
:1031F00087FC024B0021196110BD00BF641C002038
:10320000104B30B49C694FF47A7101FB00F0226AD4
:1032100044F6D355431EC1F26205501CA5FB035171
:1032200000EB9115AA42236A03D29A4203D930BC1B
:1032300070479A42F6D99D4294BF00230123002B88
:10324000F0D1F4E768150020AFF30080AFF3008001
:1032500008B50120FEF7ECFB41F25853C2F200031F
:10326000D86808BDAFF30080AFF30080AFF30080F3
:1032700041F64543C2F2000310B500241C70202320
:1032800083F311884FF47A7101FB00F044F6D352B6
:103290000138C1F26202A2FB0023990941F65040B5
:1032A00042F631722346C2F200000131C0F600023C
:1032B000FEF7BEF9234683F3118810BDAFF30080FB
:1032C0002DE9F04F9C4C9D4D206083B09C48FFF74A
:1032D000AFFE9C48FFF7ACFE9B48FFF7A9FE2A21F2
:1032E000206803689A68904715F8011F0029F7D1F4
:1032F0009648974EFFF79CFE2A2120680768BD6814
:10330000A84716F8011F0029F7D19248924EFFF7FF
:103310008FFE2A21206803689A68904716F8011FDB
:103320000029F7D18D488E4FFFF782FE2A212068B1
:103330000568AE68B04717F8011F0029F7D1894822
:10334000894FFFF775FE2A21206803689A68904725
:1033500017F8011F0029F7D18448854DFFF768FE53
:103360002A2120680668B768B84715F8011F0029A8
:10337000F7D18048804DFFF75BFE2A212068036863
:103380009A68904715F8011F0029F7D17B487C4EB9
:10339000FFF74EFE2A2120680768BD68A84716F887
:1033A000011F0029F7D1774B774800910193FFF770
:1033B0003FFE6348754EDFF80C92754FFFF738FEFD
:1033C00041F64C400099C2F200008A4601700AF1B1
:1033D000010A4FF0000857F8042B002A00F08480FF
:1033E0006C4DFFF7ADFD2D2120680268936898476A
:1033F00015F8011F0029F7D15046FFF7C1FD4E49CE
:10340000654D086802682E21936808F10108984705
:103410004046FFF7B5FD2021206802689368984771
:1034200015F8011F0029F7D157F8040C0568297811
:1034300039B1206802689368984715F8011F002980
:10344000F7D15648564DFFF7F3FDC820FEF7F0FAC6
:10345000544957F804BCC6F8009000200860486042
:103460008860C8600861DBF80420287002B19047CA
:10347000DBF80C309847DBF8081001B18847FFF7FC
:1034800097FE2D78002D00F09F80474D2D2120685C
:1034900002689368984715F8011F0029F7D143483F
:1034A000434D0068FFF76CFD202120680268936897
:1034B000984715F8011F0029F7D1316849450BD904
:1034C0003C4D206815F8011C0268936898473068E5
:1034D000294601358142F4D33748FFF7A9FD57F853
:1034E000042B002A7FF47CAF019D55F8047F0195E1
:1034F000002F7FF46CAFFFF723FD304D1048FFF72E
:1035000097FD4621206803689A68904715F8011FC7
:103510000029F7D141F64C41C2F200010878002899
:1035200056D12748FFF784FD41F64C43C2F2000311
:10353000187803B0BDE8F08F781C0020A05F010868
:10354000407F0108805F01089C5F0108006001085E
:10355000086001081C600108346001084860010827
:1035600090600108A4600108B0600108C46001080F
:10357000D0600108E4600108FC60010810610108E6
:10358000446101088061010858610108481C00205D
:10359000F0610108B45F010860610108C45F0108BF
:1035A000441C0020641C0020C85F0108401C00204F
:1035B000646101087D1C0020E05F0108686101086A
:1035C000F05F01087C1C00200348FFF731FD02E793
:1035D0000248FFF72DFDA7E7E45F0108F85F010847
:1035E000F8B54D4EB3699C68651C2846FEF7E8F9AE
:1035F000021B5142514107460120FFF741FD00B136
:10360000F8BDB06983680220EA1A51425141FFF7C0
:1036100037FD0028F4D13846FEF7D2F9B5EB000C9F
:10362000DCF1000050EB0C010320FFF729FD00281E
:10363000E6D1B3699A680420B2EB040EDEF1000112
:1036400051EB0E01FFF71CFD0028D9D1202383F395
:103650001188B769BB689A1CBA60034683F3118866
:10366000B0698168A71C0520CB1B5A4252EB0301AD
:10367000FFF706FD0028C3D12846FEF7A1F9001B7D
:10368000414241410620FFF7FBFC0028B8D1B36955
:103690009A680720B7EB020CDCF1000151EB0C013A
:1036A000FFF7EEFC0028ABD1B069036C0820B5EB46
:1036B000030EDEF1000252EB0E01FFF7E1FC0028E1
:1036C0009ED1E71C3846FEF77BF9281A414241415A
:1036D0000920FFF7D5FC002892D1B3699A680A2027
:1036E000BB1A59425941FFF7CBFC002888D1B06979
:1036F000026C0B20BB1A59425941FFF7C1FC00284C
:103700007FF47EAF202383F31188B16903468C6078
:103710000C6483F3118873E768150020AFF3008011
:10372000F0B541F26857C2F2000745F66076BB6912
:1037300083B0C0F601069A68706843F6011547F633
:10374000C001C0F60005C0F60101043A2B46009105
:103750004FF4A871FEF71CF9BC693168A36841F603
:103760006444C2F200045A1F606046F22020C0F692
:1037700001002B46009008464FF4A871FEF708F9A7
:10378000BA6931699368206046F21020C0F60100E2
:103790005A1E00902B4608464FF4A871FEF7F8F821
:1037A000BA69F1689268206146F21420C0F60100FF
:1037B0002B460090023A08464FF4A871FEF7E8F84D
:1037C0002023E06083F31188BB69B0689A6846F2F1
:1037D0001821C0F601012B460091033A4FF4A8715D
:1037E000FEF79EF80023A06083F31188A068FEF71F
:1037F000FFF8FFF7DDFC46F21C210120C0F60101B5
:1038000003B0BDE8F040FFF753BC00BFAFF300804A
:103810002DE9F04141F26858C2F2000845F66076A1
:10382000D8F8183082B0C0F601069A68306843F6BE
:10383000011546F22024C0F60005C0F60104053A41
:103840002B4600944FF4A871FEF7A2F841F66444A9
:10385000C2F20004D8F8181077688B68206047F629
:10386000C000C0F601001A1F00902B464FF4A8714B
:103870003846FEF78DF8D8F81820B768936860606E
:1038800046F21820C0F60100DA1E00902B464FF4D5
:10389000A8713846FEF77CF8D8F81810F7688A68DF
:1038A000A06046F21420C0F60100023A2B460090B8
:1038B0004FF4A8713846FEF76BF8D8F8183036691F
:1038C0009A68E06046F21020C0F601004FF4A8713B
:1038D000013A2B4600903046FEF75AF82061FFF778
:1038E00067FC46F21C210120C0F6010102B0BDE8D0
:1038F000F041FFF7DDBB00BFAFF30080AFF3008006
:1039000008B50078FFF7ACFB002008BDAFF30080DE
:1039100038B51C4DFFF79CFCEC686420FEF788F876
:10392000012004F1640104F16502FFF701FC00B11C
:1039300038BDEC686420FEF77BF8022004F16401D6
:1039400004F16502FFF7F4FB0028F1D1EC684FF4B5
:103950007A70FEF76DF8032004F57A7104F2E9320B
:10396000FFF7E6FB0028E3D1EC6804F16405284684
:10397000FEF76EF80420294604F16502BDE83840E0
:10398000FFF7D6BB58150020AFF30080AFF30080DF
:1039900040F60000C2F200000021FEF779B900BF36
:1039A00040F60000C2F200000021FEF771B900BF2E
:1039B00040F60000C2F200000021FEF769B900BF26
:1039C00000B587B0002103A8FEF762F9002103A823
:1039D000FEF79EF9059901200029CCBF00210121A5
:1039E000FFF74EFB08B107B000BD304B9869304B74
:1039F0008268304803A9013A009100684FF4A87129
:103A0000FDF7C6FF2C4B186003A8FEF7B1F9059926
:103A100002200029CCBF00210121FFF731FB002843
:103A2000E1D1202383F31188059A002A36DDFDF7C2
:103A30002FFF002383F31188059903209942D4BFF7
:103A400000210121FFF71CFB0028CCD1059904209F
:103A50004B1E5A4252EB0301FFF712FB0028C2D162
:103A6000202383F31188059800281BDDFDF710FF44
:103A7000002383F31188059903209942D4BF0021C4
:103A80000121FFF7FDFA0028ADD1059905204B1E55
:103A90005A4252EB0301FFF7F3FAA4E703A8FEF73B
:103AA000BFF9C4E703A8FEF7BBF9DFE768150020FC
:103AB000C13A0008605F0108641C0020AFF3008079
:103AC00008B5202383F311888368002B06DDFDF7FA
:103AD000DFFE002383F31188184608BDFEF7A0F926
:103AE000F5E700BFAFF30080AFF30080AFF30080D5
:103AF00010B540F60004C2F200042046FEF738F983
:103B00002046FEF775F9002010BD00BFAFF300801E
:103B100010B5044640F60000C2F20000FEF728F996
:103B20002078FFF79DFA002010BD00BFAFF30080A2
:103B300008B53220FDF77CFF202383F3118840F67F
:103B40000000C2F20000FEF76BF9FDF7A1FE0023B2
:103B500083F31188184608BDAFF30080AFF30080EF
:103B60002DE9F043DFF84081454CD8F8183026683D
:103B70009A68444F444B454D85B04FF4A8710532C7
:103B800000973046FDF704FFD8F8181063688A687C
:103B900028603F4803934FF4A87101323A4B0090DC
:103BA0000398FDF7F5FED8F81810A2688B686860D6
:103BB000384803924FF4A871DA1C0090324B0398F6
:103BC000FDF7E6FED8F81810E2688B68A860324866
:103BD00003924FF4A8711A1D00902B4B0398FDF728
:103BE000D7FED8F8181024698A68E8602B48264B5D
:103BF00000904FF4A87102322046FDF7C9FE284C10
:103C000028612046FEF7F4F82046FEF7F1F820463A
:103C1000FEF7EEF82046FEF7EBF82046FEF7E8F850
:103C2000FFF7C6FA01201F49FFF742FA814610B19B
:103C300005B0BDE8F083D8F81810134B8A680097D8
:103C400030464FF4A8710532FDF7A2FE202328600C
:103C500083F3118802212046FEF7F2F8FDF718FEE3
:103C60004B4683F31188FFF7A3FAA36802205A1E7C
:103C70005142514105B0BDE8F043FFF701BA00BF22
:103C8000605F010810620108113B0008641C0020FD
:103C90001462010818620108C07801082062010856
:103CA000000800201C62010868150020AFF30080A6
:103CB00010B5214B214C9869214B826882B00020BD
:103CC0000090204801324FF4A8710068FDF760FEB3
:103CD0001D4B214618602046FEF702F9216801209D
:103CE0000A1B534253EB0201FFF7CAF908B102B0B5
:103CF00010BDA1680220D1F1010138BF0021FFF7FA
:103D0000BFF90028F3D121462046FEF7E9F82268E2
:103D10000320131B59425941FFF7B2F90028E6D19D
:103D2000A2680420D2F1010138BF002102B0BDE831
:103D30001040FFF7A5B900BF68150020000800205B
:103D4000F13A0008605F0108641C0020AFF30080B6
:103D500070B5A04C002182B02046FEF739F8B0F1D2
:103D6000FF33594259410120FFF78AF908B102B0E7
:103D700070BD22680220B2EB040CDCF1000353EBAF
:103D80000C01FFF77DF90028F1D1A1680320D1F1E2
:103D9000010138BF0021FFF773F90028E7D18E4DEC
:103DA0008E4BAA69916800908D484A1E00684FF4B6
:103DB000A871FDF7EDFD8B4B4FF4FA7118602046AA
:103DC000FEF706F80546FFF7F3F90420D5F10101E7
:103DD00038BF0021FFF754F90028C8D12268052018
:103DE000B2EB040EDEF1000151EB0E01FFF748F9D2
:103DF0000028BCD1A3680620D3F1010138BF0021FF
:103E0000FFF73EF90028B2D1774EFFF721FA4120A3
:103E1000F668FFF725F94FF4FA712046FDF7D8FF51
:103E2000B0F1FF30424252EB00010720FFF728F9C2
:103E300000289CD1216808200B1B5A4252EB030139
:103E4000FFF71EF9002892D1A1680920D1F10101E4
:103E500038BF0021FFF714F9002888D14220FFF76E
:103E6000FFF84FF4FA712046FDF7B2FFB0F1FF3CC6
:103E7000DCF1000050EB0C010720FFF701F90028EE
:103E80007FF475AF23680820B3EB040EDEF1000267
:103E900052EB0E012546FFF7F3F800287FF467AFD9
:103EA000A1680920D1F1010138BF0021FFF7E8F82E
:103EB00000287FF45CAF4320FFF7D2F84FF4FA718B
:103EC0002046FDF785FFB0F1FF30434253EB000180
:103ED0000720FFF7D5F800287FF449AF22680820B3
:103EE000131B59425941FFF7CBF800287FF43FAF2D
:103EF000A2680920D2F1010138BF0021FFF7C0F804
:103F000000287FF434AF4420FFF7AAF84FF4FA7189
:103F10002046FDF75DFFB0F1FF3CDCF1000050EB07
:103F20000C010720FFF7ACF800287FF420AF2368CE
:103F30000820B3EB040EDEF1000151EB0E01FFF798
:103F40009FF800287FF413AFA2680920D2F1010185
:103F500038BF0021FFF794F800287FF408AF452010
:103F6000FFF77EF84FF4FA712046FDF731FFB0F10C
:103F7000FF30434253EB00010720FFF781F8002890
:103F80007FF4F5AE216808200A1B534253EB02016F
:103F9000FFF776F800287FF4EAAEA1680920D1F196
:103FA000010138BF0021FFF76BF800287FF4DFAE76
:103FB0000A200E49FFF77CF800287FF4D8AE0B20CA
:103FC00006F6C41106F6C91202B0BDE87040FFF74C
:103FD000AFB800BF0008002068150020313B000882
:103FE000605F0108641C0020581500201C62010855
:103FF000F0B541F26853C2F2000345F66075996965
:1040000083B08E68C0F6010546F21024C0F60104A4
:1040100044F21113721C009428684FF4A871C0F682
:104020000003FDF7B5FC41F66444C2F200046F687A
:10403000206046F21820C0F6010044F2E103B21CF1
:1040400000904FF4A871C0F600033846FDF7A0FCBD
:10405000AD68606046F21420C0F6010044F2A1038E
:104060004FF4A871F21CC0F6000300902846FDF73B
:104070008FFC40F62C05C2F20005A0602846FEF732
:104080008FF82846FEF78CF8FFF792F846F2A03139
:104090000120C0F6010103B0BDE8F040FFF708B809
:1040A00010B5044640F61C00C2F20000FDF7C0FF48
:1040B0002078FEF7D5FFFDF7E3FF002010BD00BF1D
:1040C00010B5044640F60C00C2F20000FDF7B0FF48
:1040D0002078FEF7C5FFFDF7D3FF002010BD00BF1D
:1040E00010B5044640F60C00C2F20000FDF7A0FF38
:1040F00040F62C00C2F20000FEF7CAF82078FEF766
:10410000AFFFFDF7BDFF002010BD00BFAFF3008083
:1041100010B5044640F61C00C2F20000FDF788FF0F
:1041200040F60C00C2F20000FDF782FF40F62C00C2
:104130004FF0FF31C2F20000FEF7E2F82078FEF700
:104140008FFFFDF79DFFFDF79BFF002010BD00BF17
:1041500040F62C0008B5C2F20000FEF719F840F650
:104160000C00C2F20000FDF7F3FE40F61C00C2F2A4
:104170000000BDE80840FDF7EBBE00BFAFF30080D4
:1041800008B540F62C00C2F20000FEF701F840F638
:104190000C00C2F20000BDE80840FDF7D9BE00BF28
:1041A00008B540F62C00C2F20000FDF7F1FF40F622
:1041B0000C00C2F20000BDE80840FDF7C9BE00BF18
:1041C00040F60C00C2F20000FDF7C2BEAFF3008063
:1041D00008B540F60C00C2F20000FDF7B9FE40F64B
:1041E0001C00C2F20000BDE80840FDF7B1BE00BFF0
:1041F00008B540F60C00C2F20000FDF7A9FE40F63B
:104200001C00C2F20000BDE80840FDF7A1BE00BFDF
:1042100040F60C00C2F20000FDF79ABEAFF300803A
:1042200040F60C00C2F20000FDF792BEAFF3008032
:10423000F0B541F26853C2F2000345F66076996921
:1042400083B08F68C0F6010644F2E10546F22024EF
:10425000C0F60005C0F601047A1C2B4600943068B5
:104260004FF4A871FDF794FB41F66444C2F20004D8
:10427000BA1C206047F6C000C0F601002B46009033
:104280004FF4A8717068FDF783FB606046F2182058
:10429000C0F60100FA1C2B4600904FF4A871B068DC
:1042A000FDF776FBA06046F21420C0F601003A1D2F
:1042B0002B4600904FF4A871F068FDF769FB366952
:1042C000E06046F21020C0F601004FF4A8717A1D9C
:1042D0002B4600903046FDF75BFB206140F62C003A
:1042E000C2F20000FDF79CFFFEF762FF46F21C21C0
:1042F0000120C0F6010103B0BDE8F040FEF7D8BED2
:10430000F0B541F26853C2F2000345F66076996950
:1043100083B08F68C0F6010644F2E10546F220241E
:10432000C0F60005C0F601047A1C2B4600943068E4
:104330004FF4A871FDF72CFB41F66444C2F200046F
:104340007168206047F6C000C0F60100BA1C2B4619
:10435000009008464FF4A871FDF71AFBB168606041
:1043600046F21820C0F60100FA1C2B4600900846C1
:104370004FF4A871FDF70CFBF168A06046F2142021
:10438000C0F601003A1D2B46009008464FF4A87174
:10439000FDF7FEFA3269E06046F21021C0F6010135
:1043A0002B46009110464FF4A8717A1DFDF7F0FAE4
:1043B0002023206183F3118840F62C04C2F200040C
:1043C0002046FDF705FF2046FDF702FF2046FDF7DA
:1043D000FFFE2046FDF7FCFE2046FDF7F9FEFDF747
:1043E00057FA002383F31188FEF7E2FE46F21C2100
:1043F0000120C0F6010103B0BDE8F040FEF758BE51
:10440000F0B52C4F2C48BB692C4E9C682C4D85B0C8
:10441000FDF70EFE2B4A30682B4B00924FF4A8712B
:10442000621CFDF7B5FA7168286028480391A21C48
:104430004FF4A871244B00900398FDF7A9FAB368D4
:10444000686023480393E21C4FF4A8711E4B009050
:104450000398FDF79DFAF268A8601E4803924FF496
:10446000A871221D184B00900398FDF791FA366948
:10447000E8601948144B00904FF4A871621D304653
:10448000FDF786FA2861FDF7FBFDFEF791FEB9699D
:104490008B6801201A1B51425141FEF7F1FD08B112
:1044A00005B0F0BD0D49022005B0BDE8F040FEF7B3
:1044B000FFBD00BF681500200C080020605F0108E8
:1044C000641C002020620108C1400008C078010877
:1044D0001862010814620108106201081C620108D8
:1044E000F8B52C4D2C4CAB6920469E68FDF7B0FD0D
:1044F00001460120FEF7C4FD00B1F8BD2046FDF7DE
:10450000A7FD80F00101C9B20220FEF7B9FD074600
:104510000028F2D1202383F31188FDF7E1FD3B460B
:1045200083F3118822680320B2EB040EDEF100034E
:1045300053EB0E01FEF7A4FD0028DED1A168042094
:10454000D1F1010138BF0021FEF79AFD0028D4D136
:10455000A86982680520931B59425941FEF790FDD6
:104560000028CAD12046FDF763FDFDF7E1FD226872
:104570000620131B59425941FEF782FD0028BCD189
:10458000A2680720D2F1010138BF0021BDE8F84040
:10459000FEF776BD681500200C080020AFF3008000
:1045A0002DE9F0468D4D8E4EAB6932689C688D4882
:1045B0008D4B8E4F85B004F10109039200904FF4AA
:1045C000A8714A460398FDF7E3F976683860884891
:1045D000884B009004F1020A4FF4A871524630460D
:1045E000FDF7D6F978608448FDF722FDA9698B684C
:1045F00001201A1B51425141FEF742FD10B105B096
:10460000BDE8F0866420FDF713FAA86983680220EC
:10461000B3EB090251425141FEF732FD0028EED1C1
:104620007648FDF705FDA86983680320B3EB090C04
:10463000DCF1000252EB0C01FEF722FD0028DED176
:104640006420FDF7F5F9A9698B680420B3EB0A0E25
:10465000DEF1000252EB0E01FEF712FD0028CED172
:10466000FDF70EFDA86981680520B1EB09035A42E8
:1046700052EB0301FEF704FD0028C0D16420FDF7D2
:10468000D7F9A86981680620B1EB09035A4252EBB9
:104690000301FEF7F5FC0028B1D1FDF749FDA8693B
:1046A00081680720B1EB040CDCF1000353EB0C0133
:1046B000FEF7E6FC0028A2D1FEF77AFD504A4A4BED
:1046C00000924FF4A8714A460398FDF761F93860EB
:1046D0004C48484B00904FF4A87152463046FDF7C5
:1046E00057F978604448FDF7A3FCA9698B68082056
:1046F000B3EB040EDEF1000252EB0E01FEF7C0FC3C
:1047000000287FF47CAF6420FDF792F9A8698168E6
:104710000920B1EB09035A4252EB0301FEF7B0FC4A
:1047200000287FF46CAF3548FDF782FCA8698168EA
:104730000A20B1EB09035A4252EB0301FEF7A0FC39
:1047400000287FF45CAF6420FDF772F9AE69B168B0
:104750000B20B1EB0A0CDCF1000353EB0C01FEF76C
:104760008FFC064600287FF44AAF202383F311888C
:10477000FDF7B6FCFDF78CF8334683F31188A86982
:1047800082680C20B2EB090EDEF1000151EB0E0144
:10479000FEF776FC00287FF432AF6420FDF748F97D
:1047A000AB699A680D20B2EB090359425941FEF7F3
:1047B00067FC00287FF423AFFDF7BAFCA869826884
:1047C0000E20131B59425941FEF75AFC00287FF472
:1047D00016AF05B0BDE8F046FEF7EABC681500204C
:1047E000605F01081462010831480008641C002061
:1047F00010620108114800081C0800200C08002065
:10480000C078010818620108AFF30080AFF30080A0
:1048100008B59620FDF70CF940F60C00C2F2000036
:10482000FDF706FCFDF72CFC002008BDAFF300806F
:1048300008B53220FDF7FCF840F61C00C2F200007B
:10484000FDF7F6FBFDF71CFC002008BDAFF3008070
:104850002DE9F041304EDFF8E480304C84B0FEF7B3
:10486000F7FCB3692E499A68CF682E4BD8F8000040
:1048700000254FF4A871053A0095FDF789F8B36952
:10488000D8F804209B68039220601A1F4FF4A87187
:10489000254B00950398FDF77BF8B169D8F80820FF
:1048A0008B6803926060DA1E4FF4A8711F4B00956D
:1048B0000398FDF76DF8B169D8F80C208B68039266
:1048C000A0609A1E4FF4A871194B00950398FDF74C
:1048D0005FF8B169D8F810608A68164BE0604FF451
:1048E000A871013A00953046FDF752F82061FEF7B5
:1048F0005FFC01201049FEF7DBFB10B104B0BDE8FE
:10490000F081022007F16E0107F1730204B0BDE8E7
:10491000F041FEF70DBC00BF68150020641C0020AC
:1049200058150020C14A0008714A0008414A000891
:10493000214A0008F14900081C620108605F010873
:104940002DE9F041224EDFF8A480224C84B0FEF71E
:104950007FFCB36920499A68CF68204BD8F80000E3
:1049600000254FF4A871013A0095FDF711F8B369DD
:10497000D8F804209B68039220609A1E4FF4A87117
:10498000174B00950398FDF703F8B169D8F8086054
:104990008A68144B60604FF4A871033A0095304662
:1049A000FCF7F6FFA060FEF703FC01200E49FEF7BE
:1049B0007FFB10B104B0BDE8F081022007F1640173
:1049C00007F1690204B0BDE8F041FEF7B1BB00BFDA
:1049D00068150020641C002058150020414B000879
:1049E000214B0008F14A0008A0630108605F01083C
:1049F00008B53220FDF71CF840F61C00C2F200009A
:104A0000FDF716FB0A20FEF7FBFBFDF739FB412003
:104A1000FEF726FB002008BDAFF30080AFF3008057
:104A200008B52820FDF704F81420FEF7E9FB422022
:104A3000FEF716FB002008BDAFF30080AFF3008047
:104A400008B51420FCF7F4FF40F61C00C2F2000089
:104A5000FDF7EEFA0A20FEF7D3FBFDF711FB43202A
:104A6000FEF7FEFA002008BDAFF30080AFF3008030
:104A700008B50A20FCF7DCFF40F61C00C2F200007B
:104A8000FDF7D6FA1420FEF7BBFB40F60C00C2F28D
:104A90000000FDF7CDFA0A20FEF7B2FBFDF7F0FAB1
:104AA0000A20FEF7ADFBFDF7EBFA4420FEF7D8FA3B
:104AB000002008BDAFF30080AFF30080AFF30080AB
:104AC00040F60C0008B5C2F20000FDF7B1FA1E2056
:104AD000FEF796FBFDF7D4FA4520FEF7C1FA002059
:104AE00008BD00BFAFF30080AFF30080AFF30080DC
:104AF00040F60C0008B5C2F20000FDF799FA282034
:104B0000FEF77EFBFDF7BCFA0A20FEF779FB432097
:104B1000FEF7A6FA002008BDAFF30080AFF30080D7
:104B200008B51420FCF784FF2820FEF769FB42201B
:104B3000FEF796FA002008BDAFF30080AFF30080C7
:104B400008B52820FCF774FF40F60C00C2F2000004
:104B5000FDF76EFA0A20FEF753FBFDF791FA4120AC
:104B6000FEF77EFA002008BDAFF30080AFF30080AF
:104B700010B541F26852C2F2000245F660739169C5
:104B8000C0F6010382B08C681868009144F60143B6
:104B9000C0F60003621C4FF4A871FCF7F9FE41F661
:104BA0006442C2F200021060FDF772FD446B2146C0
:104BB000FDF78EFDE0B2FEF753FAFDF769FD446B99
:104BC0002146FDF785FDE0B2FEF74AFAFDF760FDEC
:104BD000446B2146FDF77CFDE0B2FEF741FA46F258
:104BE000A0310120C0F6010102B0BDE81040FEF77F
:104BF0005FBA00BFAFF30080AFF30080AFF3008077
:104C000010B541210446FDF723FD42212046FDF762
:104C10001FFD20464321FDF71BFD002010BD00BFF6
:104C2000F0B57D4C616A01204B1F5A4283B052EBB4
:104C30000301FEF725FA002845D1422120464FF016
:104C4000FF32FDF7ADFDD0F1010138BF0021022098
:104C5000FEF716FAB8BB432120464FF0FF32FDF7AE
:104C60009FFDD0F1010138BF00210220FEF708FAB4
:104C700048BB442120464FF0FF32FDF791FDD0F1B3
:104C8000010138BF00210220FEF7FAF9D8B9452109
:104C900020464FF0FF32FDF783FDD0F1010138BF10
:104CA00000210220FEF7ECF968B9412120464FF0BF
:104CB000FF32FDF7BDFDD0F1010138BF0021032017
:104CC000FEF7DEF908B103B0F0BD582101222046FD
:104CD000FDF766FDB0F1FF3CDCF1000050EB0C018C
:104CE0000420FEF7CDF905460028ECD1202383F3FC
:104CF000118858212046FDF763FD2B46014683F3BA
:104D000011880520B1F1FF3EDEF1000353EB0E01E7
:104D1000FEF7B6F90028D6D1582101222046FDF72A
:104D200087FDB0F1FF356A4252EB05010620FEF720
:104D3000A7F905460028C6D1202383F311885821FE
:104D40002046FDF785FD2B46014683F31188072099
:104D5000B1F1FF335A4252EB0301FEF791F90028FB
:104D6000B1D1202383F31188676A0820D7F10101AC
:104D700038BF0021FEF784F92646074618B1002304
:104D800083F311889FE7034683F31188202383F37D
:104D90001188A5690920B5F1050CDCF1000151EB82
:104DA0000C01FEF76DF9054618B13B4683F31188F7
:104DB00089E7034683F31188202383F31188A368CE
:104DC000E2680A20B2EB030EDEF1000151EB0E01A6
:104DD000FEF756F90346D0B983F31188052605E09E
:104DE0009DF80400FEF73CF9013E17D00A4D01A9D9
:104DF0004FF0FF322846FDF763FDD0F1010138BFC7
:104E000000210B20FEF73CF90028E9D05BE72B4698
:104E100083F3118857E700BF340800200C20C849ED
:104E2000FEF746F900287FF44EAF472128464FF0A1
:104E3000FF32FDF7B5FCD0F1010138BF00210D2094
:104E4000FEF71EF900287FF43EAF01A928464FF077
:104E5000FF32FDF735FDD0F1010138BF00210E20F2
:104E6000FEF70EF900287FF42EAF2A68AB680F20FA
:104E7000D21A51425141FEF703F900287FF423AFC3
:104E80002A68EB681020D21A51425141FEF7F8F817
:104E900000287FF418AF01A901222846FDF710FD74
:104EA000B0F1FF30434253EB00011120FEF7E8F868
:104EB00000287FF408AF202383F31188284601A936
:104EC000FDF70EFD3346024683F311881220B2F13E
:104ED000FF3CDCF1000151EB0C01FEF7D1F800289A
:104EE0007FF4F1AE202383F311886B6A13205A1FDD
:104EF00051425141FEF7C4F8002383F31188002882
:104F00007FF4E1AE202383F31188A5698D4C142032
:104F1000D5F1010138BF0021FEF7B2F8054600289F
:104F20007FF42DAF034683F31188202383F3118888
:104F3000A368E2681520D21A51425141FEF7A0F849
:104F4000034600287FF463AF83F31188202383F3A3
:104F5000118841212046FDF733FCD0F1010138BF13
:104F600000211620FEF78CF800287FF4ACAE422119
:104F70002046FDF725FCD0F1010138BF00211720A4
:104F8000FEF77EF800287FF49EAE43212046FDF711
:104F900017FCD0F1010138BF00211820FEF770F88E
:104FA00000287FF490AE44212046FDF709FCD0F1A3
:104FB000010138BF00211920FEF762F805460028DC
:104FC0007FF481AE20464521FDF7FAFB2B460246D1
:104FD00083F311881A20D2F1010138BF0021FEF7B6
:104FE0004FF800287FF46FAEE168A3681B20B1EB97
:104FF000030EDEF1000252EB0E01FEF741F800282D
:105000007FF461AE0525202383F311884D4C01A95F
:105010002046FDF765FC0023014683F311881C2020
:10502000CB1A5A4252EB0301FEF72AF800287FF40C
:105030004AAE9DF80400FEF713F8013DE3D11D20B0
:105040003F49FEF735F800287FF43DAE202383F377
:105050001188616A1E204B1F5A4252EB0301FEF772
:105060000FF82B4683F3118800287FF42CAE202301
:1050700083F31188A1691F20D1F1010138BF0021FC
:10508000FDF7FEFF2B4683F3118800287FF41BAE4B
:10509000E268A3682020D21A51425141FDF7F0FF87
:1050A00000287FF410AE202383F311884521204689
:1050B000FDF7CEFBD0F1010138BF00212120FDF723
:1050C000DFFF00287FF4FFAD44212046FDF7C0FB41
:1050D000D0F1010138BF00212220FDF7D1FF0028C7
:1050E0007FF4F1AD43212046FDF7B2FBD0F1010181
:1050F00038BF00212320FDF7C3FF00287FF4E3AD74
:1051000042212046FDF7A4FBD0F1010138BF002168
:105110002420FDF7B5FF00287FF4D5AD094C4121CF
:105120002046FDF795FB0023024683F311882520D6
:10513000B2EB030CDCF1000353EB0C0104E000BF05
:105140001C62010834080020FDF79AFF00287FF454
:10515000BAADE168A2682620B1EB020EDEF10003D1
:1051600053EB0E01FDF78CFF00287FF4ACAD052456
:10517000202383F311884A4D01A92846FDF7B0FB8F
:105180000023014683F311882720CA1A534253EBA8
:105190000201FDF775FF00287FF495AD9DF804002E
:1051A000FDF75EFF013CE3D128203E49FDF780FF7B
:1051B00000287FF488AD202383F31188696A2920B1
:1051C0004A1F534253EB0201FDF75AFF234683F374
:1051D000118800287FF477AD202383F31188A96913
:1051E0002A20D1F1010138BF0021FDF749FF2346F4
:1051F00083F3118800287FF466ADEA68AB682B2042
:10520000B2EB030CDCF1000151EB0C01FDF738FFB0
:1052100000287FF458AD2846FDF782FA202383F357
:1052200011886A6A2C20B2F1050EDEF1000353EBFF
:105230000E01FDF725FF234683F3118800287FF434
:1052400042AD202383F31188A9692D20D1F10101FA
:1052500038BF0021FDF714FF234683F3118800288F
:105260007FF431AD202383F31188AB682A682E20A8
:10527000D21A51425141FDF703FF234683F31188AF
:1052800000287FF420AD202383F311882A68EB687F
:105290002F20D21A51425141FDF7F2FE6FE500BFB7
:1052A000340800201C620108AFF30080AFF30080D7
:1052B00040F6340041F2B051C2F20000C2F20001E7
:1052C0000522FDF715BA00BFAFF30080AFF30080F1
:1052D0004FF0FF30FDF754B8AFF30080AFF300801C
:1052E0004FF0FF30FDF74CB8AFF30080AFF3008014
:1052F0004FF0FF30FDF744B8AFF30080AFF300800C
:105300002DE9F04307208BB0FDF752F84FF0FF3046
:10531000FDF7BEF8B0F1010EDEF1000151EB0E0118
:105320000120FDF7ADFE10B10BB0BDE8F0834FF0EA
:10533000FF30FDF7ADF80238424252EB0001022087
:10534000FDF79EFE0028EFD14FF0FF30FDF7A0F8EB
:10535000031F594259410320FDF792FE0028E3D173
:105360004FF0FF30FDF70CF8D0F1010138BF0021FC
:105370000420FDF785FE0028D6D1DFF8F881764FAE
:10538000764E774DFDF764FFD8F818403F68A06867
:10539000744B0094421E4FF4A8713846F468FCF731
:1053A000F7FA28604FF0FF30FDF772F804F1320190
:1053B000814604F137020520FDF7BAFE0028B3D17B
:1053C0000620B9F10102534253EB0201FDF758FEEA
:1053D0000028A9D14FF0FF30FCF7D2FFD0F1010136
:1053E00038BF00210720FDF74BFE00289CD1FDF7B8
:1053F000DFFE0520FCF7DCFF4FF0FF30FDF768F81B
:10540000B0F1050CDCF1000151EB0C010820FDF7B7
:1054100037FE002888D14FF0FF30FCF7B1FFD0F104
:10542000010138BF00210920FDF72AFE00287FF482
:105430007BAFFDF70DFFD8F818404A4BA0680094E9
:10544000421E4FF4A8713846F468FCF7A1FA2860B0
:105450004FF0FF30FDF73CF804F13201814604F1D2
:1054600037020A20FDF764FE00287FF45DAF0B20B1
:10547000B9F1010EDEF1000252EB0E01FDF700FE64
:1054800000287FF451AF4FF0FF30FCF779FFD0F1E7
:10549000010138BF00210C20FDF7F2FD00287FF448
:1054A00043AFDFF8D490304CFDF782FE484602A9A6
:1054B0000122C9F800902460FCF732FF06A90422FB
:1054C0002046FCF72DFFFDF7C3FED8F8183027491A
:1054D00098680091421E4FF4A871254BF668384633
:1054E000FCF756FA28600520FDF712F80D2006F1AA
:1054F000320106F13702FDF71BFE00287FF414AFDE
:105500004FF0FF30FCF73CFFD0F1010138BF002124
:105510000E20FDF7B5FD00287FF406AFFDF748FE2D
:10552000484602A9FCF714FF204606A9FCF710FF25
:10553000D9F800200F20B2EB090359425941FDF779
:105540009FFD00287FF4F0AE22681020131B594203
:105550005941FDF795FDE7E6605F01085815002009
:10556000641C0020B155000860080020106201088A
:1055700081550008681500205C080020AFF300800A
:1055800040F65C0008B50021C2F20000FCF758FFAD
:105590003220FCF74DFA40F66000C2F20000002114
:1055A000FCF74EFF002008BDAFF30080AFF3008092
:1055B00010B504463220FCF73BFA20460121FCF7E7
:1055C0001FFF002010BD00BFAFF30080AFF30080CD
:1055D00010B51D4C88B00122204669462460FCF7B6
:1055E0009FFE204604A90222FCF79AFE21680120B2
:1055F000091B18BF0121FDF743FD08B108B010BD1C
:1056000020466946FCF7A4FE22680220111B18BF41
:105610000121FDF735FD0028F0D1204604A9FCF753
:1056200097FE236803201A1B51425141FDF728FDC4
:105630000028E3D107210548FCF712FF04200449A4
:10564000FDF736FDDAE700BF5C08002000660108C0
:10565000A0630108AFF30080AFF30080AFF30080D8
:105660004320FDF7FDBC00BFAFF30080AFF3008027
:105670004220FDF7F5BC00BFAFF30080AFF3008020
:105680004120FDF7EDBC00BFAFF30080AFF3008019
:1056900008B500214FF0FF30FCF75AFFD0F10101AF
:1056A00038BF00210120FDF7EBFC00B108BD014629
:1056B0004FF0FF30FCF774FFD0F1010138BF00213B
:1056C0000220FDF7DDFC0028F0D101464FF0FF304D
:1056D000FCF78EFFD0F1010138BF00210320FDF758
:1056E000CFFC0028E2D10A214FF0FF30FCF730FF59
:1056F000D0F1010138BF00210420FDF7C1FC0028D2
:10570000D4D10A214FF0FF30FCF74AFFD0F101015C
:1057100038BF00210520FDF7B3FC0028C6D10A21BF
:105720004FF0FF30FCF764FFD0F1010138BF0021DA
:105730000620BDE80840FDF7A3BC00BFAFF3008022
:1057400070B582B0FDF7A4FA01A90020FDF760FB57
:1057500010210020FDF7CCFA011C18BF01210446DE
:105760000120FDF78DFC054608B102B070BD204652
:10577000FDF706FB6FF0FF012846FDF7B9FAD0F1FF
:10578000010138BF00210220FDF77AFC0028ECD18E
:1057900001A97E48FDF73CFB10217C48FDF7A8FAE3
:1057A000102105467948FDF7A3FA102104467748F1
:1057B000FDF79EFA06462846FDF7E2FA2046FDF779
:1057C000DFFA3046FDF7DCFA69467048FDF720FB4A
:1057D000B0F1010EDEF1000151EB0E010320FDF7E7
:1057E0004FFC0028C1D110216848FDF781FA102133
:1057F00004466648FDF77CFA102105466348FDF72C
:1058000077FAFDF7BDFA2846FDF7BAFA2046FDF70C
:10581000B7FA69465D48FDF7FBFA0138424252EBA0
:1058200000010420FDF72CFC00289ED111215748CF
:10583000FDF75EFA102104465448FDF759FA054673
:105840002046FDF79DFA69465048FDF7E1FA831EB0
:10585000594259410520FDF713FC002885D110213C
:105860004A48FDF745FA694604464848FDF7D0FA2C
:10587000012800F0898069464448FDF7C9FA0238DA
:10588000424252EB00010620FDF7FAFB00287FF4AC
:105890006CAF2846FDF774FA2046FDF771FA6946A9
:1058A0003A48FDF7B5FAB0F1010CDCF1000353EB17
:1058B0000C010720FDF7E4FB00287FF456AF102110
:1058C0003248FDF715FA102105463048FDF710FA69
:1058D00004462846FDF754FA69462C48FDF798FA25
:1058E000B0F1020EDEF1000151EB0E010820FDF7D0
:1058F000C7FB00287FF439AF20212448FDF7F8F9D1
:10590000FDF73EFA2046FDF73BFA69461F48FDF7D2
:105910007FFA0138424252EB00010920FDF7B0FB4B
:1059200000287FF422AF69461848FDF771FA009904
:105930001648FDF7DDF9694604461448FDF768FA94
:10594000D0F1010138BF00210A20FDF799FB0028A2
:105950007FF40BAF2046FDF713FA69460B48FDF7BD
:1059600057FA431E594259410B20FDF789FB002885
:105970007FF4FBAE9DE80A000C20CA1A534253EB99
:105980000201FDF77DFBF0E601467CE7901C00205C
:1059900041F6904041F2B051C2F20000C2F2000163
:1059A0004FF4D262FDF794B9AFF30080AFF30080FB
:1059B00000207047AFF30080AFF30080AFF30080AA
:1059C00040F66400C2F200004FF4A8710022FDF717
:1059D0003FBA00BFAFF30080AFF30080AFF30080A9
:1059E00038B5574C5748256805222946FDF738FA3F
:1059F0005448FDF775FA011C18BF01210120FDF77D
:105A00003FFB002840F08A804E48FDF769FA011CF0
:105A100018BF01210120FDF733FB00287ED1494842
:105A2000FDF75EFA011C18BF01210120FDF728FBDC
:105A3000002873D14348FDF753FA011C18BF012118
:105A40000120FDF71DFB002868D13E48FDF748FA0C
:105A5000011C18BF01210120FDF712FB00285DD1B8
:105A60003848FDF73DFAD0F1010138BF002102208E
:105A7000FDF706FB002851D132482946FDF748FAC8
:105A800030486168FDF744FA2E48A168FDF740FAF6
:105A90002C48E168FDF73CFA21692A48FDF738FAFD
:105AA0002848FDF71DFA011C18BF01210320FDF74E
:105AB000E7FA002832D12348FDF712FA011C18BF7B
:105AC00001210320FDF7DCFA40BB1E48FDF708FA70
:105AD000011C18BF01210320FDF7D2FAF0B91948C3
