:020000040800F2
:10000000000400208175000851770008517700082E
:1000100051770008517700085177000851770008A0
:100020005177000851770008517700088177000860
:10003000517700085177000851770008417800088F
:100040005177000851770008517700085177000870
:100050005177000851770008517700085177000860
:10006000517700085177000851770008D1E4000863
:1000700001E5000831E5000861E5000891E50008A8
:10008000C1E50008F1E5000881ED0008A1F00008D5
:10009000F1F0000871F10008F1F100085177000853
:1000A00051770008C10C010851770008D10C0108F4
:1000B0005177000851770008B10E0108E1FE0008F1
:1000C00001000108517700085177000851770008B6
:1000D0005177000801120108211201085177000828
:1000E00051770008517700085177000851770008D0
:1000F00051770008517700085177000821E6000881
:100100005177000871F50008D10E010851770008F9
:10011000517700085177000851770008517700089F
:1001200051E6000881E60008B1E60008E1E60008B3
:1001300011E700085177000851770008517700084F
:10014000517700085177000851770008210801080D
:1001500041E7000871E70008A1E7000851770008AF
:10016000517700085177000851770008517700084F
:10017000517700085177000851770008517700083F
:10018000517700085177000851770008517700082F
:10019000517700085177000851770008517700081F
:0C01A000517700085177000851770008E3
:1001B00081F0004102E000BF83F0004330B54FEA18
:1001C00041044FEA430594EA050F08BF90EA020F85
:1001D0001FBF54EA000C55EA020C7FEA645C7FEA18
:1001E000655C00F0E2804FEA5454D4EB5555B8BF3B
:1001F0006D420CDD2C4480EA020281EA030382EAAC
:10020000000083EA010180EA020281EA0303362D3D
:1002100088BF30BD11F0004F4FEA01314FF4801C10
:100220004CEA113102D0404261EB410113F0004F22
:100230004FEA03334CEA133302D0524263EB4303D9
:1002400094EA050F00F0A780A4F10104D5F1200E77
:100250000DDB02FA0EFC22FA05F2801841F10001D2
:1002600003FA0EF2801843FA05F359410EE0A5F1A6
:1002700020050EF1200E012A03FA0EFC28BF4CF0D7
:10028000020C43FA05F3C01851EBE37101F000458D
:1002900007D54FF0000EDCF1000C7EEB00006EEB9A
:1002A0000101B1F5801F1BD3B1F5001F0CD3490824
:1002B0005FEA30004FEA3C0C04F101044FEA44527B
:1002C00012F5800F80F09A80BCF1004F08BF5FEA02
:1002D000500C50F1000041EB045141EA050130BDE2
:1002E0005FEA4C0C404141EB010111F4801FA4F185
:1002F0000104E9D191F0000F04BF01460020B1FADA
:1003000081F308BF2033A3F10B03B3F120020CDA11
:100310000C3208DD02F1140CC2F10C0201FA0CF0EF
:1003200021FA02F10CE002F11402D8BFC2F1200C54
:1003300001FA02F120FA0CFCDCBF41EA0C0190400A
:10034000E41AA2BF01EB0451294330BD6FEA040453
:100350001F3C1CDA0C340EDC04F11404C4F120023E
:1003600020FA04F001FA02F340EA030021FA04F350
:1003700045EA030130BDC4F10C04C4F1200220FAA7
:1003800002F001FA04F340EA0300294630BD21FAE5
:1003900004F0294630BD94F0000F83F4801306BFAB
:1003A00081F480110134013D4EE77FEA645C18BF9F
:1003B0007FEA655C29D094EA050F08BF90EA020F36
:1003C00005D054EA000C04BF1946104630BD91EA2E
:1003D000030F1EBF0021002030BD5FEA545C05D131
:1003E0004000494128BF41F0004130BD14F5800470
:1003F0003CBF01F5801130BD01F0004545F0FE41E4
:1004000041F470014FF0000030BD7FEA645C1ABF18
:10041000194610467FEA655C1CBF0B46024650EA4F
:10042000013406BF52EA033591EA030F41F400217B
:1004300030BD00BF90F0000F04BF0021704730B501
:100440004FF4806404F132044FF000054FF00001D6
:1004500050E700BF90F0000F04BF0021704730B597
:100460004FF4806404F1320410F0004548BF40426C
:100470004FF000013EE700BF42004FEAE2014FEAC1
:1004800031014FEA02701FBF12F07F4393F07F4F9C
:1004900081F06051704792F0000F14BF93F07F4FCE
:1004A000704730B54FF4607401F0004521F0004111
:1004B00020E700BF50EA010208BF704730B54FF097
:1004C00000050AE050EA010208BF704730B511F09C
:1004D000004502D5404261EB41014FF4806404F1D4
:1004E00032045FEA915C3FF4DCAE4FF003025FEA56
:1004F000DC0C18BF03325FEADC0C18BF033202EBDE
:10050000DC02C2F1200300FA03FC20FA02F001FA37
:1005100003FE40EA0E0021FA02F11444C1E600BFD6
:1005200070B54FF0FF0C4CF4E06C1CEA11541DBF89
:100530001CEA135594EA0C0F95EA0C0F00F0DEF854
:100540002C4481EA030621EA4C5123EA4C5350EA39
:10055000013518BF52EA033541F4801143F480138A
:1005600038D0A0FB02CE4FF00005E1FB02E506F01B
:100570000042E0FB03E54FF00006E1FB03569CF070
:10058000000F18BF4EF0010EA4F1FF04B6F5007F76
:1005900064F5407404D25FEA4E0E6D4146EB0606E8
:1005A00042EAC62141EA55514FEAC52040EA5E5071
:1005B0004FEACE2EB4F1FD0C88BFBCF5E06F1ED81B
:1005C000BEF1004F08BF5FEA500E50F1000041EB52
:1005D000045170BD06F0004646EA010140EA0200FF
:1005E00081EA0301B4EB5C04C2BFD4EB0C0541EA21
:1005F000045170BD41F480114FF0000E013C00F336
:10060000AB8014F1360FDEBF002001F0004170BD59
:10061000C4F10004203C35DA0C341BDC04F1140472
:10062000C4F1200500FA05F320FA04F001FA05F2FE
:1006300040EA020001F0004221F0004110EBD370CB
:1006400021FA04F642EB06015EEA430E08BF20EAF7
:10065000D37070BDC4F10C04C4F1200500FA04F39A
:1006600020FA05F001FA04F240EA020001F000412C
:1006700010EBD37041F100015EEA430E08BF20EA9F
:10068000D37070BDC4F1200500FA05F24EEA020EE7
:1006900020FA04F301FA05F243EA020321FA04F016
:1006A00001F0004121FA04F220EA020000EBD370CD
:1006B0005EEA430E08BF20EAD37070BD94F0000FCD
:1006C0000FD101F00046400041EB010111F4801F01
:1006D00008BF013CF7D041EA060195F0000F18BFB2
:1006E000704703F00046520043EB030313F4801FEE
:1006F00008BF013DF7D043EA0603704794EA0C0FA8
:100700000CEA135518BF95EA0C0F0CD050EA4106BD
:1007100018BF52EA4306D1D181EA030101F000413A
:100720004FF0000070BD50EA410606BF1046194662
:1007300052EA430619D094EA0C0F02D150EA01366E
:1007400013D195EA0C0F05D152EA03361CBF1046AF
:1007500019460AD181EA030101F0004141F0FE414E
:1007600041F470014FF0000070BD41F0FE4141F4D2
:10077000780170BD70B54FF0FF0C4CF4E06C1CEAD2
:1007800011541DBF1CEA135594EA0C0F95EA0C0F87
:1007900000F0A7F8A4EB050481EA030E52EA033542
:1007A0004FEA013100F088804FEA03334FF0805563
:1007B00045EA131343EA12634FEA022245EA111590
:1007C00045EA10654FEA00260EF000419D4208BF41
:1007D000964244F1FD0404F5407402D25B084FEAEE
:1007E0003202B61A65EB03055B084FEA32024FF49A
:1007F00080104FF4002CB6EB020E75EB030E22BFF7
:10080000B61A754640EA0C005B084FEA3202B6EBB6
:10081000020E75EB030E22BFB61A754640EA5C0065
:100820005B084FEA3202B6EB020E75EB030E22BFF5
:10083000B61A754640EA9C005B084FEA3202B6EBF6
:10084000020E75EB030E22BFB61A754640EADC00B5
:1008500055EA060E18D04FEA051545EA16754FEA17
:1008600006164FEAC30343EA52734FEAC2025FEA35
:100870001C1CC0D111F4801F0BD141EA00014FF0C4
:1008800000004FF0004CB6E711F4801F04BF014395
:100890000020B4F1FD0C88BFBCF5E06F3FF6AFAEB1
:1008A000B5EB030C04BFB6EB020C5FEA500C50F141
:1008B000000041EB045170BD0EF0004E4EEA1131C4
:1008C00014EB5C04C2BFD4EB0C0541EA045170BDCB
:1008D00041F480114FF0000E013C90E645EA060E0F
:1008E0008DE60CEA135594EA0C0F08BF95EA0C0F3D
:1008F0003FF43BAF94EA0C0F0AD150EA01347FF485
:1009000034AF95EA0C0F7FF425AF104619462CE75B
:1009100095EA0C0F06D152EA03353FF4FDAE1046BE
:10092000194622E750EA410618BF52EA43067FF40F
:10093000C5AE50EA41047FF40DAF52EA43057FF49F
:10094000EBAE12E700000000000000000000000015
:100950004FF0FF3C06E000BF4FF0010C02E000BF8B
:100960004FF0010C4DF804CD4FEA410C7FEA6C5C6E
:100970004FEA430C18BF7FEA6C5C1BD001B050EA11
:10098000410C0CBF52EA430C91EA030F02BF90EAFC
:10099000020F0020704710F1000F91EA030F58BFBB
:1009A000994208BF90422CBFD8176FEAE37040F01D
:1009B000010070474FEA410C7FEA6C5C02D150EABB
:1009C000013C07D14FEA430C7FEA6C5CD6D152EA76
:1009D000033CD3D05DF8040B704700BF844610463B
:1009E00062468C461946634600E000BF01B5FFF73A
:1009F000B7FF002848BF10F1000F01BD4DF808ED0A
:100A0000FFF7F4FF0CBF012000205DF808FB00BFDA
:100A10004DF808EDFFF7EAFF34BF012000205DF834
:100A200008FB00BF4DF808EDFFF7E0FF94BF012081
:100A300000205DF808FB00BF4DF808EDFFF7CEFF82
:100A400094BF012000205DF808FB00BF4DF808EDC1
:100A5000FFF7C4FF34BF012000205DF808FB00BF92
:100A60004FEA410212F5001215D211D56FF47873D6
:100A7000B3EB625212D94FEAC12343F0004343EA79
:100A8000505311F0004F23FA02F018BF4042704754
:100A90004FF00000704750EA013005D111F00040DE
:100AA00008BF6FF0004070474FF00000704700BF74
:100AB0004A0011D212F5001211D20DD56FF47873DD
:100AC000B3EB62520ED44FEAC12343F0004343EA32
:100AD000505323FA02F070474FF00000704750EA7D
:100AE000013002D14FF0FF3070474FF000007047E7
:100AF00070B540F60004C2F2000482B006462568D4
:100B0000296C29B1304602B0BDE8704000F010B841
:100B10001A20019100F04CF8236801991A222864E8
:100B2000186C00F0F5FB2368196CEBE7000000007F
:100B30002DE9F043054682694AF650690369C0F61B
:100B40000109D0F80CC087B0D5F808E00C466F68F2
:100B500009F118082E684FF6A0416D6902EB4202B8
:100B600003EB43032046C0F601014A44434405F524
:100B7000EC65CDF800C00C35CDF804E00297039683
:100B8000049501F06FF9204607B0BDE8F08300BF7F
:100B900000210A2201F03EBC00220A2301F088BB9A
:100BA000002200F067BF00BF00000000000000004E
:100BB00040F600030146C2F20003186800F008B8CE
:100BC00040F600030146C2F20003186803F0CCBFF0
:100BD0002DE9F04F01F10B04162C83B0064631D9F4
:100BE00024F00704E30F8C422CBF194643F00101A7
:100BF000002930D1304601F00BF9B4F5FC7F2FD23B
:100C00004FEAD40C40F6F405C2F2000505EBCC0225
:100C10002F46D368934200F02D825C6803F10808E8
:100C2000DA68304624F0030499681B195C68CA60CE
:100C300044F0010491605C6001F0ECF8404603B0C0
:100C4000BDE8F08F002310248C422CBF194643F0DE
:100C500001010029CED00C234FF000083360EDE7EE
:100C60005FEA542C04BF4FEAD40C4FEACC0040F0AA
:100C7000868040F6F405C2F2000528182F46C368A6
:100C8000984206D10DE0002980F27981DB68984214
:100C900007D05A6822F00302111B0F29F3DD0CF173
:100CA000FF3C0CF1010CBD4A93689A4208BF78687A
:100CB00024D0586820F00300011B0F2900F3C081E5
:100CC0000029D260926080F29480B0F5007F80F0BD
:100CD0007781C0084FF0010ED7F8048007EBC00100
:100CE00080100EFA00F0D960D1F808E040EA080060
:100CF0007860C3F808E0CEF80C308B604FF0010E3E
:100D00004FEAAC030EFA03FE86457DD810EA0E0FBB
:100D100008D12CF0030C4FEA4E0E0CF1040C10EA33
:100D20000E0FF8D007EBCC0AE146D046D8F80C00FD
:100D3000804507D196E1002B80F2A681C0688045EE
:100D400000F09081416821F003010B1B0F2BF2DDB5
:100D50008046C568011944F0010E58F8087F43F039
:100D60000104C0F804E030464C60FD60AF60D16023
:100D70009160CA608A60CB5001F04CF85EE7BCF12C
:100D8000040F9EBF4FEA941C0CF1380C4FEACC00C4
:100D90007FF66FAFBCF1140F9CBF0CF15B0C4FEAF8
:100DA000CC007FF666AFBCF1540F9EBF4FEA143CF7
:100DB0000CF16E0C4FEACC007FF65BAFBCF5AA7F5E
:100DC0009EBF4FEAD43C0CF1770C4FEACC007FF683
:100DD00050AF40F254539C4595BF4FEA944C4FF4AA
:100DE0007C700CF17C0C4FF07E0C98BF4FEACC006D
:100DF0003FE71A1803F108083046536843F001032F
:100E0000536001F007F819E7D7F80880D8F80430E4
:100E100023F003094C45C4EB090294BF00230123CE
:100E20000F2AD8BF43F00103002B00F0B98042F233
:100E30009C0AD5F80834C2F2000A3046B3F1FF3FED
:100E4000DAF8002002F1100BA3441FBF0BF57E6BF4
:100E50000BF11F0B2BF47E6B2BF01F0B594613F07D
:100E6000A7F9B0F1FF3F034600F0188108EB090134
:100E7000814200F21081DAF8042081425A44CAF813
:100E8000042000F03E81D5F808E440F6F405C2F2F3
:100E90000005BEF1FF3F17BF8218C5F80804C1EB7B
:100EA0000201CAF8041010F0070517BFC5F10805C4
:100EB0004FF48055431905F5805503EB0B0230467E
:100EC00001931205120DAD1A294613F071F9019B19
:100ED000B0F1FF3F00F02C81C11A491941F0010126
:100EE000DAF80420B84542F29C0BBB602A44C2F2F7
:100EF000000B5960CAF8042017D0B9F10F0F40F267
:100F0000E180A9F10C03D8F8045023F00703052071
:100F100008EB03010F2B05F0010543EA0505C8F8AE
:100F200004504860886000F2FB80DAF82C1042F22E
:100F30009C03C2F200038A42DAF8301088BFDA62FA
:100F400042F29C038A42C2F2000340F2A780D7F823
:100F500008801A63D8F8043023F003039C42C4EBE2
:100F6000030294BF002301230F2AD8BF43F00103DB
:100F7000B3B130464FF0000800F04CFF5EE69A181F
:100F8000D9689C6803F108085568304645F00103AC
:100F9000E1608C60536000F03DFF4FE6FC080020EC
:100FA00008EB040342F0010244F001043046C8F8A3
:100FB000044008F108085A60BB6000F02BFF3DE6D2
:100FC000410A04299CBF4FEA901E0EF1380E1DD92C
:100FD000142998BF01F15B0E18D954299CBF4FEA20
:100FE000103E0EF16E0E11D9B1F5AA7F9CBF4FEAEB
:100FF000D03E0EF1770E09D940F2545E714596BF8E
:101000004FEA904E4FF07E0E0EF17C0E07EBCE08AD
:10101000D8F80810414503D147E08968884505D0D4
:10102000D1F804E02EF0030E7045F6D3D1F80CE0B1
:10103000C3F80CE099607868CB60CEF808305DE6C4
:101040001D1941F00107D56044F001049560304658
:101050005C6003F10808EA60AA606F60695000F004
:10106000D9FEEBE509F1010919F0030F2FD008F1C2
:1010700008085BE603F108025B699A4208BF0CF1BD
:10108000020C3FF410AEC8E580464318C2683046F3
:1010900058F8081FCAE5B8453FF4EDAED7F8088008
:1010A000D8F8043023F0030358E74FF00109D7F8CC
:1010B00004804FEAAE008E4609FA00F048EA0000CC
:1010C0007860B5E7984601225A60002346E751460A
:1010D0001CF0030F0B460CF1FF3C2CD053F8081901
:1010E0009942F5D07B684FEA4E0E9E453FF68CAE96
:1010F000BEF1000F3FF488AE1EEA030F20D0CC46AD
:1011000010E64FEA015E4FEA1E5EBEF1000F7FF46B
:10111000BAAEBB680BEB090141F00101596004E76D
:10112000304608F1080103F01FFDDBF80420FCE65F
:1011300001210025D4E67B6823EA0E037B60D1E71A
:101140004FEA4E0E09F10409D6E700BF0000000087
:10115000032A70B404460D4626D941EA000313F071
:10116000030F13D020782B78984208BF294606D069
:101170001EE014F8010F11F8013F984218D1012A1E
:1011800002F1FF32F5D1002070BC70470B460446D7
:1011900051F8045B50F8046BAE4204D1043A0446A3
:1011A000032A0B46F2D81D461046002ADAD1EBE797
:1011B000C01AE9E700000000000000000000000085
:1011C000032A2DE9F00109D82AB10023CC5CC454CC
:1011D00001339342FAD1BDE8F00170470B46821803
:1011E000014603E02478013301F8014B11F0030FAD
:1011F0001C46F7D113F003055DD06E42C5F1040C17
:10120000ED009B594FEACC0C08E00434A7593B464B
:1012100007FA0CF748EA070741F8047B571A23FA44
:1012200005F8032FF1DC03E014F8013B01F8013B62
:101230008A42F9D8CFE753F8404C41F8404C53F874
:101240003C4C41F83C4C53F8384C41F8384C53F87E
:10125000344C41F8344C53F8304C41F8304C53F88E
:101260002C4C41F82C4C53F8284C41F8284C53F89E
:10127000244C41F8244C53F8204C41F8204C53F8AE
:101280001C4C41F81C4C53F8184C41F8184C53F8BE
:10129000144C41F8144C53F8104C41F8104C53F8CE
:1012A0000C4C41F80C4C53F8084C41F8084C53F8DE
:1012B000044C41F8044C561A1D460C46403340314C
:1012C0003F2EB8DC2B460FE053F8101C44F8101CDE
:1012D00053F80C1C44F80C1C53F8081C44F8081C68
:1012E00053F8041C44F8041C161B21461D461034F8
:1012F00010330F2EE8DC2B4602E0246841F8044B43
:10130000551A1C46032D03F10403F6DC90E700BFD9
:10131000032AC9B270B408D82AB10346121803F8D8
:10132000011B9342FBD170BC70478218044601E058
:1013300004F8011B14F0030FFAD14FF0013303FB43
:1013400001F31FE044F8403C44F83C3C44F8383C8E
:1013500044F8343C44F8303C44F82C3C44F8283CF5
:1013600044F8243C44F8203C44F81C3C44F8183C25
:1013700044F8143C44F8103C44F80C3C44F8083C55
:1013800044F8043C161B254640343F2EDADC2C463C
:1013900007E044F8103C44F80C3C44F8083C44F89E
:1013A000043C161B254610340F2EF2DC01E045F8F4
:1013B000043B541B032CFADC01E005F8011B9542A9
:1013C000FBD3B0E7000000000000000000000000B8
:1013D00001682DE9F0473B2982B0044698BF416877
:1013E00000F2E6803B2998BFA16800F2CF80172960
:1013F00000F2BA8021690B29D8BF636900F3A2808B
:1014000013F0030F30D148F21F52D817C5F2EB1278
:1014100082FB0365C0EB6510642505FB10300028D6
:101420007FD0E2681D26002A22DC48F21F554AF6CA
:101430009060C5F2EB1564274FF4C87CC0F601003C
:101440004B1E002900F0C680012B04BF194633460D
:1014500002D0194650F82330D218002AF0DD21615D
:10146000E26002B0BDE8F0871C26E268002ADCDDFD
:101470004AF6906548F21F57C0F601054FF0020C7E
:101480004FF00008C5F2EB174FF064094FF4C87A2B
:10149000012908BF334605D04AF69063C0F6010320
:1014A00053F821309342DCDA01290FD055F821009E
:1014B00001310C294AF69063C0EB0202C0F6010329
:1014C0002161E26007D0E2682169E1E7921BC4F87C
:1014D00010C0E260F7E76169C4F810800131616112
:1014E00011F0030F17D187FB0106C817C0EB661078
:1014F00009FB101090B901F5EC610C3187FB010676
:10150000C817C0EBE6160AFB161100290CBF1D26F2
:101510001C260021C4E71C260021C1E71D2600214E
:10152000BEE703F5EC630C3382FB0302D817C0EB74
:10153000E2124FF4C87000FB1233002B0CBF1D26C3
:101540001C2692E70C22684602F09AFA0199636918
:10155000009A0029216113446361BFF651AF0C3139
:10156000013B216163614BE71822684602F088FA6B
:10157000019BE2680099002BA3600A44E260BFF679
:1015800039AF1833013AA360E26033E73C22684682
:1015900002F076FA019BA168009A002B6360114467
:1015A000A160BFF624AF3C3301396360A1601EE740
:1015B0003C22684602F064FA019B62680099002BA5
:1015C000236011446160BFF60DAF3C3301392360E5
:1015D000616007E76369013B636113F0030F09D1A1
:1015E00085FB0316D917C1EB661107FB113129B131
:1015F0001D2600E01C260B210B462BE703F5EC63B0
:101600000C3385FB0316D917C1EBE6110CFB113324
:10161000002B0CBF1D261C26EDE700BF2DE9F04F67
:1016200083B0044603F06CFB05462046FFF7D0FE6E
:1016300021694AF69063E268C0F60103206803EB73
:101640008103A668013A01291B6B009001961A4498
:10165000D4F804A0D8BF616904DD616911F0030FFB
:1016600000F0828001F51C5344F620601033E261E3
:10167000834288BF4FF0FF3073D8462940F38580FE
:1016800048F21F574623C5F2EB174FF0640BA946EB
:10169000DE1713F0030F87FB030C40F26D101AD115
:1016A00003F5EC65C6EB6C160C354FF4B7700BFB0D
:1016B000163687FB05C84FEAE57CCCEBE81C56B92B
:1016C0004FF4C87000FB1C5C40F26D10BCF1000FC1
:1016D00008BF4FF4B770013312188B42D8D14D4672
:1016E00042F29346101DC9F24926C71786FB00C374
:1016F0001B18C7EBA303C3EBC303C31AA361002BDF
:10170000C0F2D580CAEB0A1A019E4FF4616742F21B
:10171000D0034FEA8A0AC2F200034FF4A340D4F880
:10172000208007FB06A7009EC0F201001B68B8F1ED
:10173000010FA8BF4FF00108BF1900FB02774BB1A2
:1017400001F5EC606B680C30834267D000F0D0F894
:10175000002863D14646012E0CBFE86B286A26623A
:10176000381803B0BDE8F08F48F21F53C817C5F210
:10177000EB1383FB0176C0EB6610642606FB1010AA
:10178000002800F0838001326CE7A9D0452900F0E1
:101790009F8048F21F574523C5F2EB174FF0640BAB
:1017A000A94687FB036CDE1713F0030F40F26D10A0
:1017B0001AD103F5EC65C6EB6C160C354FF4B77017
:1017C0000BFB163687FB05C84FEAE57CCCEBE81C23
:1017D00056B94FF4C87000FB1C5C40F26D10BCF1B0
:1017E000000F08BF4FF4B770013B121A8B42D8D1DB
:1017F00011F0030F4D466BD148F21F53C817C5F2C5
:10180000EB1383FB0176C0EB6610642606FB101019
:1018100000284FD04FF4B773D21A61E7AB6B286A38
:10182000EA6B191AD5F81CC08F42C2EB0303B4BF90
:10183000002601269F42ACBF002306F00103002BC7
:1018400088D12B68C2EB0C0C002B45D06745B4BF88
:101850004FF0000C4FF0010C8F42ACBF00260CF093
:101860000106B8F1000FFFF676AF86EA0808B8F176
:10187000010F7FF470AF821A06B952422368BF1875
:1018800020469A182260FFF7A3FD64E701F5EC609B
:101890000C3083FB00C3C617C6EBE3134FF4C876C6
:1018A00006FB130000287FF4DDAE0132DAE60733D1
:1018B000A36127E701F5EC600C3083FB00C3C6177A
:1018C000C6EBE3134FF4C87606FB13000028A1D043
:1018D00040F26D13D21A03E76745B4BF4FF0000C16
:1018E0004FF0010C8F42ACBF66464CF00106B8E7E2
:1018F0002DE9F04F85B0044603F002FA40F2B173CF
:101900009C42844640F39880A4F5F66248F21F5149
:10191000C5F2EB1102F1430002F5B673561E81FBCE
:101920000057033381FB0458C01781FB0351A0EB20
:101930006710E51700EBA606023AC5EB6810C5EB89
:10194000E81840F26D15DB174AF6F06905FB0262F4
:101950004FF4C875C3EBE113642105FB184842F24C
:10196000934B01FB10404FF4A34AB8F1000F0CBF9A
:101970003021002165460027C0F60109CDF80C8012
:10198000C9F2492BC0F2010A8046D318029104F033
:10199000030200930192CCF804402B7A4A2B4DD0DD
:1019A000442B5FD0019A002A41D0029EEC684E443D
:1019B000012C5BDD009A31460123013351F8040B01
:1019C000A3420244F9D1013B9C00131D8BFB031081
:1019D000D917C018C1EBA0013059C1EBC101591A88
:1019E0006B69591A2B6948BF0731013BC3EBC3032D
:1019F000CB18834202DB073B8342FCDA9B18296A3F
:101A00000137AA69022F0A440AFB032245F81C2F5A
:101A1000C3D1DCF838300120DCF81C209A42ACBF7E
:101A200000230123CCF8003005B0BDE8F08FB8F1F9
:101A3000000FBAD03026B9E70020F5E7009A6969AF
:101A40005318019A42B9B8F1000F05D03B29D4BF11
:101A500000210121CB18D2E7039A002AF6D00021F9
:101A6000CB18CCE76B690099CB18C8E7009A002423
:101A7000ABE700BF2DE9F84F05460C46164603F0CC
:101A80003FF92A684FF4A341C0F20101D7178346FA
:101A900044F20750CCF22E2080FB02839B18C7EB48
:101AA000234301FB1322002A05DA02F5A832013B89
:101AB00012F5C072F9D44BF2C5314FEAE279C9F29E
:101AC000A21142F29348181DC9F2492881FB02A1D4
:101AD00048F6890788FB00A88918C8F688074FEAE6
:101AE000E07CC9EBE1214FF46169A16009FB11229F
:101AF00008EB0001CCEBA101C1EBC10187FB02C7E0
:101B0000411A4FEAE27C002907EB0200A161CCEB0D
:101B100060106060C0EB0010A2EB80022260C0F297
:101B2000A680002B75DB4AF6F06C48F21F5040F29D
:101B3000B277C0F6010CC5F2EB104FF4C8794FF044
:101B4000640A01E001379B1A80FB0728FA1717F097
:101B5000030F07D1C2EB681801210AFB1878B8F10E
:101B6000000F09D180FB0781C2EBE11109FB117164
:101B7000D1F1010138BF00210CEB8102126E9342BA
:101B8000E0DA4A00A7F5EC6052180C380021E36156
:101B90001201606121610CEB02085CF802209342A3
:101BA00007DB40469B1A0131216150F8042F9A420D
:101BB000F8DD0133E36026B1002320462362BDE84F
:101BC000F88F01F055FF42F2D003C2F200031B6808
:101BD000002B4FD0DBF80430BB4205D03846FFF76E
:101BE00087FE002800F0DD80DBF80030002B00F0DD
:101BF000C5802B68DBF81C209342C0F2DF80DBF845
:101C00003820934280F2DA800123DBF83C10236213
:101C100033E04AF6F06C48F21F5040F2B277C0F65B
:101C2000010CC5F2EB104FF4C8794FF0640A013F84
:101C300017F0030F80FB07284FEAE77207D1C2EBCA
:101C4000681801210AFB1878B8F1000F09D180FB50
:101C50000781C2EBE11109FB1171D1F1010138BF1C
:101C600000210CEB8102126E9B18E0D489E707314A
:101C7000A16156E72662DBF820104BF2C532CD1782
:101C8000C9F2A212D4F808E048F68900276882FB5E
:101C900001A6C8F6880062687618F612731B4FF426
:101CA0006166C3EB0E05A56006FB131380FB03C141
:101CB000DE17C918C6EB6111521A6260C1EB01113F
:101CC000A3EB8103FB1A23603B2B2BDD01323C3B52
:101CD000626023603B2A48DD6B1C3C3AA360626073
:101CE000172B26DDA269E1690132A2610131062AC2
:101CF000E16101DD0022A2612169A3F11802E3681C
:101D0000A2600133E36058F82120934205DD0131E0
:101D10009B1A0C292161E36047D001F0ABFE2046FD
:101D2000BDE8F88F002BD5DA013A3C3362602360BE
:101D3000D0E7002BF1DAA269E169013AA261013929
:101D4000002AE1613DDBE2681833A360531EE360C3
:101D5000002BE2D12369013B2361002B34DB58F8CF
:101D60002330E36001F086FED9E7002AA8BF2B46A6
:101D7000B6DA6B1E3C32A3606260B1E72B68DBF819
:101D80001C209342BFF640AFDBF838209342ACBF33
:101D9000002301232362002B3FF46DAFDBF83C10DE
:101DA0006BE74FF0FF33236265E76269002323612D
:101DB0000132E361626101F05DFEB0E7002323625E
:101DC00059E70622A261BEE765690B232361013D45
:101DD000656115F0030F0BD12846642105F02AF840
:101DE00031B1012101F5B6720B230132E261B6E790
:101DF00028464FF4C87105F01DF8D1F1010138BF34
:101E00000021EFE7000000000000000000000000DB
:101E1000704700BF704700BF0000000000000000D6
:101E20000CB44FF4027370B59CB020AC0E46ADF804
:101E3000103001A954F8042B4FF0FF33ADF81230E5
:101E40006FF00045234601960596039506951B9471
:101E500000F0EEFA019B00221A701CB0BDE8704041
:101E600002B070470EB440F60003F0B59CB021AC50
:101E7000C2F20003064601A954F8042B6FF0004596
:101E800018684FF402772346019605964FF0FF3607
:101E9000ADF81070ADF81260039506951B9400F034
:101EA000C7FA019B00221A701CB0BDE8F04003B0D5
:101EB000704700BF000000000000000000000000AC
:101EC00040F60453C2F2000370B41D6810F8013BE1
:101ED000EC181A46647804F00304012C11F8014B45
:101EE00008BF03F120022E192346767806F0030678
:101EF000012E08BF04F12003D21A01D1002BE5D135
:101F0000104670BC704700BF0000000000000000D9
:101F100080EA010212F0030F3AD110F0030220F020
:101F2000030021F0030150F804CB08BF51F8043B33
:101F30000DD082F003024FEAC2026FF07F4323FA12
:101F400002F251F8043B4CEA020C43EA020300BFE0
:101F5000ACF101329C4501BF22EA0C0212F0803F35
:101F600050F804CB51F8043BF2D04FEA0C604FEA32
:101F70001C2C012828BFB0EB036F08BF1B0AF4D04C
:101F800003F0FF034FEA1060A0EB0300704700BFAF
:101F900010F0030F0AD010F8012B11F8013B012AB1
:101FA00028BF9A42F4D0A2EB030070474DF8045DBD
:101FB0004DF8044D4FF0010242EA022242EA024289
:101FC00001F0030C21F0030150F8044B51F8045BBD
:101FD000BCF1020F26D04BD824F07F4CBCEB152F60
:101FE000A4EB020323EA04030DD113EAC21308BFD2
:101FF00051F8045B0AD18CEA040CBCEB056F0CD1E0
:1020000050F8044BE8E74FEA15255CE033F07F43D6
:1020100052D10D784FEA146C55E04FEA146C05F07C
:10202000FF0550E04FEA044CA4EB02034FEA1C4CBE
:1020300023EA0403BCEB154F17D113EAC21308BF00
:1020400051F8045B07D18CEA040CBCEB054F08D1B6
:1020500050F8044BE6E71B042ED10D884FEA144CD0
:1020600031E04FEA05454FEA144C4FEA15452AE0A6
:1020700004F0FF0CBCEB156FA4EB020323EA04038E
:102080000DD113EAC21308BF51F8045B0AD18CEAE0
:10209000040CBCEB052F0AD150F8044BE8E74FEADB
:1020A000156510E014F0FF0F06D051F8045B4FEAFD
:1020B000142C25F07F4506E04FF000005DF8044B3E
:1020C0005DF8045B70470CF0FF0205F0FF0001288B
:1020D00028BF904204BF4FEA1C2C2D0AF3D0A2EB7C
:1020E00000005DF8044B5DF8045B704700000000E1
:1020F00080EA0102844612F0030F4FD111F0030F62
:1021000032D14DF8044D11F0040F51F8043B0BD0BF
:10211000A3F101329A4312F0803F04BF4CF8043B14
:1021200051F8043B16D100BF51F8044BA3F1013222
:102130009A4312F0803FA4F101320BD14CF8043BDA
:10214000A24312F0803F04BF51F8043B4CF8044B0B
:10215000EAD023460CF8013B13F0FF0F4FEA33237C
:10216000F8D15DF8044B704711F0010F06D011F85B
:10217000012B0CF8012B002A08BF704711F0020F49
:10218000BFD031F8022B12F0FF0F16BF2CF8022B34
:102190008CF8002012F47F4FB3D1704711F8012B57
:1021A0000CF8012B002AF9D1704700BF0000000095
:1021B00020F0030110F00300C0F1000051F8043BCF
:1021C00000F1040C4FEACC0C6FF000021CBF22FAA5
:1021D0000CF213434FF0010C4CEA0C2C4CEA0C4C63
:1021E000A3EB0C0222EA030212EACC1204BF51F85C
:1021F000043B0430F4D013F0FF0F1FBF013013F481
:102200007F4F013013F47F0F18BF0130704700BFBC
:10221000F0B40478002C20D00F78064630468FB1F9
:10222000A7421CD04B1C01E0944211D01D4613F86C
:10223000012B002AF8D17478701C44B10646304650
:10224000002FEDD174780D46701C002CF6D12A7841
:10225000002A08BF0020F0BC70472046FBE73A4642
:10226000F6E700BF000000000000000000000000D2
:10227000F0B40646047874B10F780546064657B1A7
:10228000BC4218BF0A4602D108E09C4206D012F8B0
:10229000013F002BF9D1301AF0BC70476C786E1CEE
:1022A000002CF8D03546EBE70000000000000000ED
:1022B0002DE9F04F40F60454C2F2000485B01F46E9
:1022C0008C4626680B460390029213F8014B321994
:1022D0001D4692F801B01BF0080BF6D12D2C73D0DF
:1022E0002B2C08BF15F8014BD7F1010338BF002391
:1022F000102F14BF1A4643F0010232B1302C73D0B4
:102300001BB1302C00F083800A27B946BBF1000FC7
:1023100049460CBF6FF0004A4FF0004ACDF804C0A8
:10232000504604F02BFC50468846494604F0F8FA23
:1023300033190022DDF804C05B78114613F0040F56
:102340001ED0303CA74225DD814294BF00230123EB
:1023500053EAD2722ED10A1A534243EB0203444588
:10236000D4BF002303F00103002B23D109FB01415B
:1023700015F8014B012233195B7813F0040FE0D1FB
:1023800013F0030306D0012B14BF57233723E41A9D
:10239000A742D9DCB2F1FF3F1BD00846BBF1000FCA
:1023A00010D1029B1BB152B90299C1F800C005B00F
:1023B000BDE8F08F4FF0FF3215F8014BDBE705F178
:1023C000FF3CF1E74842ECE715F8014B4FF0010BF9
:1023D0008AE70399BBF1000F0CBF6FF000404FF08C
:1023E000004022230B60DCE72A78A2F1780041420A
:1023F00041EB0001582A14BF0A4641F00102002AAD
:102400003FF47EAF10276C78B94602357EE7082787
:10241000B9467BE730B440F60004C2F200040D4632
:10242000134601462A46206830BC41E70000000000
:102430002DE9F04FC5B0144612930C91119002F0A3
:10244000A7FC00681990FFF7B3FE1C900C988389D5
:1024500013F0800F03D00369002B01F06F810DF1A1
:102460007C0A002356460DF1F7010E9309941A9346
:102470001B9317931D930F930791CDF8E4A03B9303
:102480003A93099A1378B3F1250218BF0122002B61
:102490000CBF002302F00103002B00F0BD80099B5C
:1024A0005A1C174601323B78191E18BF0121252BF3
:1024B0000CBF002301F00103002BF2D1099CB7EB04
:1024C000040810D03A9C099801343B9D072CC6F8AB
:1024D0000480306045443A943B9500F3818008368F
:1024E0000F9941440F913B78002B00F081807C1CB8
:1024F000002200230D928DF80F31202509942B2105
:102500007B784FF0FF37089222460132A3F120007A
:10251000582800F21C83DFE810F02D031A031A0379
:1025200036031A031A031A031A031A031A03C703FA
:1025300081001A035D0085001A039F00A500A50015
:10254000A500A500A500A500A500A500A5001A03EB
:102550001A031A031A031A031A031A031A031A0393
:102560001A03B70041021A0341021A031A031A039D
:102570001A037F021A031A0385021A031A031A03A5
:102580001A031A03A3021A031A03B2021A031A0344
:102590001A031A031A031A031A031A031A031A0353
:1025A00054033C034102410241024E033C031A031F
:1025B0001A030B031A039A0368037E03DD021A034E
:1025C000E3021A03AB031A031A03D2030D9B129002
:1025D0005B420D93089C44F004040894137894E73C
:1025E000119839AA0C9903F003F940B9564677E7D8
:1025F0003B9B23B1119839AA0C9903F0F9F80C9977
:102600000F9A8B8913F0400F18BF4FF0FF320F92D3
:102610000F9845B0BDE8F08F099F64E78DF80F1162
:10262000137872E712F8013B2A2B01F0FC81A3F129
:102630003000092801F2AC811446002714F8013B50
:1026400007EB870700EB4707A3F130000928224674
:10265000F4D947EAE77759E7089B43F080030893EA
:10266000137852E714460020A3F1300814F8013B18
:1026700000EB8000A3F1300C2246BCF1090F08EBFF
:102680004000F1D90D9041E70992089A169342F063
:1026900010020892089B13F0200F00F08182129C18
:1026A000E31D23F0070303F108001290D3E900456E
:1026B000002C75F10002C0F2CD8554EA05034FF0FD
:1026C00001030CBF00220122002FA2BF089921F0B4
:1026D00080010891002F18BF42F00102002A00F08B
:1026E000AC83012B00F0FE84022B00F0DE840DF1A0
:1026F000BC0B0BF12703EA084FEAD40848EA4578F7
:1027000004F00704114604F130020D4644469C468D
:102710001A70013B54EA0500EDD10899CDF84CC080
:1027200011F0010F40F088850BF1280BCCEB0B0268
:1027300010929DF80F210020109C1497BC42B8BF46
:102740003C4618900A9412B10A9801300A900899F0
:1027500011F0020B02D00A9B02330A93089C14F07A
:102760008404159440F0CD820D980A99471A002FE1
:1027700040F3C782102F41F365803B9D4AF6607895
:102780003A9CC0F6010829464FF0100922460C9DDC
:102790004446DDF8448002E0103F102F1BDD01327B
:1027A0003460C6F8049010310836072A3A9206F1D0
:1027B00008033B91F0DD4046294639AA564603F00E
:1027C00017F80AF1080300287FF419AF103F3B996E
:1027D000102F3A9AE3DCA0460D4614460134C6F8A1
:1027E0000080072C77603D443A943B9500F37E824D
:1027F0009DF80F211E466AB13A9C43AB0333336008
:1028000001340123072C73601D443A943B9500F377
:10281000E9830836BBF1000F0CD03A9C43AB336020
:10282000022301347360072C1D443A943B9500F356
:10283000CE830836159A802A00F0108314991098D8
:102840000F1A002F40F35B83102F40F3EB853A9C67
:102850002A46DFF8988A4FF0100B23460C9D444619
:10286000DDF8448002E0103F102F1BDD013334609F
:10287000C6F804B010320836072B3A9306F108095F
:102880003B92F0DD4046294639AA0AF1080902F0D8
:10289000AFFF564600287FF4B2AE103F3B9A102F90
:1028A0003A9BE3DCA04615461C460134C6F800807E
:1028B000072C77603D443A943B9500F37D83089A5A
:1028C00012F4807F40F04E823A9C109B01341398A2
:1028D000072C1D44C9F80430C9F800003B953A9410
:1028E00000F3358209F10809089C14F0040F46D062
:1028F0000D980A99461A002E41DD102E40F3DA8712
:102900003A9C4AF66078C0F6010810272346DDF8A5
:1029100030B04446DDF8448002E0103E102E19DD50
:1029200001331035072BC9F80040C9F8047009F1CC
:1029300008093A933B95F0DD4046594639AAD146FD
:1029400002F056FF00287FF45AAE103E3B9D102E39
:102950003A9BE5DCA0461C460134C9F80080072CF0
:10296000C9F8046035443A943B9508DD119839AABA
:102970000C9902F03DFF00287FF441AE3B9D0F9A79
:102980000A9C0D9B9C42ACBF1219D2180F92002DCD
:1029900040F00383002056463A9072E508991D46A0
:1029A000099211F0080F169300F08784129AD31D34
:1029B00023F0070303F10804129418681A905B6867
:1029C0001B931A981B9902F0CBFE012840F050840B
:1029D0001A98002200231B99FEF71AF8002840F0ED
:1029E0001C879DF80F2103204FF6C4434FF6C041CA
:1029F0000A901698C0F60101C0F60103002447288A
:102A0000D8BF0B4608991393032321F08001149437
:102A100008911093189496E6089C44F008040894D2
:102A2000137872E50899099241F010010891089A0B
:102A3000169312F0200300F0DF80129BDA1D0023B2
:102A400022F0070202F108041294D2E9004554EA88
:102A500005000CBF0022012200208DF80F0133E693
:102A6000089C099244F0100408940898169310F0FA
:102A7000200F00F0048112990123CA1DE0E709929A
:102A80004FF6D041089AC0F60101169312F0200FBC
:102A9000179100F02081129CE31D23F0070303F13E
:102AA00008001290D3E9004554EA0502089B0CBFC8
:102AB00000220122134200F06983169830230899FE
:102AC00001228DF80C31022341F002018DF80D0135
:102AD0000891C1E7089840F020000890137814E5A9
:102AE00009920021129A16938DF80F11141D136884
:102AF0001393002B00F0F086002FC0F293861398FA
:102B000000213A4602F054F9002800F03687139B62
:102B1000C01A1090B84240F3F484002027EAE7710D
:102B200014900A919DF80F211294109718900AE6BC
:102B300013786C2B0BBF089B089C43F0200344F0D8
:102B400010040ABF0893089412F8013FDDE40992CB
:102B50001693002B3FF44CAD002201218DF8BC30C0
:102B60002FAC00230A9110918DF80F311492189216
:102B70001394ECE59DF80F31002B40F09B838DF80A
:102B80000F511378C1E4089840F0010008901378C1
:102B9000BBE41693089B099213F0200F7FF47FADDE
:102BA000089911F0100F00F0A383129A14680432F0
:102BB0001292E5177CE5089840F0400008901378E1
:102BC000A3E416930121129B0020099200221C1DF0
:102BD0000A911B68129410912FA98DF80F0114927D
:102BE000189213918DF8BC30B1E50992089A1693AA
:102BF00012F020037FF421AF089911F0100200F0C9
:102C00009183129C22680434002512941446003AE1
:102C100018BF012220E7129B7821089C0025099209
:102C20004FF6E4401A6844F0020404330894129307
:102C300014463023003A8DF80C3118BF0122C0F63B
:102C400001008DF80D1117900223169104E70992E7
:102C5000089A12F0200F00F05883129B0F9C1298D4
:102C600019682246E31704301290C1E9002308E4F2
:102C70000898099210F0200F16937FF4FCAE089983
:102C800011F0100F40F09182089810F0400F00F002
:102C90008C821299012300250A880431129114466E
:102CA000003A18BF0122D7E6129B129C1B68201D18
:102CB000002B0D93FFF68AAC1378129025E409924D
:102CC0004FF6E440089AC0F60100169312F0200F68
:102CD00017907FF4E0AE089911F0100F00F0FA821F
:102CE000129A0025146804321292DDE6119839AA6E
:102CF0000C9902F07DFD00287FF481AC9DF80F2136
:102D000056463B9D77E5089A12F0010F40F0FD8092
:102D10003A9C0135139A01230134C9F80430072C79
:102D2000C9F800203B953A9400F31F8509F1080B80
:102D30000BF108091D9B0134072C1D44CBF804300E
:102D40003EABCBF800303B953A947FF7CDAD119870
:102D500039AA0C9902F04CFD00287FF450ACD14602
:102D60003B9DC1E51699652940F3CB801A98002256
:102D700000231B99FDF742FE002800F03E813A9C9B
:102D80004FF6F843C0F60103C9F8003001340123BF
:102D9000072CC9F804301D443A943B95D8BF09F17B
:102DA000080900F34683429B0E9A934204DB089B7A
:102DB00013F0010F3FF498AD3A9C1C980134199917
:102DC000072C0544C9F80400D8BF09F10803C9F865
:102DD00000103B953A9400F3BC830E9A561E002EC9
:102DE00040F31D83102E40F3E8853A9C1027DFF84E
:102DF000FC842246DDF830B04446DDF8448003E030
:102E0000103E102E40F3C48101321C605F6010350B
:102E10000833072A3A9203F108093B95F0DD404652
:102E2000594639AA0AF1080902F0E2FC5346002883
:102E30007FF4E5AB3B9D3A9AE2E7002B40F0B78088
:102E4000089C14F0010F00F02B81012030230DF1BC
:102E5000E30110908DF8E33013916AE40D9B0A9C16
:102E60001F1B002F7FF7EAAC102F40F369853A9CB7
:102E70003346DFF878844FF010092246DDF830B091
:102E80004446DDF8448002E0103F102F1BDD013284
:102E90001C60C3F8049010350833072A3A9203F1F6
:102EA00008063B95F0DD4046594639AA0AF1080666
:102EB00002F09EFC534600287FF4A1AB103F3B9DDF
:102EC000102F3A9AE3DCA04614460134C3F8008080
:102ED000072C5F603D443A943B957FF7AFAC119867
:102EE00039AA0C9902F084FC00287FF488AB14996D
:102EF000564610983B9D0F1A002F3FF7A5ACB146E0
:102F0000DDE40E9901297FF7FEAE3A9C0135139B53
:102F10000134C9F800300123072CC9F80430D8BFA8
:102F200009F108093B953A94D8BF09F1080600F366
:102F3000418101341C991998072C0D44D8BF06F122
:102F4000080BC9F80410C9F800003A943B9500F347
:102F50003F811A98002200231B99FDF74FFD00289E
:102F600040F0CE800E9B013413985A1E7260431CB1
:102F7000072C336015443A943B957FF7D9AE1198EE
:102F800039AA0C9902F034FC00287FF438AB0AF11E
:102F90000809D3463B9D3A9CCCE6119839AA0C9976
:102FA00002F026FC00283FF4F5ACFFF728BB109296
:102FB00039AA1392FFF7BDBB119839AA0C9902F0F8
:102FC00017FC00287FF41BABD1463B9D77E411989A
:102FD00039AA0C9902F00CFC00287FF410AB3B9D41
:102FE000564627E4119839AA0C9902F001FC0028F2
:102FF0007FF405AB3B9D56460CE4429E002E40F309
:1030000023820E9E189C1398A642A8BF26460E99AE
:10301000002E00EB010B0EDD3A9CAD19C9F8000043
:103020000134C9F80460072C3B953A94D8BF09F1E4
:10303000080900F31184189A26EAE676961B002EFA
:1030400040F3E983102E40F3E1843A9C2946DFF8EF
:103050009C82102722460C9D4446DDF8448003E004
:10306000103E102E40F3708101321031072AC9F84A
:103070000040C9F8047009F108093A9209F10803FF
:103080003B91EDDD4046294639AAD14602F0B0FB1E
:103090000AF1080300287FF4B2AA3B993A9ADFE7C5
:1030A000109339AB1393FFF744BB0DF1BC0B179989
:1030B0000BF1270004F00F02230943EA05734FEADE
:1030C000151C8A5C1C460346654601381A7054EA92
:1030D0000502EFD10BF1280B1393C3EB0B031093F5
:1030E000FFF727BB0A2C75F100017FD23034012293
:1030F0000DF1E30310928DF8E3401393FFF719BB32
:103100000E994F1E002FDCBF06F10809B3467FF76A
:1031100011AE102FD8BFDFF8D4812CDDDFF8CC81C1
:1031200023462A464FF0100944460C9DDDF84480A2
:1031300002E0103F102F1BDD01333460C6F804900D
:1031400010320836072B3A9306F1080B3B92F0DD5C
:103150004046294639AA0AF1080B02F049FB5646B7
:1031600000287FF44CAA103F3B9A102F3A9BE3DCD7
:10317000A04615461C460134C6F80080072C77602F
:103180003D443A943B957FF7D3ADF8E6022363E4E0
:10319000A04614460134C3F80080072C5E60354415
:1031A0003A943B957FF7A0ABD1E5129B129C1A682D
:1031B000012328E5119839AA0C9902F019FB00287F
:1031C0007FF41DAA3B9D0AF108063A9CD146B0E661
:1031D000119839AA0C9902F00BFB00287FF40FAA72
:1031E0003B9D0AF1080B3A9C5646B2E60DF1BC0B2A
:1031F000B1460BF12708204629460A22002303F096
:103200002FFE464620462946002308F1FF3802F1EA
:1032100030040A22347003F023FE04460D4654EABB
:103220000500E8D113960BF1280B13994E46C1EB1C
:103230000B011091FFF77DBA302A00F0338313930E
:103240000BF1280B1398C3EB0B043023109403707D
:10325000FFF76FBA644265EB45052D2354EA05007C
:103260008DF80F310CBF002201220123FFF72CBA89
:103270001A981B9902F074FA002840F07581149096
:103280004FF6CC434FF6C8421698C0F60102C0F67E
:1032900001034728D8BF13461393149B03240899AE
:1032A0000A9421F080019DF80F2108911094189341
:1032B000FFF749BA1378FFF728B91299CB1D23F00D
:1032C000070303F1080212921C681A945B681B93AF
:1032D000FFF777BB089B13F0400F00F02681129890
:1032E0000025048804301290FFF7DEBB70AF0108A0
:1032F000089B13F0400F00F011811298B0F90040C4
:1033000004301290E517FFF7D3B9089911F0100FA8
:1033100000F01281129A0F9C1368043212921C6002
:10332000FFF7AFB8089810F0400300F0FC81129B43
:103330000025129C19880434134612940A1E0C4668
:1033400018BF0122FFF788BBA0460D461446013482
:10335000C9F80080072CC9F8046035443A943B95BD
:1033600000F3AF82429A0E9CA2424ADB089810F00A
:10337000010F46D1139C189821180E9CC1EB0B0726
:10338000A21ABA42B8BF1746002F0ADD3A9CED19BF
:10339000196001345F60072C3B953A9400F3748206
:1033A000083327EAE776961B002E38DD102E40F30F
:1033B00004833A9C1027DFF8B4862246DDF830B04B
:1033C0004446DDF8448003E0103E102E7FF7E0AE67
:1033D00001321C605F6010350833072A3A9203F10E
:1033E00008093B95F0DD4046594639AA0AF108091B
:1033F00002F0FEF9534600287FF401A93B9D3A9A5A
:10340000E2E73A9C1C9901341998072C0D44596045
:1034100018603B953A9400F32B820833AAE799464B
:10342000FFF762BA06F108093A9CDFF84086FFF719
:103430003CBA119839AA0C9902F0DAF900287FF405
:10344000DEA83B9DD146AEE43A9C4FF6F843C0F669
:103450000103C9F8003001340123072CC9F80430F6
:103460001D443A943B95D8BF09F1080900F38C81BB
:1034700036B90E9B23B9089C14F0010F3FF434AA0F
:103480003A9C1C9801341999072C0544C9F804008A
:10349000C9F80010D8BF09F108093B953A9400F328
:1034A000AB817642002E40F39881102ED8BFDFF812
:1034B000BC8540F37A81DFF8B48523461027DDF818
:1034C00030B04446DDF8448003E0103E102E40F357
:1034D0006A8101331035072BC9F80040C9F8047020
:1034E00009F108093A933B95EFDD4046594639AA60
:1034F000D14602F07DF900287FF481A83B9D3A9BDC
:10350000E3E7109B002212940024149223EAE37351
:103510009DF80F210A931894FFF715B912990C68BA
:1035200004311291E517FFF7C3B8129900250C6812
:1035300004311291FFF7B8BA089810F0400F00F06C
:103540000C8112990F9A0B68043112911A80FEF7C0
:1035500098BF119839AA0C9902F04AF900287FF413
:103560004EA83B9D534638E4B7F1FF3F00F0518130
:10357000169CA4F1670EDEF1000343EB0E03472C0B
:1035800008BF43F0010313B1002F08BF01271B9BA5
:103590000898002B40F480700890C0F20182DDF89A
:1035A0006C9000221492169BA3F16604D4F1000BD8
:1035B0004BEB040B462B08BF4BF0010BBBF1000F8C
:1035C00040F0BB81452B02D0652B40F0E68107F12E
:1035D000010802231A9C42A9CDF82C9000930A946A
:1035E000DDE90A231198029141A9CDF804800391E5
:1035F00040A9049100F002FB169AB2F1670318BFCC
:103600000123472A0CBF002303F00103139023B9C1
:10361000089B13F0010F00F0E181139800EB080400
:10362000BBF1000F05D00378302B00F0E281429B04
:10363000E4181A98002200234946FDF7DFF9002814
:1036400000F08581234640941699139CA1F16700F0
:103650004242C4EB030342EB00020E93472914BF1E
:10366000134642F00103002B00F04881429B13F106
:10367000030F109302DB9F4280F274811698023888
:103680001690013B169A002B42938DF8F820C0F259
:10369000C3812B228DF8F920092B40F3868146F255
:1036A00067640DF1F600C6F2666484FB0321DA1745
:1036B0000546C2EBA10202EB8201A3EB41011346D6
:1036C0003031092A00F80119EFDC30336A1E05F8A1
:1036D000013C0DF1F7039A4280F0C4810DF1FA0329
:1036E00012F8011B03F8011B1946079C9442F7D8F6
:1036F0003EAB0E98CB1A0E9918181D930129109005
:1037000040F36E81109B0024189401331093149B96
:10371000002B40F00781109C9DF80F2124EAE474EF
:103720000A94FFF710B8129800250268043012902E
:103730001446003A18BF0122FFF78EB940211198B4
:10374000FDF746FA0C9908600861002800F08281B4
:103750000C9840234361FEF782BE129C0F982368A9
:10376000043412941860FEF78CBE119839AA0C9993
:1037700002F03EF800287EF442AF3B9D0DF1840933
:103780003A9CD346FFF7D6BA119839AA0C9902F0A1
:103790002FF800287EF433AF429ED1463B9D002E89
:1037A0007FF46EAE65E6A0461C460134C9F8008081
:1037B000072CC9F8046035443A943B95D8BF09F109
:1037C00008090ADD119839AA0C9902F011F80028AD
:1037D0007EF415AF3B9DD1463A9C01340E9B139A63
:1037E000072C1D44C9F80430C9F800203A943B95D1
:1037F0007FF778A8FFF7ABBA119839AA0C9901F0B6
:10380000F7FF00287EF4FBAE429ED1463B9D3A9CDA
:1038100047E60627BBE64B46A4E52D228DF80F218F
:10382000FFF7E1B8139800211491FEF7C1FC149B37
:103830001294189320EAE07210900A929DF80F21DA
:10384000FEF781BF4AF6607806F108033B9DC0F69B
:1038500001083A9CFEF7C2BF119839AA0C9901F0F1
:10386000C7FF00287EF4CBAE3B9DD146FFF7E3BBFC
:10387000119839AA0C9901F0BBFF00287EF4BFAE65
:10388000429A53463B9D75E5119839AA0C9901F06F
:10389000AFFF00287EF4B3AE429A53460E983B9D8C
:1038A000821A7EE5139B0BF1280BC3EB0B031093DD
:1038B000FEF73FBF4AF660783A9CC0F60108FFF772
:1038C0004BB8119839AA0C9901F092FF00287EF4A8
:1038D00096AE53463B9D45E5062F28BF06274CF67E
:1038E000600027EAE771C0F601001A4610970A91B6
:1038F0001294149318931390FEF725BF1699662916
:1039000040F08F80429B002B109340F398801FB9AA
:10391000089810F0010F02D05A1CD2191092189377
:103920001695F4E610982D2200218DF80F2120EA3B
:10393000E07014910A90FEF707BFB846032349E6EA
:1039400033463A9C0836DFF82481FFF7BEBA409B25
:103950009C427FF679AE302203F8012BA3424093BC
:10396000FAD171E60E9A93422EDB089C14F0010FF7
:103970003DD0581C67251090D1E727EAE7721490D4
:103980000A9212949DF80F2110971890FEF7DBBE53
:10399000002747EAE777FEF7B9BDB846022319E6E4
:1039A0002D2103F100491491FDE5303330223FA968
:1039B0008DF8FA208DF8FB309AE603F108093A9C5D
:1039C000DFF8A880FFF7E6BB002B0E99D4BFC3F148
:1039D00002020122521867251092A0E7409B33E6AD
:1039E000089A12F001037FF48DAE18938FE66725D5
:1039F00095E71A98002200234946FCF7FFFF0028AC
:103A00007FF415AEC8F10103429310E609F10803F3
:103A10003A9CDFF858809AE42D225B428DF8F92019
:103A20003AE6429B2DE6129807680430002FBFF655
:103A300043A913784FF0FF371290FEF766BD1FB908
:103A4000089911F0010F02D00237109767E70122A1
:103A5000109264E7119C4FF0FF320C230F92236009
:103A6000FEF7D6BD0DF1FA0142E600BF70AF0108C6
:103A7000704700BF704700BF00000000000000005A
:103A8000F8B50C46054611462046164603F088F860
:103A900031460746204603F0CDF9002C05DB00290E
:103AA0000BDB2F6028466960F8BD0029F9DD013F76
:103AB00089192F6028466960F8BD0137891B2F607E
:103AC00028466960F8BD00BF00000000000000004B
:103AD0002DE9F04F83B0036981460D6901919D4244
:103AE00000F38980EA1C01F1140400F11408013D7F
:103AF00092008B1882181F1D59685068013102F01E
:103B00000FFF064600283CD000204246234686464A
:103B100053F804CB11681FFA8CFB4FEA1C4C1FFAB8
:103B200081FA0BFB060BD6440CFB06F000EB1B40A6
:103B30001FFA8BFBCBEB0E0A1FFA80FE000CCEEBBC
:103B4000114E9F420EEB2A4E1FFA8AFC4CEA0E41A0
:103B50004FEA2E4E42F8041BDAD22A1D09EB8203EB
:103B6000596871B998450AD259F822203AB9043BEC
:103B700002E053F8042912B9013D9845F9D3C9F878
:103B800010504846019901F0D1FB00282FDB013687
:103B900043464FF0000C54F8040B19681FFA80FAE2
:103BA000000C8AB2C0EB1141CAEB0202A742944456
:103BB00001EB2C421FFA8CFC4CEA02414FEA224CEA
:103BC00043F8041BE7D22A1D09EB8203596871B937
:103BD00098450AD259F822203AB9043B02E053F83A
:103BE000042912B9013D9845F9D3C9F8105030465F
:103BF00003B0BDE8F08F0020FAE700BF2DE9F04FD9
:103C00009FB0456A0446904699462B9E002D00F0D1
:103C100090832B6853B16A680125194695409D60D1
:103C20005A6001F041F9636A00221A60B9F1000597
:103C3000C0F2D3800023336000231A46C7F6F07326
:103C4000C7F6F07205EA0303934200F0AF8000224A
:103C5000002340464946CDE902890126FCF7CEFE05
:103C600088B916F0FF0F12D12A9801232C9903600E
:103C70004FF6F840C0F6010011B17B4B581E0B60A7
:103C80001FB0BDE8F08F002616F0FF0FECD02046E5
:103C9000DDE902231CA900911DA9019101F05AFC44
:103CA000C5F30A568246002E00F0AC800398A6F5B4
:103CB0007E761D9F073E20F07F43002123F4700392
:103CC000169143F07E5343F4E00303930023DDE9B0
:103CD00002010022C3F6F873FCF76EFA5CA3D3E985
:103CE0000023FCF71DFC5CA3D3E90023FCF766FA74
:103CF000CDE902013046FCF7ADFB59A3D3E900231F
:103D0000FCF70EFC02460B46DDE90201FCF756FA11
:103D1000CDE90201FCF7A4FE002200230546DDE9FF
:103D20000201FCF775FE40B12846FCF793FBDDE984
:103D30000223FCF763FE00B9013D162D00F2558207
:103D40004BF2A0014246C0F601014B4601EBC50112
:103D5000D1E90001FCF77AFE002800F00083013D64
:103D600000201590013FBE1B00F1F48200200B964D
:103D70000D90002DC0F2E6820B9900221195491991
:103D80000F920B91289A092A70D8052A40F3908641
:103D90000027043A28922898831E032B00F20A84F5
:103DA000DFE813F00204EC03CC0305042A9842F286
:103DB0000F7303604FF60C50C0F60100B8F1000F0E
:103DC00011D02C9900293FF45BAFC278C31C0AB113
:103DD00000F108032C9A136052E725F000450123F7
:103DE000A946336028E74FF600524FF60C53C5F34F
:103DF0001300C0F60102C0F6010300280CBF1046F4
:103E00001846DEE71D9F1C9BFB1803F586639E1C6E
:103E1000202EDCBFC6F1200008FA00F007DDC6F155
:103E200040001E3B854028FA03F345EA03000122C7
:103E30001692FCF7FFFAA6F58666033E0B4602468D
:103E4000CDE90223039BA3F1F87303933EE700BF80
:103E500061436F63A787D23FB3C8608B288AC63F90
:103E6000FB799F501344D33FF9FC010800204FF029
:103E7000FF310746012228900E9110920A91299055
:103E8000666A002373602046716800F0D9FF636A98
:103E900030601B680C93002F00F0DE80002D404640
:103EA0004946CDE90889CDE9020140F32E844BF261
:103EB000A00305F00F02C0F601032E1103EBC203AD
:103EC00016F0100F08BF4FF00208D3E90001CDE94A
:103ED000120140F04782BEB14BF26817DDE91223B0
:103EE000C0F6010716F0010F1046194607D0D7E9B2
:103EF000002308F10108FCF713FB02460B460837C4
:103F00007610EFD1CDE91223DDE90801DDE91223B6
:103F1000FCF730FCCDE908011599002938D00023C1
:103F2000DDE908010022C3F6F0730126FCF770FDFD
:103F3000002800F001830A9A002AD4BF002606F068
:103F400001062EB30E9B002B40F38280002300223B
:103F5000C4F22403DDE90801FCF7E2FACDE9080127
:103F600008F10100691E1291FCF774FA02460B4633
:103F7000DDE90801FCF7D4FA00230022C4F21C0397
:103F8000FCF71CF9DDF838B08046A1F150793CE22D
:103F90004046FCF75FFADDE90823FCF7C1FA00238D
:103FA0000022C4F21C03FCF709F90A9AA1F1507629
:103FB0008046B146002A40F0258200230022C4F248
:103FC0001403DDE90801FCF7F7F842463346CDE972
:103FD0000801FCF73BFD002840F00F824246DDE976
:103FE000080106F10043FCF713FD002830D0DDF88E
:103FF00028B0CDF820B0299B00270C9EDD43594600
:10400000204600F051FF089971B13B1E18BF0123F3
:104010008F420CBF002303F00103002B40F05E83AE
:104020002046089900F040FF2046514600F03CFF32
:104030000023337001352A9A2C9B1560002B00F069
:1040400018841E600C981BE6189DDDF85CA0089C87
:10405000DDE90201804689461C9BDF43FF0F0E2DE0
:10406000CCBF002707F00107002F00F0C1804BF202
:10407000A0032999C0F601030A9A03EBC503CF0FE9
:10408000D3E90001002ACCBF002707F00107CDE9E2
:104090000201002F40F09E8102460B4640464946F1
:1040A000CDE90489FCF766FBFCF7DAFC0C9E81463F
:1040B000FCF7D0F9DDE90223FCF732FA02460B46A1
:1040C000DDE90401FCF778F809F13003CDE90401DA
:1040D00006F8013B0A9A012A56D000230022C4F2B6
:1040E00024034FF00108FCF71BFA00220023CDE95E
:1040F0000401FCF783FC00B1B84618F0FF0F93D021
:104100000A9937460C98A046079500EB010BCDF8AD
:1041100028A05D46DDE904AB0DE0FCF701FA0022C2
:10412000002382468B46FCF769FC00B1002414F0A2
:10413000FF0F00F00F84DDE90223504659460124A9
:10414000FCF718FBFCF78CFC8146FCF783F9DDE9F2
:10415000022309F13006FCF7E3F902460B4650460C
:104160005946FCF729F8002307F8016B0022AF42FB
:10417000C4F224033E4682468B46CED1CDE904AB41
:104180004446079DDDF828A0DDE9040102460B4600
:10419000FCF714F8CDE90401DDE90423DDE90201AF
:1041A000FCF736FC60B9DDE90201DDE90423FCF728
:1041B00025FC00283FF438AF19F0010F3FF434AF6D
:1041C00012950C98334613F8011C5A1E1E461346CE
:1041D000392940F0E1838342F5D10C983121129BBB
:1041E0005D1C3023037011701EE701211591B9E5A4
:1041F0001099002940F0C780109B0F9F0D9E0893D7
:10420000002E0B98D4BF002301230028D4BF002325
:1042100003F001034BB103460D99B342A8BF3346E7
:10422000F61AC91AC01A0D910B900F9A002A1ADDBE
:10423000109B002B00F09483002F10DD08993A4664
:10424000204600F0CBFF524608902046089900F027
:1042500031FF51468346204600F026FEDA460F988D
:10426000C21B40F084830121204600F019FF119900
:104270000029834605DD59462046119A00F0AEFF1D
:104280008346289A012A40F39E810027119900292C
:1042900040F0F28201230B9A9B1813F01F0300F0E9
:1042A0002282C3F12003042B40F3F683043B0D98D4
:1042B000F618D218C0180B920D900D9B002B05DD3F
:1042C000514620461A4600F0DBFF82460B98002834
:1042D00005DD594620460B9A00F0D2FF834615991A
:1042E000002940F0D38228990A9A0229D4BF0023DA
:1042F0000123002ACCBF002303F00103002B00F0B0
:104300007C81002A7FF477AE594605220A9B20461D
:1043100000F0E6FD83465046594601F007F80028B4
:104320007FF769AE0C9E31230135002706F8013B6B
:1043300065E61020FCF73CFC606245608560056026
:10434000C56073E40D9B684200210F905B1B1191C7
:104350000D9317E5764200230D960B9309E5002295
:104360001592FFE44BF268134046C0F6010349463C
:1043700006F00F064FF00308D3E90823FCF7FAF91B
:10438000CDE90801A7E5289A012A40F3F6820A99A7
:104390000F9A4B1E9A42A8BFC3EB02070A9ABFBFEF
:1043A0000F981199C0EB0303C918BEBFC018119133
:1043B0000F90002AC0F2F9820D9E0A9B0D9A2046AA
:1043C0000121D2180D920B9AD2180B9200F068FEC0
:1043D000089015E70A9B002B40F0D88200230022AA
:1043E000C4F21403DDE90201FCF79AF842464B4699
:1043F000FCF722FB00287FF4FAADDDF828B0CDF8F9
:1044000020B08FE7DDF828B01295109B002B00F04C
:10441000AF814BF2A0030021C0F60103002003EBA3
:10442000CB03C3F6E0710C9E53E90223FCF7A2F91B
:1044300042464B46FBF7C0FE80468946DDE908014F
:10444000FCF70EFB0746FCF705F802460B46DDE9D4
:104450000801FBF7B1FE07F13003CDE90801404642
:1044600006F8013B4946DDE90823FCF7EFFA00288E
:1044700040F0FC810021DDE908230020C3F6F07143
:10448000FBF79AFE02460B4640464946FCF7DEFA29
:1044900000287FF496AEBBF1010F7FF7D9AD0C98E1
:1044A000374618958344CDF85CA05D46DDE908AB3E
:1044B00008940FE000210020C3F6F071FBF77CFEAA
:1044C00042464B46FCF7A4FA002840F06A82AF420D
:1044D0003FF4BAAD00230022C4F22403404649460B
:1044E000FCF71EF800230022C4F22403804689460C
:1044F00050465946FCF714F88B468246FCF7B0FA52
:104500000446FBF7A7FF303402460B465046594697
:10451000FBF752FE42464B4607F8014B3E468246A9
:104520008B46FCF775FA52465B460028C2D0DDF890
:104530005CA0089C129D77E50026FCE40123109303
:1045400029990029C2BF8B460E910A9140F3B4818C
:10455000666A0022BBF1170F726040F2A182042349
:104560005B00013203F114015945F9D90A9B7260CD
:104570000E2B8CBF002707F0010784E40023109363
:10458000299828180E9000F1010BBBF1000FC8BF4D
:10459000CDF828B0DCDCBBF10E0F8CBF002707F094
:1045A0000107CDF828B06BE400201090C8E7012285
:1045B0001092E5E74FF0FF33002701200E93109093
:1045C0000A9329975CE4B8F1000F7FF45EAEC9F35B
:1045D00013034746002B7FF459AEC7F6F07309EA80
:1045E00003031F46002B3FF451AE0D9B01270B9890
:1045F00001330D9301300B9048E61098002800F02D
:104600006181002E05DD20460899324600F038FE13
:104610000890002F40F0ED81089802900A9908F068
:1046200001020C9E089F71180A920B910895594639
:104630005046FFF74DFA39464FF0010930300790E8
:10464000504600F073FE5946029A0546204600F097
:104650008BFEC3688046002B3AD02046414600F0CE
:1046600023FC289B59EA030303D10A98002800F091
:10467000F381002DC0F29D812898284303D10A9927
:10468000002900F09681B9F1000F00F3D281079A5A
:1046900006F8012BB0460B9B9E4200F0C6815146A6
:1046A0000A220023204600F01BFC82460298874223
:1046B00022D039460A220023204600F011FC02993C
:1046C0000A2200230746204600F00AFC0290AEE7CB
:1046D0005046414600F02AFE8146BEE72046394654
:1046E00000F0E2FB9CE41C230D99F6180B9AC91804
:1046F0000D91D2180B92E0E5394620460A2200239C
:1047000000F0EEFB0746029091E76E42002E00F0AB
:104710001D8106F00F034BF2A002C0F60102DDE995
:10472000080102EBC303D3E90023FBF7F9FE3611BE
:10473000CDE9080100F00A814BF268174FF002083A
:10474000C0F6010702460B4616F0010F1046194647
:1047500007D0D7E9002308F10108FBF7E1FE024684
:104760000B4608377610EFD1CDE90823FFF7D4BB0D
:104770000BF1FF32179217984BF2A001C0F601011E
:1047800042464B460C9E01EBC001D1E90001FBF70C
:10479000C7FECDE91801DDE90801FCF761F907461C
:1047A000FBF758FE0B460246DDE90801FBF704FD66
:1047B000BBF1010F07F13003CDE9080106F8013B19
:1047C0002BD00C991B9501F1FF390F46D944DDE937
:1047D0000801D3464D46B246264600230022C4F2C5
:1047E0002403FBF79DFE89468046FCF739F9044611
:1047F000FBF730FE303402460B4640464946FBF795
:10480000DBFC07F8014FAF42E7D1179A34461B9DF6
:104810005646B618DA46CDE9080100230022C3F651
:10482000E073DDE91801FBF7C9FC02460B46DDE940
:104830000801FCF70BF900287FF4C3AC0021DDE987
:1048400018230020C3F6E071FBF7B6FC02460B46C6
:10485000DDE90801FCF7DCF800283FF4F9AB33464A
:104860001E46013B16F8012C302AF9D0129DFFF7A5
:10487000DBBB0C98FFF704BADBF810300BEB8303BB
:10488000186900F0BBFBC0F1200304E5504659460F
:1048900000F04CFD0028BFF626AD51460A22204606
:1048A000002300F01DFB109A013D8246002A40F0D3
:1048B000E9800E980A9016E501220E920A9229923A
:1048C000FFF7DEBA0C9E0127DDF82890029502E082
:1048D00000F006FB824659465046FFF7F9F80A22D7
:1048E00000234F45514607F1010700F130052046EE
:1048F00006F8015BB046EBDB07950027029D5146A9
:104900000122204600F0BCFC5946824600F00EFD14
:1049100000280FDD0C9A464608F1FF3816F8013CD6
:10492000392B61D19045F6D10C98312301350370B4
:10493000FFF765BB03D1079A12F0010FEAD1464693
:1049400018F8013D302BFAD0FFF759BB4FF00208A1
:10495000FFF7E2BA079D4446DDF828A0FFF764BBE5
:10496000514620460F9A00F039FC82467BE45146BE
:10497000204600F033FC824675E4169800284ED09D
:1049800003F586630F9F03330D9E17E54FF0000B71
:10499000CDF820B0FFF72FBB0131129D1170FFF74A
:1049A00043BBDDF85CA0089C0BE40D9B9E1A002322
:1049B00004E5B9F1000F089D0FDD514601222046A4
:1049C00000F05EFC5946824600F0B0FC002853DD42
:1049D000079B392B39D00133079302980799089028
:1049E00006F8011BFFF70BBB013388F80030FFF717
:1049F00006BB089A2046516800F022FA089B03F192
:104A00000C011A690232920006460C30FCF7D8FB02
:104A100020463146012200F033FC0290FEE51D9B4A
:104A20000F9F0D9EC3F13603C8E40299089D0891BB
:104A300065E7079A089D392A07D0029907980891D7
:104A4000431C06F8013BFFF7DABA029BB046089315
:104A5000392308F8013B5DE707992B46089D392962
:104A6000F3D0002B01DD01310791029A079B0892D8
:104A700006F8013BFFF7C3BAAFD1079A12F0010F56
:104A8000ABD0A5E70023204608990A2200F028FAB7
:104A90000E9B0A93089026E43FF40FAC1C3323E6E8
:104AA0000A990E298CBF002707F00107FFF7EBB921
:104AB0000127FFF770B900BF0000000000000000F0
:104AC000F8B540F6F404C2F200040F460546FDF7BF
:104AD0009FF9A3685E6826F0030606F57E630F3330
:104AE000DF1B3F0B013F3F03B7F5805F07DB002172
:104AF00028460FF05DFBA3689B19984204D0284616
:104B0000FDF788F90020F8BD794228460FF050FBE8
:104B1000B0F1FF3F10D042F2A003A168C2F200033F
:104B2000F61B284646F001061A684E60D71B1F6028
:104B3000FDF770F90120F8BD002128460FF038FB81
:104B4000A368C21A0F2ADADD40F6FC4442F2A00143
:104B5000C2F20004C2F2000142F001025A6023686E
:104B6000C01A0860CBE700BF2DE9F0410D460446AE
:104B7000002958D0FDF74CF9A5F1080240F6F400E1
:104B80005668C2F2000026F00103D0F808C0D11820
:104B90008C454F6827F0030765D016F001064F607B
:104BA00031D00026CD196D6815F0010F06D1DB1943
:104BB000002E4BD08D68C968E9608D6043F001011B
:104BC000D3505160D6B9B3F5007F2ED3590A0429CA
:104BD0006BD89E093836F5004519A968A94203D15A
:104BE00069E089688D4204D0486820F00300834260
:104BF000F7D3CB68D3609160CA609A602046BDE865
:104C0000F041FDF707B955F8085C00F1080C521B9C
:104C10005B199568654546D0D2F80CC0C5F80CC044
:104C2000CCF80850BEE7BDE8F081DB0801254668F6
:104C300000EBC3019B1015FA03F3D1608D6846EABF
:104C4000030343609560EA608A60D7E78D682B4F65
:104C5000BD42B0D1EA6043F00101AA60D560956021
:104C60005160D350CAE716F0010F3B4407D155F805
:104C7000081C521A5B189568D168E9608D6040F68F
:104C8000005143F00105C2F20001556082600A68DC
:104C90009342B3D342F29C032046C2F20003196848
:104CA000FFF70EFFAAE701267CE714290CD801F1D3
:104CB0005B06F50090E701254768B6100B46B54046
:104CC00047EA0505456095E7542903D81E0B6E3663
:104CD000F50081E7B1F5AA7F03D8DE0B7736F50042
:104CE0007AE740F25455A94203D89E0C7C36F50071
:104CF00072E74FF47C757E266EE700BFFC0800204B
:104D000040F60850C2F20000704700BF00000000EB
:104D100010B514463AB14FF610511046C0F60101D5
:104D2000FDF7F6F820B94BF28840C0F6010010BD3F
:104D30004BF288412046C0F60101FDF7E9F820B9A1
:104D40004BF28840C0F6010010BD4DF25C51204688
:104D5000C0F60101FDF7DCF84BF28843C0F6010311
:104D600000280CBF1846002010BD00BF40F6485078
:104D7000C2F20000704700BF40F64853C2F2000381
:104D8000186A7047004870476C0D0020002070477B
:104D9000004870478C0D002040F600030A46C2F21E
:104DA000000301461868B3E7004870478C0D0020E7
:104DB00010F0030F034670B4C9B211D0002A22D0FC
:104DC00003788B421DD0013A013005E0DAB110F8CA
:104DD000014B013A8C4218D010F0030F0346F5D175
:104DE000032A14D87AB1187888420ED0541E5D1C5C
:104DF00003E015F8016B8E4203D0013C2846F8D23F
:104E0000002070BC70471046FBE71846F9E741EAFE
:104E1000012646EA0646184653F8044B86EA04047F
:104E2000A4F1013525EA040414F0803F03D1043ACB
:104E30001846032AEFD80346D4E700BF000000005D
:104E400070B50646446A0D465CB1E3689BB153F801
:104E50002500E0B1026843F8252000230361C36008
:104E600070BD1020FBF7A4FE00230446706243606F
:104E700083600360C36030460421212201F0B0FA50
:104E8000736AE060DB68002BE1D1184670BD012435
:104E900030462146AC40621D920001F0A1FA002884
:104EA000F4D045608460D8E730B50446456A83B0E5
:104EB00055B139B1636A4A68DB6853F8220008606B
:104EC00043F8221003B030BD10200191FBF770FEB3
:104ED00001996062456085600560C560E9E700BFD3
:104EE0002DE9F0410C4605460E6901F1140082B02F
:104EF0000021076801311FFA87FC3F0C0CFB0233CD
:104F000007FB02F707EB13471FFA83FC3B0C8E42AB
:104F10004FEA074808EB0C0740F8047BE9DC3BB19B
:104F2000A268964208DA04EB8602013626615361D4
:104F3000204602B0BDE8F081616828460193013146
:104F4000FFF77EFF226904F10C010232920007464E
:104F50000C30FCF735F9214628463C46FFF7A4FF04
:104F6000019BE0E72DE9F84348F639651F46C3F693
:104F7000E30508330E460446904685FB0315DB1710
:104F8000C3EB6503012B37DD012200215200013103
:104F90009342FBDC2046FFF753FF089B436101234C
:104FA000B8F1090F0146036122DD06F10909464403
:104FB0004D4615F8013B0A222046303BFFF790FF93
:104FC000B5420146F5D109EB0806083E47450CDD20
:104FD000F719C8EB070716F8013B0A222046303BB9
:104FE000FFF77EFFBE420146F5D10846BDE8F883D3
:104FF0000A364FF00908E9E70021CBE7020C034627
:1050000019D10304102013F07F4F01D108301B0287
:1050100013F0704F01D104301B0113F0404F01D148
:1050200002309B00002B05DB13F0804F01D00130D4
:105030007047202070470020E5E700BF0368024664
:1050400013F0070009D013F0010F21D113F0020F64
:1050500022D19B0802201360704799B209B91B0C3A
:10506000102013F0FF0F01D108301B0A13F00F0FAF
:1050700001D104301B0913F0030F01D102309B084A
:1050800013F0010F02D15B0804D0013013607047A8
:1050900000207047202070475B0801201360704794
:1050A00010B50C460121FFF7CBFE012244610261DD
:1050B00010BD00BF2DE9F04F90460F690D461669EF
:1050C00085B0B742BFBF45463A4637461646AB683D
:1050D000B8BF8846F41969689C42C8BF0131FFF720
:1050E000AFFE00EB840300F1140C143301909C45D7
:1050F000029306D202996346002243F8042B994298
:10510000FBD808EB860605EB870708F11408143670
:1051100014351437B04500954DD2039458F8044B1C
:10512000A0B2F0B1009A6346002452F8045B1968FB
:105130001FFA85FA2D0C1FFA81F9090C00FB0A9958
:1051400000FB0511A14401EB19411FFA89F90C0C70
:10515000974249EA014543F8045BE6D81C6058F8D9
:10516000044C240C21D0DCF800206046009BE14672
:1051700011460025B3F800A01FFA82FB0AFB045574
:1051800005EB11454BEA054240F8042B53F8042B7C
:1051900059F8041F120C1FFA81FA02FB04A202EB59
:1051A0001542150C9F42E5D80260464502D90CF124
:1051B000040CB3E7039C002C0ADD02990B1F51F885
:1051C000042C1AB104E053F8042D0AB9013CFAD1B9
:1051D000019A1046146105B0BDE8F08F12F0030388
:1051E0002DE9F04115460446884628D1AD101AD065
:1051F000666A002E2FD0B7682FB936E06D1012D036
:105200003E689EB1374615F0010FF7D041463A4649
:105210002046FFF74FFF414606462046FFF744FE73
:105220006D10B046ECD14046BDE8F08139463A46B3
:105230002046FFF73FFF386007460660E3E74BF282
:1052400090025E1EC0F60102002352F82620FFF7EE
:1052500047FE8046CAE71020FBF7AAFC002306465B
:105260006062436083600360C360204640F2712146
:10527000FFF716FF0023B06007460360C3E700BFD7
:105280002DE9F84356110D690C468B68904601359F
:105290008146AD1949689D4203DD5B0001319D42A5
:1052A000FBDC4846FFF7CCFD002E074600F1140258
:1052B0000ADD00231946013342F8041BB342FAD138
:1052C00007EB830303F11402266904F1140104EBD4
:1052D0008606143618F01F081AD0C8F1200E0020D8
:1052E0000B6803FA08F3184342F8040B51F8040B57
:1052F0008E4220FA0EF0F3D8106000B10135484616
:10530000013D21463D61FFF7CFFD3846BDE8F883FA
:1053100051F8043B8E4242F8043BF0D951F8043B6B
:105320008E4242F8043BF3D8E9E700BF03460A691E
:10533000006930B4801A0FD1043203F114059200D1
:105340009B1889180433043153F8044D51F8042D87
:10535000944203D19D42F7D330BC704738BF4FF021
:10536000FF30F9D30120F7E72DE9F84F89460446CD
:10537000114648469046FFF7D9FF051E64D0BCBFD2
:105380004B46C1462046B8BF9846D9F80410ACBF7A
:105390004FF0000A4FF0010AFFF752FDD9F81060F4
:1053A00009F11405D8F8103008F11407002409EBAE
:1053B000860909F1140983461430CBF80CA008EBD8
:1053C000830A0AF1140A55F8041B034657F8040B24
:1053D0002A461FFA81F81FFA80FC000CCCEB080C5F
:1053E000C0EB1140644400EB2440A4B244EA004105
:1053F0000414BA4543F8041B1846E4D8A9451F46CF
:1054000014D952F8041B88B2090C241801EB24416A
:10541000A4B244EA01400C14914543F8040BF0D8BF
:10542000EB434B4423F003030433FB1853F8042CE1
:10543000043B22B953F8042D013E002AFAD0CBF8E0
:1054400010605846BDE8F88F20462946FFF7F8FC63
:1054500001238346456103615846BDE8F88F00BFCC
:105460000023C7F6F07301EA0303A3F15073002B86
:1054700002DD1946002070475B421B15132B0DDD22
:10548000143B00211E2B02DD012318467047012228
:10549000C3F11F0312FA03F3184670474FF40022BA
:1054A000002052FA03F170472DE9F04100F1140693
:1054B00004690F46043450F8245000EB8404A046DD
:1054C0002846FFF79BFD0A28C0F120033B6015DC4E
:1054D000C0F10B0135FA01F7A64247F07E5747F4B9
:1054E000E00333D254F8044C34FA01F1153085400E
:1054F00041EA050210461946BDE8F081A64221D3D3
:1055000000210B3802BF45F07E550A4645F4E00302
:10551000F0D08540C0F1200745F07E55B44221FA15
:1055200007FC45F4E00545EA0C0311D954F8044C96
:1055300034FA07F711FA00F0194647EA000210465C
:10554000BDE8F081043C58F8041CDAE70021CDE7FF
:105550000027EFE72DE9F04383B001211D461446F3
:105560000A9F0B9EFFF76CFCC5F30A5925F07F4399
:1055700023F4700300938046B9F1000F02D043F486
:1055800080130093002C25D002A840F8044DFFF7AB
:1055900055FD002836D1019A009BC8F81420002B35
:1055A0000CBF01240224C8F81830C8F81040B9F123
:1055B000000F1DD108EB8403A0F586600238386027
:1055C00018696401FFF71AFD241A3460404603B0DD
:1055D000BDE8F0836846FFF731FD01231C46C8F89B
:1055E0001030009BC8F814302030B9F1000FE1D022
:1055F000A9F58669C0F13503A9F10309484438606B
:105600003360E3E7009BC0F12002019913FA02F234
:10561000C3400A430093C8F81420C0E72DE9F041C5
:1056200082B0884601A90646FFF73EFF0D460446B4
:1056300069464046FFF738FFD8F810E0D6F810C0AA
:10564000DDF80480CEEB0C0CDDF800E04FEA4C1CDA
:10565000CEEB080EE644BEF1000F4FEA0E5EC4BF6B
:105660000EEB05073D460B46D8BFCEEB01010246C7
:10567000DCBF0B46024629462046FBF77BF802B00A
:10568000BDE8F081172810B504460CDD002100208C
:10569000C3F6F07100230022C4F22403FAF740FF9E
:1056A000013CF7D110BD4BF29003C0F6010303EBB0
:1056B000C003D3E9040110BD70B40139166902F1C9
:1056C00014034911013102EB8606143600EB810107
:1056D000B3420CD2044653F8045B9E4244F8045B88
:1056E000F9D8B31A153B23F003030433C0188142E1
:1056F00004D9002340F8043B8142FBD870BC7047BA
:1057000002694B1110B49A4211DB0FDD11F01F0139
:105710000CD01A4600EB83035B6933FA01F414FAE8
:1057200001F1994203D0012010BC70471A4604329F
:1057300000F1140100EB82031C1DA1420BD250F8B2
:105740002220002AEFD1994205D253F8042D002AD5
:10575000E9D19942F9D30020E6E700BF000000003C
:1057600050EA010310B43CD0D0F1010238BF00224E
:10577000B1F1004F14BF002302F00103002B30D120
:105780004FF6FF73A1F58010C7F6DF7301F1FE44F9
:10579000984204F570048CBF002001209C428CBF0D
:1057A000034640F00103002B20D1B1F5801F01F129
:1057B00000402CBF00230123B0F5801F38BF43F009
:1057C00001038BB911F5801FC7F6F07314BF0020D9
:1057D0000120994214BF014640F0010102EA010094
:1057E00000E0022010BC70470320FBE70420F9E72B
:1057F0002DE9F04F83B091460D46019090681768EF
:10580000002877D04FF0000A08688B685446002CB7
:105810004CD09C421E4698463CBF2646A04635D3F7
:10582000AB8913F4906F31D06A6904F1010E2969D4
:1058300002EB420B461A0EEB06000BEBDB7B4FEA4A
:105840006B0B83455A463CBF8346024613F4806F78
:1058500031D001981146FBF7BBF98046002834D0BF
:1058600029693246FBF7ACFCAB8923F4906343F023
:105870008003AB8108EB0600C6EB0B03C5F8108074
:105880002646A0462860C5F814B0AB604246514693
:1058900000F0D6FDD9F80820AB682868141B9B1BC4
:1058A000AB6040442860C9F80840ECB1D7F800A0CC
:1058B0007C680837ABE7019800F022FE804600289C
:1058C000D8D101982969FFF74FF9019A0C234FF0BD
:1058D000FF3013600023AA8942F04002AA81C9F870
:1058E0000830C9F8043002E02046C9F8044003B08B
:1058F000BDE8F08F5060FAE72DE9F04FABB0894674
:10590000834606938B8913F0800F03D00B69002B1D
:1059100000F01585174600230CAE089305932696D4
:10592000289327933B78B3F1250218BF0122002B5F
:105930000CBF002302F00103002B00F060837A1CEF
:10594000144601322378191E18BF0121252B0CBFE4
:10595000002301F00103002BF2D1E51B0ED0279BA1
:10596000289A01333760072B75602A4427932892C1
:1059700000F3BC8308360599491905912378002B5B
:1059800000F03F83002200230492671C8DF8A730AB
:105990004FF0FF38637892464FF0200C2B240137EC
:1059A000A3F12002582A00F24E82DFE812F05A02D8
:1059B0004C024C02FB014C024C024C024C024C02C9
:1059C0004C02FE0014024C020A0118024C021002A2
:1059D000FF01FF01FF01FF01FF01FF01FF01FF01C7
:1059E000FF014C024C024C024C024C024C024C0295
:1059F0004C024C024C02C7004C024C024C024C02BE
:105A00004C024C024C024C024C024C02BD004C02B7
:105A10004C024C024C024C0259004C024C026D01EB
:105A20004C024C024C024C024C024C024C024C0206
:105A30004C024C029201C9004C024C024C0269011A
:105A4000C9004C024C025F014C024C01BF00340102
:105A500030014C020E014C025B004C024C0235023C
:105A60004AF0100A1AF0200F00F0BF83069BDA1DDF
:105A7000012322F0070202F108050695D2E900454C
:105A800054EA05000CBF0022012200218DF8A71066
:105A9000B8F1000FA8BF2AF0800AB8F1000F18BFB4
:105AA00042F00102002A70D0012B00F04883022B43
:105AB00000F06F831CAAB44602F1270302920397F9
:105AC000EA08E70847EA457704F00704114604F1BD
:105AD00030020D463C461E461A70013B54EA050052
