:020000040800F2
:1000000000040020911500089116000891160008C0
:100010009116000891160008911600089116000824
:10002000911600089116000891160008C1160008E4
:100030009116000891160008911600089117000803
:1000400091160008911600089116000891160008F4
:1000500091160008911600089116000891160008E4
:10006000911600089116000891160008817D00087D
:10007000B17D0008E17D0008117E0008417E000886
:10008000717E0008A17E0008C1840008A1870008D5
:10009000F187000861880008D188000891160008DF
:1000A0009116000871A200089116000881A20008AC
:1000B000F1A000089116000841A4000871940008FE
:1000C0008195000891160008911600089116000805
:1000D0009116000891A70008B1A70008D1A7000851
:1000E0009116000891160008911600089116000854
:1000F000911600089116000891160008D17E00089C
:1001000091160008118C000861A4000891160008DF
:100110009116000891160008911600089116000823
:10012000017F0008317F0008617F0008917F00088F
:10013000C17F00089116000891160008911600086A
:10014000911600089116000891160008D19C00082D
:10015000F17F0008218000085180000891160008F6
:1001600091160008911600089116000891160008D3
:1001700091160008911600089116000891160008C3
:1001800091160008911600089116000891160008B3
:1001900091160008911600089116000891160008A3
:0C01A00091160008911600089116000846
:1001C00000B583B006F0A4FD01F052FB1E4B4FF4C6
:1001D00000421A830DF0CCFC00240EF051F80DF013
:1001E000C7FA0DF00DFB0FF013FA13F0A9FD0FF095
:1001F000BFFF10F035FC10F05BFF11F069FB4FF40E
:100200007A7001F0EDFD13F043FA13F0B1FD14F034
:1002100097F914F06DFA14F0D3FB0C4B00944FF4E3
:10022000347140220A4801F05BFD009409480A4BF2
:100230004FF4A871402201F053FD0DF0B1FA4FF4D4
:100240007A7001F0CDFDF8E700100240B1D300084C
:10025000C03600207035002061D300080000000087
:1002600081F0004102E000BF83F0004330B54FEA67
:1002700041044FEA430594EA050F08BF90EA020FD4
:100280001FBF54EA000C55EA020C7FEA645C7FEA67
:10029000655C00F0E2804FEA5454D4EB5555B8BF8A
:1002A0006D420CDD2C4480EA020281EA030382EAFB
:1002B000000083EA010180EA020281EA0303362D8D
:1002C00088BF30BD11F0004F4FEA01314FF4801C60
:1002D0004CEA113102D0404261EB410113F0004F72
:1002E0004FEA03334CEA133302D0524263EB430329
:1002F00094EA050F00F0A780A4F10104D5F1200EC7
:100300000DDB02FA0EFC22FA05F2801841F1000121
:1003100003FA0EF2801843FA05F359410EE0A5F1F5
:1003200020050EF1200E012A03FA0EFC28BF4CF026
:10033000020C43FA05F3C01851EBE37101F00045DC
:1003400007D54FF0000EDCF1000C7EEB00006EEBE9
:100350000101B1F5801F1BD3B1F5001F0CD3490873
:100360005FEA30004FEA3C0C04F101044FEA4452CA
:1003700012F5800F80F09A80BCF1004F08BF5FEA51
:10038000500C50F1000041EB045141EA050130BD31
:100390005FEA4C0C404141EB010111F4801FA4F1D4
:1003A0000104E9D191F0000F04BF01460020B1FA29
:1003B00081F308BF2033A3F10B03B3F120020CDA61
:1003C0000C3208DD02F1140CC2F10C0201FA0CF03F
:1003D00021FA02F10CE002F11402D8BFC2F1200CA4
:1003E00001FA02F120FA0CFCDCBF41EA0C0190405A
:1003F000E41AA2BF01EB0451294330BD6FEA0404A3
:100400001F3C1CDA0C340EDC04F11404C4F120028D
:1004100020FA04F001FA02F340EA030021FA04F39F
:1004200045EA030130BDC4F10C04C4F1200220FAF6
:1004300002F001FA04F340EA0300294630BD21FA34
:1004400004F0294630BD94F0000F83F4801306BFFA
:1004500081F480110134013D4EE77FEA645C18BFEE
:100460007FEA655C29D094EA050F08BF90EA020F85
:1004700005D054EA000C04BF1946104630BD91EA7D
:10048000030F1EBF0021002030BD5FEA545C05D180
:100490004000494128BF41F0004130BD14F58004BF
:1004A0003CBF01F5801130BD01F0004545F0FE4133
:1004B00041F470014FF0000030BD7FEA645C1ABF68
:1004C000194610467FEA655C1CBF0B46024650EA9F
:1004D000013406BF52EA033591EA030F41F40021CB
:1004E00030BD00BF90F0000F04BF0021704730B551
:1004F0004FF4806404F132044FF000054FF0000126
:1005000050E700BF90F0000F04BF0021704730B5E6
:100510004FF4806404F1320410F0004548BF4042BB
:100520004FF000013EE700BF42004FEAE2014FEA10
:1005300031014FEA02701FBF12F07F4393F07F4FEB
:1005400081F06051704792F0000F14BF93F07F4F1D
:10055000704730B54FF4607401F0004521F0004160
:1005600020E700BF50EA010208BF704730B54FF0E6
:1005700000050AE050EA010208BF704730B511F0EB
:10058000004502D5404261EB41014FF4806404F123
:1005900032045FEA915C3FF4DCAE4FF003025FEAA5
:1005A000DC0C18BF03325FEADC0C18BF033202EB2D
:1005B000DC02C2F1200300FA03FC20FA02F001FA87
:1005C00003FE40EA0E0021FA02F11444C1E600BF26
:1005D00070B54FF0FF0C4CF4E06C1CEA11541DBFD9
:1005E0001CEA135594EA0C0F95EA0C0F00F0DEF8A4
:1005F0002C4481EA030621EA4C5123EA4C5350EA89
:10060000013518BF52EA033541F4801143F48013D9
:1006100038D0A0FB02CE4FF00005E1FB02E506F06A
:100620000042E0FB03E54FF00006E1FB03569CF0BF
:10063000000F18BF4EF0010EA4F1FF04B6F5007FC5
:1006400064F5407404D25FEA4E0E6D4146EB060637
:1006500042EAC62141EA55514FEAC52040EA5E50C0
:100660004FEACE2EB4F1FD0C88BFBCF5E06F1ED86A
:10067000BEF1004F08BF5FEA500E50F1000041EBA1
:10068000045170BD06F0004646EA010140EA02004E
:1006900081EA0301B4EB5C04C2BFD4EB0C0541EA70
:1006A000045170BD41F480114FF0000E013C00F385
:1006B000AB8014F1360FDEBF002001F0004170BDA9
:1006C000C4F10004203C35DA0C341BDC04F11404C2
:1006D000C4F1200500FA05F320FA04F001FA05F24E
:1006E00040EA020001F0004221F0004110EBD3701B
:1006F00021FA04F642EB06015EEA430E08BF20EA47
:10070000D37070BDC4F10C04C4F1200500FA04F3E9
:1007100020FA05F001FA04F240EA020001F000417B
:1007200010EBD37041F100015EEA430E08BF20EAEE
:10073000D37070BDC4F1200500FA05F24EEA020E36
:1007400020FA04F301FA05F243EA020321FA04F065
:1007500001F0004121FA04F220EA020000EBD3701C
:100760005EEA430E08BF20EAD37070BD94F0000F1C
:100770000FD101F00046400041EB010111F4801F50
:1007800008BF013CF7D041EA060195F0000F18BF01
:10079000704703F00046520043EB030313F4801F3D
:1007A00008BF013DF7D043EA0603704794EA0C0FF7
:1007B0000CEA135518BF95EA0C0F0CD050EA41060D
:1007C00018BF52EA4306D1D181EA030101F000418A
:1007D0004FF0000070BD50EA410606BF10461946B2
:1007E00052EA430619D094EA0C0F02D150EA0136BE
:1007F00013D195EA0C0F05D152EA03361CBF1046FF
:1008000019460AD181EA030101F0004141F0FE419D
:1008100041F470014FF0000070BD41F0FE4141F421
:10082000780170BD70B54FF0FF0C4CF4E06C1CEA21
:1008300011541DBF1CEA135594EA0C0F95EA0C0FD6
:1008400000F0A7F8A4EB050481EA030E52EA033591
:100850004FEA013100F088804FEA03334FF08055B2
:1008600045EA131343EA12634FEA022245EA1115DF
:1008700045EA10654FEA00260EF000419D4208BF90
:10088000964244F1FD0404F5407402D25B084FEA3D
:100890003202B61A65EB03055B084FEA32024FF4E9
:1008A00080104FF4002CB6EB020E75EB030E22BF46
:1008B000B61A754640EA0C005B084FEA3202B6EB06
:1008C000020E75EB030E22BFB61A754640EA5C00B5
:1008D0005B084FEA3202B6EB020E75EB030E22BF45
:1008E000B61A754640EA9C005B084FEA3202B6EB46
:1008F000020E75EB030E22BFB61A754640EADC0005
:1009000055EA060E18D04FEA051545EA16754FEA66
:1009100006164FEAC30343EA52734FEAC2025FEA84
:100920001C1CC0D111F4801F0BD141EA00014FF013
:1009300000004FF0004CB6E711F4801F04BF0143E4
:100940000020B4F1FD0C88BFBCF5E06F3FF6AFAE00
:10095000B5EB030C04BFB6EB020C5FEA500C50F190
:10096000000041EB045170BD0EF0004E4EEA113113
:1009700014EB5C04C2BFD4EB0C0541EA045170BD1A
:1009800041F480114FF0000E013C90E645EA060E5E
:100990008DE60CEA135594EA0C0F08BF95EA0C0F8C
:1009A0003FF43BAF94EA0C0F0AD150EA01347FF4D4
:1009B00034AF95EA0C0F7FF425AF104619462CE7AB
:1009C00095EA0C0F06D152EA03353FF4FDAE10460E
:1009D000194622E750EA410618BF52EA43067FF45F
:1009E000C5AE50EA41047FF40DAF52EA43057FF4EF
:1009F000EBAE12E700000000000000000000000065
:100A00004FF0FF3C06E000BF4FF0010C02E000BFDA
:100A10004FF0010C4DF804CD4FEA410C7FEA6C5CBD
:100A20004FEA430C18BF7FEA6C5C1BD001B050EA60
:100A3000410C0CBF52EA430C91EA030F02BF90EA4B
:100A4000020F0020704710F1000F91EA030F58BF0A
:100A5000994208BF90422CBFD8176FEAE37040F06C
:100A6000010070474FEA410C7FEA6C5C02D150EA0A
:100A7000013C07D14FEA430C7FEA6C5CD6D152EAC5
:100A8000033CD3D05DF8040B704700BF844610468A
:100A900062468C461946634600E000BF01B5FFF789
:100AA000B7FF002848BF10F1000F01BD4DF808ED59
:100AB000FFF7F4FF0CBF012000205DF808FB00BF2A
:100AC0004DF808EDFFF7EAFF34BF012000205DF884
:100AD00008FB00BF4DF808EDFFF7E0FF94BF0120D1
:100AE00000205DF808FB00BF4DF808EDFFF7CEFFD2
:100AF00094BF012000205DF808FB00BF4DF808ED11
:100B0000FFF7C4FF34BF012000205DF808FB00BFE1
:100B10004FEA410212F5001215D211D56FF4787325
:100B2000B3EB625212D94FEAC12343F0004343EAC8
:100B3000505311F0004F23FA02F018BF40427047A3
:100B40004FF00000704750EA013005D111F000402D
:100B500008BF6FF0004070474FF00000704700BFC3
:100B60004A0011D212F5001211D20DD56FF478732C
:100B7000B3EB62520ED44FEAC12343F0004343EA81
:100B8000505323FA02F070474FF00000704750EACC
:100B9000013002D14FF0FF3070474FF00000704736
:100BA000844641EA000313F003036DD1403A41D378
:100BB00051F8043B40F8043B51F8043B40F8043B37
:100BC00051F8043B40F8043B51F8043B40F8043B27
:100BD00051F8043B40F8043B51F8043B40F8043B17
:100BE00051F8043B40F8043B51F8043B40F8043B07
:100BF00051F8043B40F8043B51F8043B40F8043BF7
:100C000051F8043B40F8043B51F8043B40F8043BE6
:100C100051F8043B40F8043B51F8043B40F8043BD6
:100C200051F8043B40F8043B51F8043B40F8043BC6
:100C3000403ABDD2303211D351F8043B40F8043B66
:100C400051F8043B40F8043B51F8043B40F8043BA6
:100C500051F8043B40F8043B103AEDD20C3205D376
:100C600051F8043B40F8043B043AF9D2043208D06E
:100C7000D2071CBF11F8013B00F8013B01D30B88E0
:100C800003806046704700BF082A13D38B078DD0BE
:100C900010F003038AD0C3F10403D21ADB071CBF90
:100CA00011F8013B00F8013B80D331F8023B20F8FA
:100CB000023B7BE7043AD9D3013A11F8013B00F833
:100CC000013BF9D20B7803704B7843708B788370BB
:100CD00060467047000000000000000000000000B7
:100CE000A2EB0300704700BF02780B78012A28BFEF
:100CF0009A42F5D16DE9044540EA0104CDE9026765
:100D00006FF0000C4FEA447212B380EA010414F051
:100D1000070F6AD100F0070420F0070004F0030574
:100D200021F007014FEAC505F0E8042314F0040F91
:100D3000F1E804670CFA05F462EA040266EA0406C4
:100D40000AD063EA0403624667EA0407664603E0E2
:100D5000F0E80423F1E8046782FA4CF582EA06041D
:100D6000A4FA8CF46CBB83FA4CF583EA0705A5FA68
:100D70008CF595B950E9022351E9026782FA4CF5E6
:100D800082EA0604A4FA8CF483FA4CF583EA070598
:100D9000A5FA8CF52543DBD09CB92DBAB5FA85F4BC
:100DA00024F0070427FA04F1DDE9026723FA04F3CB
:100DB00003F0FF0001F0FF01FDE80445A0EB010096
:100DC000704724BAB4FA84F424F0070426FA04F134
:100DD000DDE9026722FA04F202F0FF0001F0FF01F0
:100DE000FDE80445A0EB0100704714F0030F3CD16F
:100DF00010F0030428D150F8082B51F8083B82FA70
:100E00004CF582EA0305A5FA8CF55DB950F8042C7F
:100E100051F8043C82FA4CF582EA0305A5FA8CF5F8
:100E2000002DE8D02DBAB5FA85F424F0070423FA92
:100E300004F122FA04F202F0FF0001F0FF01FDE8E4
:100E40000445A0EB010070474FEAC40420F0030002
:100E500050F8082B21F0030151F8083B0CFA04F478
:100E600062EA040263EA0403C9E710F003041AD03B
:100E7000A1EB040120F00300E40750F8042B06D096
:100E80000FD28B785FFAA2F4E41A06D12BB1CB789B
:100E90005FFAB2F4E41A00D11BB920465DF8104B9A
:100EA000704701F1040150F8042BCC0721F0030135
:100EB00051F8043B48D824D222F07F4482FA4CF502
:100EC00094EA1325A5FA8CF50AD165B951F8043BCB
:100ED00084EA0204B4EB036F0ED150F8042BEBE765
:100EE0004FEA132355E035F07F454DD10878FDE8F2
:100EF0000445C0F1000070474FEA126203F0FF039F
:100F000047E002EA1C4482FA4CF594EA1345A5FA3C
:100F10008CF50AD165B951F8043B84EA0204B4EBBC
:100F2000034F0CD150F8042BEBE74FEA134330E0AA
:100F300015EA1C4528D10B884FEA124229E04FEAF6
:100F4000124203EA1C4324E002F0FF0482FA4CF54B
:100F500094EA1365A5FA8CF50AD165B951F8043BFA
:100F600084EA0204B4EB032F09D150F8042BEBE719
:100F70004FEA13630DE015F0FF0F05D10B684FEA40
:100F8000122223F07F4304E04FF00000FDE8044507
:100F9000704712BA1BBA82FA4CF482EA0304A4FA2C
:100FA0008CF5B5FA85F402FA04F203FA04F34FEA79
:100FB0001260FDE80445A0EB1360704700000000DC
:100FC00053B94AB9002908BF00281CBF4FF0FF31B0
:100FD0004FF0FF3000F03CB882B0EC462DE90050F5
:100FE00000F01EF8DDF804E002B00CBC704700BF52
:100FF0002DE9F041069C154606460F46984600F03E
:101000002FF805FB01F300FB0838A5FB0023B21AFB
:10101000434467EB0303C4E90023BDE8F08100BF4C
:101020002DE9F041069C904606460F461D4600F00D
:1010300067F900FB05F5A0FB082308FB0155B21A70
:101040002B4467EB0303C4E90023BDE8F08100BF34
:10105000704700BF0000000000000000000000001A
:1010600000292DE9F043C0F2A6800026002BC0F233
:101070009C80884694469E46154604460F46002BA3
:101080003DD18A4259D9B2FA82F33BB1C3F1200271
:101090009F4020FA02F29D4017439C40290C220CED
:1010A000B7FBF1FEA8B201FB1E7742EA074700FB3F
:1010B0000EF3BB420AD97F190EF1FF3280F0058191
:1010C000BB4240F20281AEF1020E2F44FF1AA4B2DD
:1010D000B7FBF1F301FB137744EA074700FB03F08A
:1010E000B84208D97F1903F1FF3280F0F080B8428E
:1010F00040F2ED80023B43EA0E43002203E08B42C4
:101100000FD900221346341C18BF012460424FF04F
:10111000000565EB45015840514000196941BDE8A3
:10112000F083B3FA83F2002A40F086808B4202D328
:10113000844500F2DB800123E5E712B90123B3FB0C
:10114000F2F5B5FA85F000283BD1781B4FEA154E31
:101150001FFA85FC0122B0FBFEF8210C0EFB1807DC
:1011600041EA07470CFB08F3BB4207D97F1908F196
:10117000FF3102D2BB4200F2BD808846FF1AA4B202
:10118000B7FBFEF30EFB137744EA07470CFB03FCA7
:10119000BC4507D97F1903F1FF3102D2BC4500F2EB
:1011A000A7800B4643EA0843ADE752426FEA0606C2
:1011B00063EB43035DE7404261EB41014FF0FF36D3
:1011C00054E7C0F1200224FA02F107FA00F3854047
:1011D0004FEA154ED7401943B7FBFEF20B0C0EFB3E
:1011E00012771FFA85FC43EA07430CFB02F79F4284
:1011F00004FA00F407D95B1902F1FF3074D29F4260
:1012000072D9023A2B44DF1B89B2B7FBFEF80EFB02
:10121000187341EA03430CFB08F79F4208D95B1996
:1012200008F1FF315CD29F425AD9A8F102082B4441
:10123000D81B48EA02428EE7C2F120032CFA03F1E0
:101240000EFA02FE20FA03F741EA0E0E08FA02F047
:1012500028FA03F14FEA1E453843B1FBF5F8030CB9
:1012600005FB18111FFA8EF743EA014107FB08F34B
:101270008B420CFA02FC09D911EB0E0108F1FF397F
:1012800030D28B422ED9A8F102087144C91A80B21B
:10129000B1FBF5F305FB131140EA014107FB03F72E
:1012A0008F4208D911EB0E0103F1FF3016D28F42A5
:1012B00014D9023B714443EA0843C91BA3FB0C89C0
:1012C000494509D305D000221DE79646FEE61346A0
:1012D00011E794404445F6D2013BF4E70346EAE7C0
:1012E0008846A5E7C846D1E702468CE713460AE7D9
:1012F000023B57E7A8F102082F443FE70000000037
:101300002DE9F041002B44D18A42154604464FD9BD
:10131000B2FA82F70E464FB1C7F12003B94020FA66
:1013200003F602FA07F50E4300FA07F44FEA154EEA
:10133000230CB6FBFEF0AFB20EFB106143EA014393
:1013400007FB00F1994209D95B1900F1FF3280F0E7
:10135000EC80994240F2E98002382B445A1AA4B238
:10136000B2FBFEF30EFB132244EA024207FB03F733
:10137000974208D9521903F1FF3180F0D880974283
:1013800040F2D580023B43EA004000263146BDE8EA
:10139000F0818B4247D8B3FA83F6002E48D18B42B6
:1013A00002D3824200F2CD8001203146BDE8F081B7
:1013B00012B90125B5FBF2F5B5FA85F8B8F1000FC1
:1013C00077D14A1B4FEA154EAFB20126B2FBFEF0B1
:1013D000230C0EFB102143EA014107FB00F38B4273
:1013E00007D9491900F1FF3202D28B4200F2BA80CC
:1013F0001046C91AA4B2B1FBFEF30EFB131144EA66
:10140000014407FB03F7A74208D9641903F1FF322F
:1014100080F08F80A74240F28C80023B43EA00407C
:101420003146BDE8F081002630463146BDE8F08106
:10143000C6F1200422FA04F5B3402B4320FA04FC41
:1014400001FA06F721FA04F54FEA134E4CEA0707B2
:10145000B5FBFEF8390C0EFB18551FFA83FC41EA68
:1014600005450CFB08F1A94202FA06F204D9ED1871
:1014700008F1FF3467D3A0466D1ABFB2B5FBFEF486
:101480000EFB145547EA05410CFB04FC8C4504D9BE
:10149000C91804F1FF355CD32C4644EA0844CCEB70
:1014A0000101A4FB0223994248D344D020460026E0
:1014B0006CE7C8F1200401FA08F305FA08F520FAF0
:1014C00004F7E1404FEA154E1F43B1FBFEF63A0C1C
:1014D0000EFB16111FFA85FC42EA01430CFB06F2D3
:1014E0009A4200FA08F407D95B1906F1FF3137D2A6
:1014F0009A4235D9023E2B449B1ABFB2B3FBFEF091
:101500000EFB103347EA03430CFB00F1994207D965
:101510005B1900F1FF3221D299421FD902382B44C6
:101520005A1A40EA0646674650E7104616E70B4649
:1015300029E7134672E7B0409042B7D2601E0026FA
:1015400024E7304622E7A94295D9A8F102081D44B4
:1015500092E78C45A0D9023C19449EE71046DFE78C
:101560000E46C9E70238294443E700BF00000000E7
:10157000704700BF000000000000000000000000F5
:10158000FEE700BF000000000000000000000000B7
:1015900072B6314880F30988022383F31488BFF3BD
:1015A0006F8F2E4B2E4A93420BD2D9430A4422F01E
:1015B000030204321A444FF0553143F8041B93429E
:1015C000FBD1284B83420CD2274A191D521A22F014
:1015D000030204321A444FF0553143F8041B93427E
:1015E000FBD109F0A5F9214A214B9A420CD2D043F4
:1015F000184420F003001F4B0430184453F8041B18
:1016000042F8041B8342F9D11B4B1C4A93420AD275
:10161000D9430A4422F0030204321A44002143F859
:10162000041B9342FBD1164D164CFFF7A1FFAC42B1
:1016300004D254F8043B9847AC42FAD3124D134CF1
:10164000FEF7BEFDAC4204D254F8043B9847AC42CE
:10165000FAD3FFF795FF00BF00080020000000202C
:1016600000040020000400200308002000080020DF
:10167000CC240020C00F0208CC240020E0890020E8
:10168000AC010008AC010008AC010008AC01000886
:10169000FEE700BF000000000000000000000000A6
:1016A00072B6FEE70000000000000000000000002D
:1016B00000F0A6FA00DF00BF0000000000000000FC
:1016C000EFF30983203383F30988002383F3118820
:1016D000704700BF00000000000000000000000094
:1016E00008B5094B094A002199600720DA601021EA
:1016F00000F096F80A20202100F092F80B208021BB
:10170000BDE8084000F08CB800ED00E00003FA05E9
:10171000202383F31188174B5B6813F4006319D0FF
:10172000EFF309834FF0807243F8042CA3F12002F9
:1017300082F3098810498A69D07F70B1086891687E
:1017400082688A4294BF002201227AB10B4A43F890
:10175000082C704783F31188704708689168826885
:101760008A4234BF00220122002AEFD1044A43F802
:10177000082C704700ED00E008260020B116000894
:10178000B416000800000000000000000000000087
:1017900008B5202383F3118800F09AF8002383F31F
:1017A0001188BDE80840FFF7B3BF00BF000000008C
:1017B0002DE9F04FC1F80CD0D0F80CD0BDE8F08F77
:1017C000002383F311882846A04700F069FB704787
:1017D00020F0030202F1604202F5614270B4430955
:1017E00000F00304D2F80053E400FF269B00A6405B
:1017F00003F16043A14025EA060503F56143012496
:1018000000F01F0004FA00F02943C2F8001370BC76
:10181000C3F880011860704700000000000000005D
:1018200020F0030303F1604303F56D4300F0030070
:1018300010B4C0009A69FF24844022EA0402814067
:10184000114399615DF8044B704700BF0000000030
:10185000024B034A9B699A61FEE700BF08260020FD
:10186000D0B50108000000000000000000000000EA
:1018700000B583B0FFF734FF00F0DAF800F058F855
:1018800001F076FB01F0BCFB40210B4800F0C8F9E9
:101890000A49012288610277002383F3118862B626
:1018A0008969074888610093E021064B064800F0EB
:1018B00017FA03B05DF804FBCC24002008260020B2
:1018C000E0B50108511800081825002000000000AC
:1018D00070B5134B9B69DA7F0AB1013ADA771A6A5D
:1018E000104C01321A62E36822680133A242E360BD
:1018F00014D09668013E966086B91168D56821605B
:10190000D66000234C6083F311881069A847202318
:1019100083F3118822689368002BEED070BD00BF5E
:1019200008260020F825002000000000000000002C
:10193000044B4FF0FF3100225B601B609960DA605E
:10194000704700BFF82500200000000000000000E4
:1019500070B40C4E3468A5680361A942C26004D912
:101960002468491BA5688D42FAD363684360B4427A
:10197000046060601860816002D0A368591AA16099
:1019800070BC7047F8250020000000000000000037
:10199000074A0368934203D0996882680A449A60B0
:1019A00042681360016800234A60C360704700BF4B
:1019B000F8250020000000000000000000000000EA
:1019C00010B4202383F31188037F0D2B11D8DFE897
:1019D00003F026101007100B101010101010100B31
:1019E000426A93680133936090E80C001A600268C1
:1019F00053604FF0FF34002381680C4A4462037740
:101A0000126893688B42FBD25168416002600023E8
:101A10005060086083F311885DF8044B7047002321
:101A200083F311885DF8044B704700BF082600203F
:101A3000034B00225B601B605B611B619A60704717
:101A40000826002000000000000000000000000048
:101A500000228168084B10B4044602771B689A681C
:101A60008A42FBD25A686260236020465C60146040
:101A70005DF8044B704700BF0826002000000000FE
:101A8000084B30B41A689969146808770125142046
:101A9000C877636015771C60104630BC9A61FFF709
:101AA00087BE00BF082600200000000000000000E4
:101AB00030B54B1C87B012D00C4C0D4AA3690546BB
:101AC00001A8FFF745FF2846FFF7DAFF049B13B193
:101AD00001A8FFF75DFFA369586A07B030BD034C4A
:101AE000FFF7CEFFA369586A07B030BD0826002073
:101AF000C119000800000000000000000000000004
:101B0000144BF0B49E6984680546B06869628442EB
:101B10004FF000020BD82A771B689A689442FBD9D1
:101B20005A686A602B605D601560F0BC7047327760
:101B30001A46126891688842FBD95468746001277C
:101B40003260566026602F77314628469D61F0BC92
:101B5000FFF72EBE08260020000000000000000055
:101B60000E4A1068F0B403689469136001271426C4
:101B70000025A1685A60077703469061E6772577CC
:101B800000E01B689A688A42FBD25A686260236050
:101B900021465C601460F0BCFFF70ABE08260020F6
:101BA0000D4A106870B4036894691360012600251B
:101BB000A1685A60067703469061257700E01B68AC
:101BC0009A688A42FBD85A686260236021465C604A
:101BD000146070BCFFF7ECBD082600200000000078
:101BE000044B1A689B6992689B689A4200D87047B8
:101BF000FFF7D6BF0826002000000000000000000C
:101C0000034B9B69DB7F0BB1FFF7CABFFFF7A8BF90
:101C10000826002000000000000000000000000076
:101C20002DE9F041114C016466694661002200F122
:101C30002C054FF002084FF0140C4FF0010E00F18C
:101C400028078160046180F81C80606180F81FC0F3
:101C500080F81EE04277C263826302628261306173
:101C600087620563C562BDE8F08100BF08260020D9
:101C70002DE9F04F184DDFF86490D5F814E0099F76
:101C800024394618C6604FF0020B43504FF0140A37
:101C9000002300F12C014FF0010800F1280C7760BF
:101CA000C6F8209082600561C0F814E0026480F8F4
:101CB0001CB080F81FA080F81E8043776861C36362
:101CC000836303628361CEF81000C0F828C001630B
:101CD000C162BDE8F08F00BF08260020C1170008D0
:101CE0002DE9F84F1D4696460446202383F31188BC
:101CF0001B4BDFF870B05A6924394618C66000F1F2
:101D00002C07455000F1280C00250A9971604FF00E
:101D1000020A4FF014094FF00108C6F820B0294616
:101D20000361C0F808E04261C0F840E0586180F803
:101D30001CA080F81F9080F81E804577C5638563DE
:101D4000056285611061C0F828C00763C762FFF7AC
:101D5000D7FE2B4683F311882046BDE8F88F00BFDD
:101D600008260020C1170008000000000000000045
:101D700010B5202383F31188084B9B691C6C99686C
:101D80008C4201D0814200D298601864FFF728FF8E
:101D9000002383F31188204610BD00BF08260020D1
:101DA00010B52023044683F311880021FFF7A8FE15
:101DB000002383F31188204610BD00BF00000000FF
:101DC000202383F31188437F43F0040343770023E8
:101DD00083F31188704700BF00000000000000007E
:101DE00008B50146202383F311880620FFF760FE23
:101DF000002383F3118808BD0000000000000000EC
:101E000008B5202383F31188054BD968411A02D005
:101E10000620FFF74DFE002383F3118808BD00BFA5
:101E2000F825002000000000000000000000000075
:101E300008B5202383F31188064B1A689B699268C2
:101E40009B689A4201D3FFF78BFE002383F311882E
:101E500008BD00BF082600200000000000000000B0
:101E600038B50E4B9C692546606255F8280FA8428C
:101E700006D00368A362FFF7EBFDA06AA842F8D181
:101E8000637F9B0704D1636922691A6122695361E8
:101E90000E20BDE83840FFF7F3BD00BF0826002044
:101EA000202383F31188FFF7DBBF00BF0000000091
:101EB00038B50446202383F31188037F0E2B07D007
:101EC000084B826A9B6907201A60A362FFF7D8FD5E
:101ED000656A002383F31188204600F019F828462C
:101EE00038BD00BF082600200000000000000000F0
:101EF000202383F31188837F01338377002383F3C7
:101F00001188704700000000000000000000000081
:101F10000146202383F31188827F013AD2B282776F
:101F2000002383F3118812B9037F0E2B00D0704772
:101F3000437F03F00303012B02D0022B07D070472D
:101F4000436902691A610269536101F0B9B84369D2
:101F500002691A610269406C536101F049B900BF1E
:101F6000F0B583B016461D460F4601F069F898B1EA
:101F7000202383F31188089B0093394632462B4671
:101F8000FFF776FE0123437700210446FFF7B8FDF3
:101F9000002383F31188204603B0F0BD0000000049
:101FA0002DE9F04182B00F4616469846054601F0ED
:101FB00007F9A0B1202383F311886968CDF8008068
:101FC0003A463346FFF754FE022343774564002127
:101FD0000446FFF795FD002383F31188204602B0E5
:101FE000BDE8F081000000000000000000000000DB
:101FF000202383F31188044B1869837F013383778F
:10200000002383F311887047082600200000000099
:1020100010B5202383F31188074B04699C421DBF30
:10202000A37F0133A3770024002383F31188FFF7F4
:102030006FFF204610BD00BF0826002000000000F2
:1020400040600060816070470000000000000000F8
:1020500070B5856881600135002D0CDC04466FF099
:1020600001066068436863601C60FFF7F1FC01359E
:10207000012D4662F5D170BD000000000000000097
:1020800008B5202383F31188FFF7E2FFFFF7A8FDCF
:10209000002383F3118808BD000000000000000049
:1020A000202383F311888368013B002B836004DBCA
:1020B0000020002383F31188704710B5084CA269F3
:1020C000506241685160034610605A6003200A6004
:1020D000FFF7D6FCA369586A002383F3118810BD6B
:1020E00008260020000000000000000000000000A2
:1020F00003468068421E002A9A6001DB0020704778
:1021000010B461B1094A926953625C68032082E8A5
:1021100018005A6022605DF8044BFFF7C9BC986054
:102120005DF8044B4FF0FF30704700BF08260020D9
:1021300008B5202383F31188FFF7DAFF002383F328
:10214000118808BD00000000000000000000000031
:1021500008B5202383F3118883680133002B836043
:1021600003DD002383F3118808BD0346006802687D
:102170001A6000215360FFF7C3FC002383F311882A
:1021800008BD00BF000000000000000000000000CB
:1021900083680133002B836000DD704703681A6891
:1021A00002600021506018465962FFF751BC00BF21
:1021B00070B50C1E12DD0546002601E0013C0DD075
:1021C000AB680133002BAB60F8DC286803682B6038
:1021D0005D60FFF73DFC013C4662F1D170BD00BF80
:1021E00010B5024682B0202383F31188836801333F
:1021F000002B83601DDD8B68013B002B8B6007DBB0
:10220000FFF7EEFC0020002383F3118802B010BD1D
:102210000D4A4B689469032084E80A004C601C60F6
:102220006162FFF72DFC606A002383F3118802B01E
:1022300010BD00680191036813605A60FFF708FC45
:10224000002343620199D6E7082600200000000021
:102250000023406000608360704700BF0000000002
:10226000304B826870B59C69002A55D0A16893688C
:102270009942054606D9137F9160042B33D0052B74
:102280001DD09BB12B4603E09968A268914202D30E
:102290001B689D42F8D15A68626023605C601460DC
:1022A00065620420BDE87040FFF7EABB92E80A00CF
:1022B0001960116810464B60FFF7CAFBE2E792E82D
:1022C00009001860566A10684360334602E0986857
:1022D000884202D31B689E42F9D15968516013604D
:1022E0005A600A60CEE792E809001860566A1068E2
:1022F0004360334602E09868884202D31B689E42DE
:10230000F9D15968516013605A600A60B268A168D7
:1023100093688B42AFD3B5E7E36BC3608460E0633F
:1023200070BD00BF08260020000000000000000073
:1023300008B5202383F31188FFF792FF002383F36E
:10234000118808BD0000000000000000000000002F
:102350000246202383F31188836800201BB10023E9
:1023600083F311887047054B9B699360D96BD160EB
:102370000120DA63002383F31188704708260020C8
:10238000174A38B59069202383F31188C46B2568F8
:10239000E368C363A5421CD0016C4BB11A689A4232
:1023A00003D09268914238BF1146DB68002BF5D10B
:1023B0002B68EA6B8160236028465C600021A56081
:1023C000E260EC63FFF79CFB002383F31188204657
:1023D00038BD0023A360002383F31188204638BD55
:1023E000082600200000000000000000000000009F
:1023F00038B5124B9869C46B2568E368C363A5427E
:1024000018D0016C4BB11A689A4203D0926891427D
:1024100038BF1146DB68002BF5D12B68EA6B816071
:10242000236028465C60A560E260EC63FFF710FB68
:10243000204638BD0023A360204638BD0826002072
:10244000134A70B52023946983F31188E36BD3B1E9
:1024500000260AE01168D56B19604B609A60DD6058
:10246000D363FFF7F5FAE36B4BB11A68D968E16300
:102470009A421046EED19E60E36B002BF5D1236C9F
:10248000A360FFF7ADFB002383F3118870BD00BF8D
:1024900008260020000000000000000000000000EE
:1024A00040600060704700BF0000000000000000B6
:1024B00008B5202383F311880268824207D011688F
:1024C000016003464B6010460021FFF719FB002313
:1024D00083F3118808BD00BF000000000000000069
:1024E000026882420AD0116808B5034601604B6059
:1024F0001046FFF7ADFA0023436208BD704700BFE6
:1025000038B504460068A0420AD06FF001050368A0
:1025100023605C60FFF79CFA45622068A042F6D118
:1025200038BD00BF000000000000000000000000F7
:1025300008B5202383F31188FFF7E2FFFFF750FB74
:10254000002383F3118808BD000000000000000094
:102550000F4B70B59C690546FFF74AFF656206465A
:102560002B4603E09968A268914202D31B689D4202
:10257000F8D15A686260236005205C601460FFF740
:102580007FFA646A3046FFF76BFE204670BD00BFDD
:1025900008260020000000000000000000000000ED
:1025A00008B5202383F31188FFF7D2FF002383F3BC
:1025B000118808BD000000000000000000000000BD
:1025C000F8B505460F46FFF713FF0F4B9C6906460B
:1025D0002B46656203E09868A268904202D31B68AC
:1025E0009D42F8D15A686260236039465C600520DC
:1025F0001460FFF75DFA431C044602D03046FFF733
:102600002FFE2046F8BD00BF082600200000000075
:1026100008B5202383F31188FFF7D2FF002383F34B
:10262000118808BD0000000000000000000000004C
:1026300030B4202383F31188064C0368A5690B602E
:102640000024016023464D608A60CC6083F31188CA
:1026500030BC704708260020000000000000000089
:10266000202383F31188024602E0994207D01A46DC
:1026700013688342F9D1002383F3118870470B68F4
:102680001360002383F31188704700BF000000002F
:10269000202383F31188054B9B699A6B22EA000182
:1026A0009963002383F311881040704708260020A7
:1026B000202383F31188044B9A69936B184390632A
:1026C000002383F3118870470826002000000000D3
:1026D00008B5836B027F1943082A81630BD0092A4E
:1026E00000D008BD436A19408B42FAD1FFF7B0F918
:1026F0000023436208BD436A1942F7D108BD00BFF9
:1027000070B50468A04205460E4608D0201D0BC8CF
:102710003343E360FFF7DCFF2468A542F6D170BDC8
:1027200008B5202383F31188FFF7D2FFFFF758FA8B
:10273000002383F3118808BD0000000000000000A2
:1027400008B5202383F31188FFF7DAFFFFF748FA73
:10275000002383F3118808BD000000000000000082
:10276000F8B50D46A9B107460024012606FA04F380
:102770002B4204D1013406FA04F32B42FAD020464E
:1027800025EA030557F8243098470134002DEDD190
:10279000F8BDF8BD000000000000000000000000CF
:1027A00038B50D4B9D69202383F31188AB6B10EA7C
:1027B000030207D1044668620820FFF761F9AB6B9A
:1027C00004EA03025042104023EA0003AB630023F3
:1027D00083F3118838BD00BF0826002000000000E8
:1027E00038B50C4B9D69202383F31188AB6B10EA3D
:1027F000030406D1044668620820FFF741F9AB6B79
:102800001C4023EA0403AB63002383F311882046B2
:1028100038BD00BF082600200000000000000000B6
:1028200038B50C4B04469D69202383F31188AB6BAC
:1028300000EA0302824204D068620920FFF720F90F
:10284000AB6B23EA0403AB63002383F311882046B8
:1028500038BD00BF08260020000000000000000076
:10286000134B70B59E69202383F31188B26B10EA75
:1028700002040FD121B90B4683F31188084670BDBD
:10288000706205460820FFF713F900280BDBB26BD6
:1028900005EA02046042204022EA0002B2630023FB
:1028A00083F3118870BD234683F31188204670BDE1
:1028B00008260020000000000000000000000000CA
:1028C000134B70B59E69202383F31188B26B10EA15
:1028D00002040FD121B90B4683F31188084670BD5D
:1028E000706205460820FFF7E3F800280ADBB26BA8
:1028F00005EA020422EA0402B263002383F311888A
:10290000204670BD234683F31188204670BD00BF6A
:102910000826002000000000000000000000000069
:1029200038B5124B04469D69202383F31188AB6BA5
:102930001840A0420CD021B90B4683F311880846F9
:1029400038BD6C620920FFF7B3F8002808DBAB6BD9
:1029500023EA0403AB63002383F31188204638BDC8
:10296000002383F31188184638BD00BF08260020D5
:102970000E4B70B59C69202383F3118800F12C0560
:10298000067F6562036B63600C2E616325600463E0
:102990001C6007D00A20FFF773F8606A002383F3F6
:1029A000118870BDFFF754F8F4E700BF0826002037
:1029B00010B5202383F311880B4CA269134653F8FA
:1029C0002C0F984208D00168D1620B224B60002383
:1029D000027783F3118810BD0C20FFF751F8A2692C
:1029E000D06A02F12C03EEE7082600200000000068
:1029F00008B5202383F31188FFF782F8002383F3BF
:102A0000118808BD00000000000000000000000068
:102A100010B50B4601EB820141600446C360836040
:102A2000036011461C30FFF70BFB04F1100000217E
:102A3000BDE81040FFF704BB0000000000000000EC
:102A400010B52023044683F3118803684168C360EE
:102A5000C91A836089101C30FFF7FAFA04F11000DC
:102A60000021FFF7F5FAFFF7BBF8002383F3118885
:102A700010BD00BF000000000000000000000000CA
:102A800070B504460E461C301146FFF731FB054673
:102A900078B9A2686168131D8B42A36028BF2368C0
:102AA000166004F1100028BFA360FFF771FBFFF769
:102AB00097F8284670BD00BF00000000000000002D
:102AC00008B5202383F31188FFF7DAFF002383F38F
:102AD000118808BD00000000000000000000000098
:102AE00038B5436A002B12DD84684568221D013B1E
:102AF000AA42436228BF03688260216000F110008F
:102B000028BF40F8083CFFF743FB002038BD4FF0DA
:102B1000FF3038BD00000000000000000000000091
:102B200070B504460E461C301146FFF7E1FA054623
:102B300060B9E3682268043B9342E36008D31E60F7
:102B400004F11000FFF724FBFFF74AF8284670BD98
:102B50006368043BE360F2E700000000000000004F
:102B600008B5202383F31188FFF7DAFF002383F3EE
:102B7000118808BD000000000000000000000000F7
:102B8000426A002A11DDC36810B50468043B013AAB
:102B9000A3424262C36002D24368043BC36019602F
:102BA0001030FFF7F5FA002010BD4FF0FF307047EE
:102BB00070B504460E4610301146FFF799FA0546E7
:102BC00080B9E3686268196804339342E36028BF00
:102BD0002368316004F11C0028BFE360FFF7D8FAD6
:102BE000FEF7FEFF284670BD000000000000000058
:102BF00008B5202383F31188FFF7DAFF002383F35E
:102C0000118808BD00000000000000000000000066
:102C10008369002B14DD5A1EC36810B582614268B7
:102C20001C6804339342C36028BF03680C6000F142
:102C30001C0028BF40F8103CFFF7AAFA002010BD86
:102C40004FF0FF30704700BF0000000000000000A0
:102C500071B1094B9B6910B458624468024683E81D
:102C600014000D20536023605DF8044BFEF720BF75
:102C70004FF0FF30704700BF082600200000000022
:102C800030B4029C046200250A4485600261406001
:102C9000006041618161C160C36130BC704700BFA9
:102CA00038B504460068E36863610022A042A26070
:102CB000A3610AD06FF00105036823605C60FEF732
:102CC000C7FE45622068A042F6D138BD0000000072
:102CD000034640699A69904210B59A681BD0013248
:102CE000441C9A605C61017059691A6991420BD267
:102CF000186898420DD002681A605360FEF7A8FE6B
:102D000000234362184610BD1868DA685A61984279
:102D1000F1D1002010BD002AE1D06FF0030010BDFA
:102D200070B520230E46044683F31188C3692BB186
:102D3000984703E0FFF78CFF002815DBA5682046C5
:102D40003146002DF6D0A2692169531C8B4205F152
:102D5000FF35A361A56028BFE368107828BFA36191
:102D6000002383F3118870BD2B4683F3118870BD57
:102D70002DE9F0471E46044689469246D0F81C804D
:102D8000202383F311880027B8F1000F05D02046D7
:102D9000C04702E0FFF75CFFE0B9A5682046314676
:102DA000002DF7D0A369013D5A1CA261A5601B78D4
:102DB00009F8013B2369A2699A4224BFE368A36131
:102DC000002383F311880137BA4506D0202383F30B
:102DD0001188D9E72B4683F311883846BDE8F08780
:102DE00030B4029C04628D1805614060006082600E
:102DF00041618161C160C36130BC70470000000067
:102E000038B5C26803690446006862619B1AA04233
:102E1000A261A3600AD06FF00105036823605C60C3
:102E2000FEF716FE45622068A042F6D138BD00BF0D
:102E3000F8B504460F461646202383F3118803E0B5
:102E4000FFF706FF002819DBA56820463146002D54
:102E5000F6D06369013D5A1C6261A5601F70236949
:102E600062699A4224BFE3686361E3690BB120465B
:102E70009847002383F311881846F8BD2B4683F347
:102E80001188F8BD000000000000000000000000F4
:102E900038B5826943699342836818D00569511C2B
:102EA000013383608161A94214780DD202688242A5
:102EB00008D01168016003464B601046FEF7C8FD5C
:102EC00000234362204638BDC3688361EEE7002BD0
:102ED000E4D06FF0020038BD0000000000000000E8
:102EE0002DE9F84F9A4604460E461746D0F81C9036
:102EF000202383F311884FF00008A56806F1010B29
:102F00006A1E20460DB36369A2605A1C6261327862
:102F10001A70236962699A4224BFE3686361B9F158
:102F2000000F00D0C847002383F31188013F08F148
:102F3000010813D0202383F31188A5685E466A1E1A
:102F400006F1010B2046002DDDD120465146FFF74A
:102F50007FFE0028D1D02B4683F311884046BDE880
:102F6000F88F00BF0000000000000000000000001B
:102F7000054A064B0648074922F0070223F00703DB
:102F800002600B60704700BFE789002000C001208D
:102F90002826002024260020000000000000000059
:102FA00010B4202383F31188094C0A4B2268196856
:102FB000C31D23F00703891A8B429DBF9B18236012
:102FC00010460020002383F311885DF8044B7047FE
:102FD0002826002024260020000000000000000019
:102FE000024A034B10681B68C01A70472426002051
:102FF0002826002000000000000000000000000063
:10300000044B054A1A6003F1100000229A60DA604E
:10301000FFF71EB930260020A12F00080000000095
:103020000023083A81600360C36010304A600B607F
:10303000FFF70EB9000000000000000000000000D3
:10304000F8B51E4E002818BF0646073106F11000DD
:1030500021F0070506F10804FFF76AF903E0436869
:103060009D4211D9044620680028F8D1FFF788F95D
:1030700033680BB305F108009847E8B10660456076
:1030800000F108042046F8BD05F108029A4208D96B
:1030900003682360044644F8086BFFF771F9204683
:1030A000F8BD6FF00701491B87180B440168815078
:1030B0007B6027604560EDE70024E3E730260020D1
:1030C00070B50646A0F1080450F8080C00F1080598
:1030D0001030FFF72DF92B46AB4204D0A34202D3A8
:1030E0001B68AB42FAD11A681AB1944201D3134655
:1030F000F2E756F8041C46F8082C1C6001F108029F
:1031000056F8085CA018A84209D0596801F10802D5
:103110001A44944211D0BDE87040FFF731B94068BD
:10312000A25846F8082C0A18083246F8042C5968A8
:1031300001F108021A449442EDD116E905000A444F
:10314000083218605A60BDE87040FFF719B900BF37
:1031500038B50E4C002818BF044604F110000D4687
:10316000FFF7E6F8A3686BB10022144658681B68A5
:1031700001340244002BF9D105B12A60FFF700F9B0
:10318000204638BD1A461C46F6E700BF3026002010
:103190000023416082600360704700BF00000000B0
:1031A00062B1202383F3118803680B600023016060
:1031B00083F311884368013A1944F2D1704700BF84
:1031C00008B50246202383F31188006828B10368FC
:1031D0001360002383F3118808BD9368002BF8D097
:1031E00050689847002383F3118808BD0000000051
:1031F000202383F3118803680B600023016083F3AD
:10320000118870470000000000000000000000006E
:10321000014B01221A707047E52C002000000000CD
:1032200070B5094E4C243068074D03682D219B680A
:103230009847013CF7D128680449036802221B68BB
:10324000BDE87040184700BF182D0020B8D4010811
:1032500010B370B5134A84B06D466C46A2FB0013E0
:10326000DB0803EB8301A0EB410000F13001C9B2A0
:1032700004F8011B1846002BF0D1AC420AD90A4EC3
:10328000013C01E014F8011D306803689B68984711
:10329000AC42F7D104B070BD034B1868036830210D
:1032A0009B681847CDCCCCCC182D00200000000026
:1032B00038B50178044641B1044D286803689B681D
:1032C000984714F8011F0029F7D138BD182D0020A8
:1032D00070B50178094D044639B1286803689B68C8
:1032E000984714F8011F0029F7D12868044903689A
:1032F00002221B68BDE87040184700BF182D00204F
:10330000B8D4010800000000000000000000000028
:10331000202383F31188044B1A68511C1960107024
:10332000002383F311887047E82C00200000000080
:1033300059B910B40649074C074A0123237010609D
:103340000B7018465DF8044B704700231846704711
:10335000EC2C0020E42C0020E02C002000000000D9
:10336000F0B40E4E0E4F35683B4605E013F8014BA6
:1033700011F8012B944207D1AB42F7D30B781BB95C
:1033800037601846F0BC7047064C0749074A0123CE
:10339000237010600B701846F0BC7047E82C0020BA
:1033A0001C2D0020E42C0020EC2C0020E02C002020
:1033B0000A4BDB68521A5B1A93420BD310B40849CC
:1033C000084C094A0123237010600B7018465DF801
:1033D000044B704700231846704700BFF8250020B3
:1033E000EC2C0020E42C0020E02C00200000000049
:1033F00038B5064C04F1140554F8043B18460BB1DB
:10340000FEF7DEFCAC42F7D138BD00BF042D002032
:1034100070B5074C002604F1140554F8040B18B1DC
:10342000FEF746FD44F8046CAC42F6D170BD00BF17
:10343000042D00200000000000000000000000003B
:10344000104B114910B49C694FF47A7303FB00F0E0
:10345000226A0138531CA1FB000103EB91118A423F
:10346000236A04D29A4204D95DF8044B70479A4209
:10347000F5D9994294BF00230123002BEFD15DF8C9
:10348000044B704708260020D34D62100000000056
:1034900008B50120FEF7A4FC014BD86808BD00BFA9
:1034A000F8250020000000000000000000000000DF
:1034B0000C4B10B500241C70202383F311884FF4AB
:1034C0007A7303FB00F1084B0848094A0139A3FB52
:1034D0000131890923460131FEF73AFA234683F385
:1034E000118810BDE52C0020D34D6210F02C002077
:1034F0001132000800000000000000000000000081
:103500002DE9F04F9F4CA04D206083B09F48FFF7FE
:10351000DFFE9F48FFF7DCFE9E48FFF7D9FE2A2119
:10352000206803689B68984715F8011F0029F7D1A8
:1035300099489A4DFFF7CCFE2A21206803689B68C2
:10354000984715F8011F0029F7D19548954DFFF7C9
:10355000BFFE2A21206803689B68984715F8011F61
:103560000029F7D19048914DFFF7B2FE2A2120683B
:1035700003689B68984715F8011F0029F7D18C480C
:103580008C4DFFF7A5FE2A21206803689B689847A9
:1035900015F8011F0029F7D18748884DFFF798FEDD
:1035A0002A21206803689B68984715F8011F0029A5
:1035B000F7D18348834DFFF78BFE2A2120680368EB
:1035C0009B68984715F8011F0029F7D17E487F4D69
:1035D000FFF77EFE2A21206803689B68984715F84C
:1035E000011F0029F7D17A4B7A4800910193FFF728
:1035F0006FFE6648DFF81C82DFF888B1FFF768FECF
:10360000754B00991970009B01330093002658F800
:10361000263008EB8607002B00F086806F4DFFF701
:10362000FFFD2D21206803689B68984715F8011F4E
:103630000029F7D100986A4DFFF70AFEDBF8000079
:1036400003682E219B68013698473046FFF700FE3D
:103650002021206803689B68984715F8011F0029FE
:10366000F7D13B681D68297839B1206803689B68E9
:10367000984715F8011F0029F7D15A48DFF89891AB
:10368000594DDFF878A1FFF723FEC820FEF7A8FB0D
:10369000564A3F68C5F800A000231360536093604A
:1036A000D36013617A6889F8003002B19047FB68F3
:1036B0009847BB6803B19847FFF7AAFE99F8003016
:1036C000002B53D04A4F2D21206803689B689847F0
:1036D00017F8011F0029F7D1464B474F1868FFF72D
:1036E000B7FD2021206803689B68984717F8011FE1
:1036F0000029F7D12B68534509D9404F206817F8A6
:10370000011B03689B6898472B689F42F6D33C488F
:10371000FFF7DEFD019BD3F8008058F8263008EB58
:103720008607002B7FF47AAF019B53F8048F019337
:10373000B8F1000F7FF467AFFFF772FD314D13480A
:10374000FFF7C6FD4621206803689B68984715F877
:10375000011F0029F7D1204B1B785BB92A48FFF7DE
:10376000B7FD1D4B187803B0BDE8F08F2748FFF771
:10377000AFFD4CE72648FFF7ABFD174B187803B0B9
:10378000BDE8F08F182D002020B601084CDB0108A1
:1037900000B701081CB7010844B7010834B6010896
:1037A0004CB7010848B6010864B701085CB60108C7
:1037B000ACB7010870B60108B8B7010884B60108B3
:1037C000C4B7010898B60108DCB70108ACB6010817
:1037D00020B8010810B80108EC2C0020C0B6010880
:1037E000D0B6010820B70108E82C0020042D0020E5
:1037F000D4B60108E02C0020ECB601081C2D0020F6
:1038000024B70108F0B6010834B7010828B7010849
:103810003CB7010890B80108E42C0020000000002B
:10382000F0B5274F274EBB69274D9A68274B306864
:10383000274C83B0053A00934FF4A8712B46FEF74E
:103840004FFABB6923499A68736820600091043A73
:1038500018464FF4A8712B46FEF742FABA69B368CE
:1038600092681D4960600091033A18464FF4A871B0
:103870002B46FEF735FABA69F36892681749A060DB
:103880000091023A18464FF4A8712B46FEF728FA29
:10389000BA69336992681249E060013A00911846AA
:1038A0004FF4A8712B46FEF71BFA2061FFF7B0FD1D
:1038B0000C49012003B0BDE8F040FFF751BD00BF47
:1038C0000826002000B60108F1380008B8B8010841
:1038D000042D002020D1010844090208B0B80108D5
:1038E0004C090208B4B80108000000000000000004
:1038F00008B50078FFF70CFD002008BD00000000AF
:10390000F0B52B4F2B4EBB692B4D9A682B4B706833
:103910002B4C83B0043A00934FF4A8712B46FEF76A
:10392000DFF9BB6927499A68336860600091053AFE
:1039300018464FF4A8712B46FEF7D2F9BA693369DD
:103940009268214920600091013A18464FF4A8710D
:103950002B46FEF7C5F9BA69F36892681B492061E6
:103960000091023A18464FF4A8712B46FEF7B8F9B9
:103970002023E06083F31188BB69B0689A68144B18
:103980000093033A2B464FF4A871FEF771F9002318
:10399000A06083F31188A068FEF702FAFFF738FDF4
:1039A0000C49012003B0BDE8F040FFF7D9BC00BFCF
:1039B0000826002000B60108F138000820D10108CF
:1039C000042D0020B8B801084C090208B0B801085D
:1039D00044090208B4B8010800000000000000001B
:1039E000F8B54A4EB3699C68651C2846FEF7C0F9D5
:1039F000011B0746B1FA81F101204909FFF798FC44
:103A000000B1F8BDB36999680220691AB1FA81F171
:103A10004909FFF78DFC0028F3D13846FEF7A8F9D5
:103A2000291A0320B1FA81F14909FFF781FC002826
:103A3000E7D1B36999680420091BB1FA81F14909FA
:103A4000FFF776FC0028DCD1202383F31188B169CD
:103A50008B689A1C8A60034683F31188B36999685E
:103A6000A71CC91B0520B1FA81F14909FFF760FCC9
:103A70000028C6D12846FEF77BF9011B0620B1FAC3
:103A800081F14909FFF754FC0028BAD1B36999685C
:103A90000720791AB1FA81F14909FFF749FC00289A
:103AA000AFD1B369196C0820691AB1FA81F14909DB
:103AB000FFF73EFC0028A4D1E71C3846FEF758F972
:103AC000281A414241410920FFF732FC002898D1D1
:103AD000B36999687A1A514251410A20FFF728FCCC
:103AE00000288ED1B369196C7B1A594259410B20B9
:103AF000FFF71EFC002884D1202383F31188B269CC
:103B000003469460146483F311887AE70826002042
:103B100038B51C4DFFF7BCFCEC686420FEF760F97B
:103B200004F1640104F165020120FFF741FC00B1DA
:103B300038BDEC686420FEF753F904F1640104F128
:103B400065020220FFF734FC0028F1D1EC684FF445
:103B50007A70FEF745F904F57A7104F2E932032030
:103B6000FFF726FC0028E3D1EC6804F16405284641
:103B7000FEF746F9294604F165020420BDE8384005
:103B8000FFF716BCF8250020000000000000000030
:103B90002DE9F043444E454FB369D7F800809A6849
:103BA000DFF82C91424B434D434C83B005324FF428
:103BB000A871CDF800904046FEF792F8B369796895
:103BC0009A683E4B28600132084600934FF4A87172
:103BD000374BFEF785F8B369B9689A68384B686067
:103BE0000332084600934FF4A871314BFEF778F882
:103BF000B369F9689A68334BA860043208460093A9
:103C00004FF4A8712A4BFEF76BF8B36939699A68CB
:103C10002D4BE8600232084600934FF4A871244B04
:103C2000FEF75EF828612046FEF792FA2046FEF77E
:103C30008FFA2046FEF78CFA2046FEF789FA2046D6
:103C4000FEF786FAFFF7E4FB01202049FFF788FB27
:103C5000074610B103B0BDE8F083B269144B926817
:103C6000CDF80090053240464FF4A871FEF738F8C1
:103C70002023286083F3118802212046FEF798FA5A
:103C8000FDF7AEFF3B4683F31188FFF7C1FBA16848
:103C90000220A1F10101B1FA81F1490903B0BDE8A7
:103CA000F043FFF745BB00BF0826002000B601081F
:103CB000013D0008042D002000080020B0B80108D4
:103CC0004409020820D10108B8B80108B4B80108B5
:103CD0004C09020800000000000000000000000085
:103CE00010B5044C2046FEF7DBF92046FEF730FA0B
:103CF000002010BD000800200000000000000000AF
:103D000010B504460348FEF7CBF92078FFF700FB17
:103D1000002010BD0008002000000000000000008E
:103D200001480021FEF78CB90008002000000000C7
:103D300001480021FEF784B90008002000000000BF
:103D400001480021FEF77CB90008002000000000B7
:103D500008B53220FEF744F8202383F31188054884
:103D6000FEF716FAFDF73CFF002383F3118818468F
:103D700008BD00BF00080020000000000000000097
:103D800008B5202383F311888368002B06DDFDF737
:103D900027FF002383F31188184608BDFEF7F8F9C2
:103DA000F5E700BF00000000000000000000000078
:103DB00000B587B003A80021FEF742F903A800214F
:103DC000FEF75EF905990029CCBF002101210120F1
:103DD000FFF7AEFA10B107B05DF804FB314B324A81
:103DE0009B6910689A68314B03A90091013A4FF41E
:103DF000A871FDF775FF2E4B186003A8FEF750F968
:103E000005990029CCBF002101210220FFF790FA7B
:103E10000028E0D1202383F31188059B002B38DD97
:103E2000FDF7DEFE002383F3118805999942D4BF84
:103E3000002101210320FFF77BFA0028CBD105994F
:103E40000420A1F10101B1FA81F14909FFF770FAEB
:103E50000028C0D1202383F31188059B002B1CDD93
:103E6000FDF7BEFE002383F3118805999942D4BF64
:103E7000002101210320FFF75BFA0028ABD105994F
:103E80000520A1F10101B1FA81F14909FFF750FACA
:103E9000A1E703A8FEF77CF9C2E703A8FEF778F9CB
:103EA000DEE700BF0826002000B60108813D0008BB
:103EB000042D0020000000000000000000000000B1
:103EC00070B54A4C82B000212046FEF731F9A0F1CE
:103ED000FF310120B1FA81F14909FFF729FA08B150
:103EE00002B070BD21680220091BB1FA81F14909B5
:103EF000FFF71EFA0028F3D1A168B1FA81F103207F
:103F00004909FFF715FA0028EAD1394B394A9B696C
:103F100011689A68384B0090013A08464FF4A8712E
:103F2000FDF7DEFE354B4FF4FA7118602046FEF7C0
:103F3000FFF80546FFF76CFAB5FA85F10420490948
:103F4000FFF7F6F90028CBD121680520091BB1FA4B
:103F500081F14909FFF7ECF90028C1D1A168B1FA54
:103F600081F106204909FFF7E3F90028B8D1FFF7EE
:103F70008FFA234BDE6841252846FFF7C9F94FF435
:103F8000FA711A48FEF7D4F8A0F1FF310720B1FA10
:103F900081F14909FFF7CCF90028A1D12168082057
:103FA000091BB1FA81F14909FFF7C2F9002897D13D
:103FB000A168B1FA81F109204909FFF7B9F9013582
:103FC000EDB200288CD1462DD6D10A200D49FFF73D
:103FD000C7F9002884D10B2006F6C41106F6C912D1
:103FE00002B0BDE87040FFF7E3B900BF0008002051
:103FF0000826002000B60108513D0008042D0020CD
:10400000F8250020B4B801080000000000000000FE
:1040100010B5204B204A9B6910689A681F4B204CB2
:1040200082B00021013200914FF4A871FDF758FED3
:104030001C4B214618602046FEF7D2F8216801206B
:10404000091BB1FA81F14909FFF772F908B102B011
:1040500010BDA168B1FA81F102204909FFF768F9A2
:104060000028F4D121462046FEF7BAF82168032043
:10407000091BB1FA81F14909FFF75AF90028E6D185
:10408000A168B1FA81F10420490902B0BDE81040ED
:10409000FFF74EB90826002000B60108E13C0008F1
:1040A00000080020042D0020000000000000000097
:1040B000F0B52B4F2B4EBB692B489C682B4D83B022
:1040C000FEF736F92A4B0093621C4FF4A871294B76
:1040D0003068FDF705FE7168274B2860A21C084672
:1040E00000934FF4A871234BFDF7FAFDB168234B01
:1040F0006860E21C084600934FF4A8711D4BFDF761
:10410000EFFDF1681E4BA860221D084600934FF496
:10411000A871184BFDF7E4FD31691A4BE860621D88
:10412000084600934FF4A871124BFDF7D9FD2861A2
:10413000FEF726F9FFF76CF9BB6999680120091BA6
:10414000B1FA81F14909FFF7F3F808B103B0F0BD06
:104150000D49022003B0BDE8F040FFF701B900BFF0
:104160000826002000B601080C080020042D0020BD
:10417000B8B801089141000820D10108440902089B
:10418000B0B801084C090208B4B8010800000000EA
:1041900010B504460448FEF7CBF82078FFF7B8F8CE
:1041A000FEF7EEF8002010BD0C0800200000000013
:1041B00010B504460448FEF7BBF82078FFF7A8F8CE
:1041C000FEF7DEF8002010BD1C08002000000000F3
:1041D0000148FEF73DB800BF0C08002000000000B9
:1041E0000148FEF735B800BF0C08002000000000B1
:1041F00008B50448FEF72CF80348BDE80840FEF770
:1042000027B800BF0C0800201C0800200000000098
:1042100008B50448FEF71CF80348BDE80840FEF75F
:1042200017B800BF0C0800201C0800200000000088
:104230000148FEF70DB800BF0C0800200000000088
:104240002DE9F041204F214E214C82B0FFF720F99B
:10425000BB6920499A68D1F80C801F4B3068002553
:10426000013A4FF4A8710095FDF73AFDBA697368F9
:1042700092682060023A18464FF4A871174B0095D7
:10428000FDF72EFDBA69B368926860604FF4A871BB
:10429000033A18460095124BFDF722FDA060FFF788
:1042A000B7F801200F49FFF75BF810B102B0BDE885
:1042B000F081022008F1640108F1690202B0BDE852
:1042C000F041FFF775B800BF0826002000B60108CE
:1042D000042D0020F8250020414400082144000856
:1042E000D143000830BA01080000000000000000BF
:1042F0002DE9F0412C4F2D4E2D4C82B0FFF7C8F820
:10430000BB692C499A68D1F80C802B4B306800258A
:10431000053A4FF4A8710095FDF7E2FCBA6973689D
:1043200092682060043A18464FF4A871234B009518
:10433000FDF7D6FCBA69B36892686060033A184624
:104340004FF4A8711E4B0095FDF7CAFCBA69F368DB
:104350009268A060023A18464FF4A871194B009574
:10436000FDF7BEFCBA6933699268E0604FF4A8714A
:10437000013A18460095144BFDF7B2FC2061FFF797
:1043800047F801201149FEF7EBFF10B102B0BDE87C
:10439000F081022008F16E0108F1730202B0BDE85D
:1043A000F041FFF705B800BF0826002000B601085D
:1043B000042D0020F825002001440008F1440008E5
:1043C000C1440008A144000871440008B4B80108C1
:1043D00008B50848FDF7ACFF2820FFF731F8FDF7D6
:1043E000CFFF0A20FFF72CF84320FEF791FF0020B3
:1043F00008BD00BF0C080020000000000000000005
:1044000008B50648FDF794FF1E20FFF719F8FDF7E1
:10441000B7FF4520FEF77CFF002008BD0C080020F8
:1044200008B51420FDF7DCFC2820FFF709F842202E
:10443000FEF76EFF002008BD000000000000000035
:1044400008B52820FDF7CCFC0648FDF771FF0A20CF
:10445000FEF7F6FFFDF794FF4120FEF759FF00201D
:1044600008BD00BF0C080020000000000000000094
:1044700008B53220FDF7B4FC0648FDF759FF0A20C5
:10448000FEF7DEFFFDF77CFF4120FEF741FF002035
:1044900008BD00BF1C080020000000000000000054
:1044A00008B52820FDF79CFC1420FEF7C9FF422028
:1044B000FEF72EFF002008BD0000000000000000F5
:1044C00008B51420FDF78CFC0648FDF731FF0A20E3
:1044D000FEF7B6FFFDF754FF4320FEF719FF00205B
:1044E00008BD00BF1C080020000000000000000004
:1044F00008B50A20FDF774FC0B48FDF719FF1420DE
:10450000FEF79EFF0948FDF713FF0A20FEF798FF0C
:10451000FDF736FF0A20FEF793FFFDF731FF442039
:10452000FEF7F6FE002008BD1C0800200C08002045
:1045300008B59620FDF754FC0348FDF7F9FEFDF79A
:104540001FFF002008BD00BF0C0800200000000075
:1045500008B53220FDF744FC0348FDF7E9FEFDF7FE
:104560000FFF002008BD00BF1C0800200000000055
:104570002DE9F0468A4D8B4EAB6932689C688A4BB8
:104580008A4F85B004F101091046039200934A4610
:104590004FF4A871864BFDF7A3FB7668854B386016
:1045A00004F1020A4FF4A871524600933046824B40
:1045B000FDF796FB78608148FDF7BAFEAB69996814
:1045C0000120091BB1FA81F14909FEF7B1FE10B1D2
:1045D00005B0BDE8F0866420FDF702FCAB69996880
:1045E0000220C9EB0101B1FA81F14909FEF7A0FEF1
:1045F0000028EDD17248FDF79BFEAB699968032056
:10460000C9EB0101B1FA81F14909FEF791FE0028D9
:10461000DED16420FDF7E4FBAB6999680420CAEBA6
:104620000101B1FA81F14909FEF782FE0028CFD1DC
:10463000FDF7A6FEAB6999680520C9EB0101B1FA47
:1046400081F14909FEF774FE0028C1D16420FDF70D
:10465000C7FBAB6999680620C9EB0101B1FA81F18A
:104660004909FEF765FE0028B2D1FDF7E9FEAB6906
:1046700099680720091BB1FA81F14909FEF758FE34
:104680000028A5D1FEF7C4FE4E4B00934FF4A8714D
:104690004A46474B0398FDF723FB4B4B38604FF4DA
:1046A000A87100935246444B3046FDF719FB7860E1
:1046B0004248FDF73DFEAB6999680820091BB1FA35
:1046C00081F14909FEF734FE002881D16420FDF70D
:1046D00087FBAB699968C9EB010CDCF1000141EB88
:1046E0000C010920FEF724FE00287FF471AF344846
:1046F000FDF71EFEAB699968C9EB010EDEF1000102
:1047000041EB0E010A20FEF713FE00287FF460AF94
:104710006420FDF765FBAB699968CAEB0107794234
:104720004FF00B007941FEF703FE064600287FF4A8
:104730004FAF202383F31188FDF75AFEFDF750FA9F
:10474000334683F31188AB699968C9EB010671425E
:1047500071410C20FEF7ECFD00287FF439AF642096
:10476000FDF73EFBAB699968C9EB0102514251412B
:104770000D20FEF7DDFD00287FF42AAFFDF760FE77
:10478000AB6999680B1B594259410E20FEF7D0FDC9
:1047900000287FF41DAF05B0BDE8F046FEF738BE37
:1047A0000826002000B60108B0B80108042D00203A
:1047B000514500084C090208314500081C0800203A
:1047C0000C08002020D10108440902080000000064
:1047D000F8B52B4D2B4CAB6920469E68FDF7B8FD14
:1047E00001460120FEF7A4FD00B1F8BD2046FDF70B
:1047F000AFFD80F00101C9B20220FEF799FD074626
:104800000028F2D1202383F31188FDF7F1FD3B4608
:1048100083F3118821680320091BB1FA81F149094A
:10482000FEF786FD0028E0D1A168B1FA81F10420ED
:104830004909FEF77DFD0028D7D1AB6999680520AD
:10484000891BB1FA81F14909FEF772FD0028CCD12C
:104850002046FDF76DFDFDF7F3FD21680620091BDD
:10486000B1FA81F14909FEF763FD0028BDD1A168C5
:10487000B1FA81F107204909BDE8F840FEF758BDBB
:10488000082600200C0800200000000000000000A6
:10489000F0B52F4B2F4F9B692F4D9E682F4B3868DB
:1048A0002F4C83B0721C00934FF4A8712B46FDF778
:1048B00017FA7B682B492060B21C009118464FF410
:1048C000A8712B46FDF70CFABB6827496060F21C03
:1048D000009118464FF4A8712B46FDF701FAFB68CA
:1048E0002249A060321D009118464FF4A8712B4652
:1048F000FDF7F6F93B691E49E060721D009118460C
:104900004FF4A8712B46FDF7EBF92023206183F3C8
:104910001188184C2046FDF7E3FD2046FDF7E0FD29
:104920002046FDF7DDFD2046FDF7DAFD2046FDF7C8
:10493000D7FDFDF755F9002383F31188FEF768FDD5
:104940000D49012003B0BDE8F040FEF709BD00BFEE
:104950000826002000B6010881490008B8B80108FF
:10496000042D002020D1010844090208B0B8010834
:104970004C0902082C080020B4B80108000000000F
:1049800010B504460648FDF7D3FC0648FDF708FEBF
:104990002078FEF7BDFCFDF7F3FC002010BD00BF42
:1049A0000C0800202C08002000000000000000007F
:1049B00008B50448FDF774FD0348BDE80840FDF75D
:1049C00047BC00BF2C0800200C080020000000009D
:1049D00008B50448FDF764FD0348BDE80840FDF74D
:1049E00037BC00BF2C0800200C080020000000008D
:1049F00008B50548FDF754FD0448FDF729FC0448B7
:104A0000BDE80840FDF724BC2C0800200C0800205D
:104A10001C08002000000000000000000000000052
:104A2000F0B5244B244F9B69244D9E68244B386875
:104A3000244C83B0721C00934FF4A8712B46FDF7F1
:104A40004FF97B6820492060B21C009118464FF452
:104A5000A8712B46FDF744F9BB681C496060F21C45
:104A6000009118464FF4A8712B46FDF739F9FB6801
:104A70001749A060321D009118464FF4A8712B46CB
:104A8000FDF72EF93B691349E060721D009118464D
:104A90004FF4A8712B46FDF723F920610E48FDF76E
:104AA00047FDFEF7B5FC0D49012003B0BDE8F0401D
:104AB000FEF756BC0826002000B601088149000810
:104AC000B8B80108042D002020D1010844090208CB
:104AD000B0B801084C0902082C080020B4B801083D
:104AE000F0B51B4B1B4E9B6930689D681A4B1B4CE5
:104AF0001B4F83B06A1C00934FF4A871194BFDF74C
:104B0000EFF87168184B2060AA1C00930846174BF9
:104B10004FF4A871FDF7E4F8B168154B6060EA1C2A
:104B200000930846134B4FF4A871FDF7D9F8A06025
:104B30003846FDF7BDFC3846FDF7BAFCFEF768FCC9
:104B40000D49012003B0BDE8F040FEF709BC00BFED
:104B50000826002000B601084C090208042D002098
:104B60002C080020814B00084409020881490008F4
:104B7000B0B80108B141000830BA010800000000D7
:104B800010B504460948FDF7D3FB0948FDF7D0FBF3
:104B90004FF0FF310748FDF73BFD2078FEF7B8FBEB
:104BA000FDF7EEFBFDF7ECFB002010BD1C0800201C
:104BB0000C0800202C08002000000000000000006D
:104BC00010B5184A184B916918688A68174B82B05B
:104BD000013200914FF4A871FDF782F8144B186070
:104BE000FDF7E6FE446B2146FDF702FFE0B2FEF75B
:104BF0008FFBFDF7DDFE446B2146FDF7F9FEE0B2C9
:104C0000FEF786FBFDF7D4FE446B2146FDF7F0FE70
:104C1000E0B2FEF77DFB0749012002B0BDE810407D
:104C2000FEF79EBB0826002000B60108414C000894
:104C3000042D002030BA0108000000000000000030
:104C400010B541210446FDF793FE20464221FDF7B1
:104C50008FFE20464321FDF78BFE002010BD00BFD4
:104C6000F0B5B04E716A83B0A1F105010120B1FA2F
:104C700081F14909FEF75CFBF0B94224A94D2146B8
:104C80004FF0FF322846FDF71BFFB0FA80F10220FB
:104C90004909FEF74DFB013470B9462CEED1412194
:104CA00028464FF0FF32FDF75BFFB0FA80F103209A
:104CB0004909FEF73DFB08B103B0F0BD58210122C0
:104CC0002846FDF7FDFEA0F1FF310420B1FA81F185
:104CD0004909FEF72DFB04460028EDD1202383F37C
:104CE000118858212846FDF7FBFE2346014683F331
:104CF00011880520A1F1FF31B1FA81F14909FEF7D0
:104D000017FB0028D8D1582101222846FDF728FF9B
:104D1000A0F1FF310620B1FA81F14909FEF708FB45
:104D200004460028C8D1202383F31188582128463F
:104D3000FDF726FF2346014683F311880720A1F1E2
:104D4000FF31B1FA81F14909FEF7F2FA074600286E
:104D5000B2D1202383F311880820696AB1FA81F166
:104D60004909FEF7E5FA044618B13B4683F311887A
:104D7000A2E7034683F31188202383F31188A969EE
:104D80004F1F79424FF009007941FEF7D1FA0346EF
:104D900018B1234683F311888EE783F3118820230B
:104DA00083F31188E968AB68CC1A61424FF00A00BE
:104DB0006141FEF7BDFA0023002840F09A8083F39A
:104DC0001188052505E09DF80400FEF7A1FA013DD4
:104DD0000FD0544C01A920464FF0FF32FDF708FFD9
:104DE000B0FA80F10B204909FEF7A2FA0028EAD0B8
:104DF00062E70C204C49FEF7B3FA00287FF45CAF61
:104E0000472120464FF0FF32FDF75AFEB0FA80F1FD
:104E10000D204909FEF78CFA00287FF44DAF01A957
:104E200020464FF0FF32FDF7E3FEB0FA80F10E208E
:104E30004909FEF77DFA00287FF43EAF2168A36898
:104E4000CA1A514251410F20FEF772FA00287FF42E
:104E500033AF2168E368CB1A594259411020FEF75D
:104E600067FA00287FF428AF01A920460122FDF748
:104E7000BFFE00F1010CDCF1000141EB0C0111203F
:104E8000FEF756FA00287FF417AF202383F311882A
:104E900001A92046FDF7BCFE2B46014683F311888D
:104EA00001F1010EDEF1000141EB0E011220FEF7CF
:104EB0003FFA00287FF400AF202383F31188616A52
:104EC0004F1F79424FF013007941FEF731FA00236A
:104ED00078B983F31188202383F311881420B169F2
:104EE000B1FA81F14909FEF723FA0E4C054618B1D3
:104EF000002383F31188DFE6034683F31188202320
:104F000083F31188E168A368CE1A71424FF015004F
:104F10007141FEF70DFA034640B12B4683F3118829
:104F2000CAE600BF34080020B4B8010883F3118832
:104F3000202383F3118841212046FDF7D1FDB0FAEB
:104F400080F116204909FEF7F3F900287FF4B4AE8A
:104F500042212046FDF7C4FDB0FA80F1172049092F
:104F6000FEF7E6F900287FF4A7AE43212046FDF7BF
:104F7000B7FDB0FA80F118204909FEF7D9F90028E9
:104F80007FF49AAE44212046FDF7AAFDB0FA80F1E5
:104F900019204909FEF7CCF9054600287FF48CAEAC
:104FA00020464521FDF79CFD2B46014683F31188E1
:104FB0001A20B1FA81F14909FEF7BAF900287FF405
:104FC0007BAEE168A368CC1A614261411B20FEF709
:104FD000AFF900287FF470AE0525202383F31188F4
:104FE0009A4C01A92046FDF713FE0023014683F3E6
:104FF00011881C20B1FA81F14909FEF799F90028BE
:105000007FF45AAE9DF80400FEF782F9013DE4D129
:105010001D208F49FEF7A4F900287FF44DAE202310
:1050200083F31188616A4A1F51424FF01E005141BB
:10503000FEF77EF92B4600287FF45BAF83F31188DF
:10504000202383F311881F20A169B1FA81F1490956
:10505000FEF76EF92B4600287FF44BAF83F31188DF
:10506000E168A368CB1A594259412020FEF760F944
:1050700000287FF421AE202383F3118845212046A8
:10508000FDF77EFDB0FA80F121204909FEF750F9C5
:1050900000287FF411AE44212046FDF771FDB0FADF
:1050A00080F122204909FEF743F900287FF404AE7D
:1050B00043212046FDF764FDB0FA80F12320490921
:1050C000FEF736F900287FF4F7AD42212046FDF7C0
:1050D00057FDB0FA80F124204909FEF729F900288C
:1050E0007FF4EAAD594C41212046FDF749FD0023EC
:1050F000014683F311882520B1FA81F14909FEF7B1
:1051000017F900287FF4D8ADE168A368C3EB010C60
:10511000DCF1000141EB0C012620FEF709F9002823
:105120007FF4CAAD0524202383F31188474D01A9DC
:105130002846FDF76DFD0023014683F311882720E3
:10514000B1FA81F14909FEF7F3F800287FF4B4AD14
:105150009DF80400FEF7DCF8013CE4D128203C492E
:10516000FEF7FEF800287FF4A7AD202383F3118813
:10517000696AA1F1050EDEF100014FF0290041EB53
:105180000E01FEF7D5F8234600287FF4B2AE83F374
:105190001188202383F311882A20A969B1FA81F1AB
:1051A0004909FEF7C5F8234600287FF4A2AE83F331
:1051B0001188E968AB68CF1A794279412B20FEF754
:1051C000B7F800287FF478AD2846FDF739FC202396
:1051D00083F31188696A4E1F71424FF02C007141B0
:1051E000FEF7A6F8234600287FF483AE83F31188E8
:1051F000202383F311882D20A969B1FA81F149098F
:10520000FEF796F8234600287FF473AE83F31188E7
:10521000202383F311882968AB68CA1A51424FF0E2
:105220002E005141FEF784F8234600287FF461AE3A
:1052300083F31188202383F311882968EB68CB1A44
:10524000594259412F20FEF773F851E634080020E7
:10525000B4B80108000000000000000000000000D9
:10526000024803490522FDF7D3BB00BF34080020E4
:105270005026002000000000000000000000000098
:1052800010B51D4C88B02046694601222460FDF708
:10529000CFF9204604A90222FDF7CAF92168091BAB
:1052A00018BF01210120FEF743F808B108B010BD76
:1052B00069462046FDF7D4F92168091B18BF012172
:1052C0000220FEF735F80028F0D104A92046FDF7AA
:1052D000C7F921680320091BB1FA81F14909FEF7DA
:1052E00027F80028E2D105480721FDF739FA0449DB
:1052F0000420FEF735F8D9E75C08002090BC0108CF
:1053000030BA0108000000000000000000000000AA
:105310004320FDF7FDBF00BF0000000000000000BB
:105320004220FDF7F5BF00BF0000000000000000B4
:105330004120FDF7EDBF00BF0000000000000000AD
:105340004FF0FF30FDF7A4B900000000000000009E
:105350004FF0FF30FDF79CB9000000000000000096
:105360004FF0FF30FDF794B900000000000000008E
:105370002DE9F04307208BB0FDF79AF94FF0FF308D
:10538000FDF70EFAA0F101010120B1FA81F14909FE
:10539000FDF7CEFF10B10BB0BDE8F0834FF0FF304A
:1053A000FDF7FEF9A0F102010220B1FA81F14909ED
:1053B000FDF7BEFF0028EED14FF0FF30FDF7F0F90A
:1053C000A0F104010320B1FA81F14909FDF7B0FF12
:1053D0000028E0D14FF0FF30FDF75AF9B0FA80F124
:1053E00004204909FDF7A4FF0028D4D1DFF8E481A7
:1053F000714E724DFEF74CF8D8F8183070499A6823
:105400000F680093013A4FF4A8716E4BF468384668
:10541000FCF766FC28604FF0FF30FDF7C1F904F19E
:105420003201814604F137020520FDF7C1FF002853
:10543000B1D1A9F101010620B1FA81F14909FDF7C5
:1054400077FF0028A7D14FF0FF30FDF721F9B0FA20
:1054500080F107204909FDF76BFF00289BD1FDF77C
:10546000D7FF0520FDF724F94FF0FF30FDF7B8F91D
:10547000441F614261410820FDF75AFF00288AD18C
:105480004FF0FF30FDF704F9B0FA80F10920490927
:10549000FDF74EFF00287FF47EAFFDF7F9FFD8F847
:1054A0001810484B8A680091013A4FF4A8713846A9
:1054B000F468FCF715FC28604FF0FF30FDF790F919
:1054C00004F13201814604F137020A20FDF770FF32
:1054D00000287FF460AF09F1FF30414241410B20C9
:1054E000FDF726FF00287FF456AF4FF0FF30FDF7A1
:1054F000CFF8B0FA80F10C204909FDF719FF002818
:105500007FF449AFDFF8D0902F4CFDF781FF48467C
:1055100002A90122C9F800902460FDF789F806A9C4
:1055200004222046FDF784F8FDF7B2FFD8F81830C2
:1055300026499A680091013A4FF4A871244BF66805
:105540003846FCF7CDFB28600520FDF769F906F128
:10555000320106F137020D20FDF72AFF00287FF403
:105560001AAF4FF0FF30FDF793F8B0FA80F10E203C
:105570004909FDF7DDFE00287FF40DAFFDF748FF78
:10558000484602A9FDF76CF8204606A9FDF768F821
:10559000D9F80010C9EB0102514251410F20FDF72B
:1055A000C7FE00287FF4F7AE21680B1B5942594112
:1055B0001020FDF7BDFEEEE6F8250020042D0020AA
:1055C00000B6010811560008600800204C090208C6
:1055D000E1550008082600205C08002000000000BB
:1055E00008B500210548FDF7ABF83220FCF7F8FBC1
:1055F00003480021FDF7A4F8002008BD5C08002046
:105600006008002000000000000000000000000012
:1056100010B504463220FCF7E3FB20460121FDF7DC
:105620007FF8002010BD00BF000000000000000057
:1056300008B500214FF0FF30FDF712F9B0FA80F104
:1056400001204909FDF774FE00B108BD01464FF085
:10565000FF30FDF735F9B0FA80F102204909FDF776
:1056600067FE0028F1D101464FF0FF30FDF758F9F1
:10567000B0FA80F103204909FDF75AFE0028E4D171
:105680000A214FF0FF30FDF7EBF8B0FA80F104206B
:105690004909FDF74DFE0028D7D10A214FF0FF3010
:1056A000FDF70EF9B0FA80F105204909FDF740FE3B
:1056B0000028CAD10A214FF0FF30FDF731F9BDE8CB
:1056C0000840B0FA80F106204909FDF731BE00BF5D
:1056D00070B582B0FDF784FC01A90020FDF738FD0C
:1056E00010210020FDF7ACFC011C054618BF01216C
:1056F0000120FDF71DFE044608B102B070BD28462A
:10570000FDF7DEFC6FF0FF012046FDF799FCB0FAD3
:1057100080F102204909FDF70BFE0028EDD101A917
:105720007B48FDF715FD10217948FDF789FC102114
:1057300006467748FDF784FC102105467448FDF7BE
:105740007FFC04463046FDF7BBFC2846FDF7B8FC5D
:105750002046FDF7B5FC69466D48FDF7F9FCA0F160
:1057600001010320B1FA81F14909FDF7E1FD0028AB
:10577000C3D110216648FDF763FC1021044664483C
:10578000FDF75EFC102105466148FDF759FCFDF769
:1057900097FC2846FDF794FC2046FDF791FC6946EE
:1057A0005B48FDF7D5FCA0F101010420B1FA81F1BD
:1057B0004909FDF7BDFD00289FD111215448FDF78F
:1057C0003FFC102104465248FDF73AFC05462046AE
:1057D000FDF776FC69464E48FDF7BAFCA0F10201E0
:1057E0000520B1FA81F14909FDF7A2FD002884D115
:1057F00010214748FDF724FC694604464448FDF75C
:10580000A7FC012800F0818069464148FDF7A0FC13
:10581000A0F10201B1FA81F149090620FDF788FDE6
:1058200000287FF46AAF2846FDF74AFC2046FDF7C2
:1058300047FC69463648FDF78BFC461E71427141B4
:105840000720FDF775FD00287FF457AF1021304881
:10585000FDF7F6FB102105462D48FDF7F1FB044648
:105860002846FDF72DFC69462948FDF771FC851E89
:10587000694269410820FDF75BFD00287FF43DAFD8
:1058800020212348FDF7DCFBFDF71AFC2046FDF73D
:1058900017FC69461E48FDF75BFC01384142414157
:1058A0000920FDF745FD00287FF427AF6946184819
:1058B000FDF74EFC00991648FDF7C2FB6946044609
:1058C0001348FDF745FCB0FA80F10A204909FDF7BD
:1058D0002FFD00287FF411AF2046FDF7F1FB69464C
:1058E0000B48FDF735FC421E514251410B20FDF79C
:1058F0001FFD00287FF401AF9DE80A00CB1A594232
:1059000059410C20FDF714FDF7E6014685E700BF7D
:10591000302D00200000000000000000000000000A
:10592000024803494FF4D262FDF77ABB302D0020C4
:1059300050260020000000000000000000000000D1
:105940000020704700000000000000000000000080
:1059500002484FF4A8710022FDF71ABC6408002029
:1059600038B52B4B2B481D6805222946FDF718FC3E
:1059700005242848FDF724FC011C18BF0121012043
:10598000FDF7D6FC90BB013CF3D12248FDF718FC93
:10599000B0FA80F102204909FDF7CAFC30BB1C4C6B
:1059A0001C48294604F11005FDF722FCAC4206D044
:1059B00054F8041F1748FDF71BFCAC42F8D105242E
:1059C0001448FDF7FDFB011C18BF01210320FDF762
:1059D000AFFC58B9013CF3D10E48FDF7F1FBB0FA2A
:1059E00080F104204909FDF7A3FC00B138BD102166
:1059F0000848094AFDF7CCFB0648FDF7E1FBBDE886
:105A00003840B0FA80F105204909FDF791BC00BF8C
:105A100000B6010864080020415900080000000099
:105A200070B5344B34489B69344C9D6884B003A9ED
:105A3000FDF78EFB324B00936A1E324B2E484FF41B
:105A4000A871FCF78DFA304B2060AA1E00934FF42A
:105A5000A8712C4B2848FCF783FA02A960602648FD
:105A6000FDF776FB02992448FDF7EAFA274B0093ED
:105A70004FF4A8710646EA1E224B1F48FCF770FA45
:105A8000A0603046FDF71CFB216821B1616811B1AF
:105A9000A16831B300210120FDF74AFC08B104B030
:105AA00070BDFDF7B5FC02201949FDF759FC00282F
:105AB000F5D102A91048FDF74BFBA0F1010103202D
:105AC000B1FA81F14909FDF733FC0028E7D10299C9
:105AD000039B0420C91AB1FA81F14909FDF728FC9A
:105AE000DDE7E368002BD6D12169B1FA81F14909DC
